{
	"src/Types.sol": {
		"Types": {
			"abi": [
				{
					"inputs": [],
					"name": "NATIVE_TOKEN",
					"outputs": [
						{
							"internalType": "address",
							"name": "",
							"type": "address"
						}
					],
					"stateMutability": "view",
					"type": "function"
				}
			],
			"devdoc": {
				"details": "Provides the `AssetConfig` struct and defines a constant for representing native ETH.",
				"kind": "dev",
				"methods": {},
				"stateVariables": {
					"NATIVE_TOKEN": {
						"details": "Using address(0) avoids conflict with real ERC20 tokens."
					}
				},
				"title": "Types Library",
				"version": 1
			},
			"evm": {
				"assembly": "    /* \"src/Types.sol\":366:1040  library Types {... */\n  dataSize(sub_0)\n  dataOffset(sub_0)\n  0x0b\n  dup3\n  dup3\n  dup3\n  codecopy\n  dup1\n  mload\n  0x00\n  byte\n  0x73\n  eq\n  tag_1\n  jumpi\n  mstore(0x00, 0x4e487b7100000000000000000000000000000000000000000000000000000000)\n  mstore(0x04, 0x00)\n  revert(0x00, 0x24)\ntag_1:\n  mstore(0x00, address)\n  0x73\n  dup2\n  mstore8\n  dup3\n  dup2\n  return\nstop\n\nsub_0: assembly {\n        /* \"src/Types.sol\":366:1040  library Types {... */\n      eq(address, deployTimeAddress())\n      mstore(0x40, 0x80)\n      jumpi(tag_1, lt(calldatasize, 0x04))\n      shr(0xe0, calldataload(0x00))\n      dup1\n      0x31f7d964\n      eq\n      tag_2\n      jumpi\n    tag_1:\n      revert(0x00, 0x00)\n        /* \"src/Types.sol\":547:596  address public constant NATIVE_TOKEN = address(0) */\n    tag_2:\n      tag_3\n      tag_4\n      jump\t// in\n    tag_3:\n      mload(0x40)\n      tag_5\n      swap2\n      swap1\n      tag_6\n      jump\t// in\n    tag_5:\n      mload(0x40)\n      dup1\n      swap2\n      sub\n      swap1\n      return\n    tag_4:\n        /* \"src/Types.sol\":594:595  0 */\n      0x00\n        /* \"src/Types.sol\":547:596  address public constant NATIVE_TOKEN = address(0) */\n      dup2\n      jump\t// out\n        /* \"#utility.yul\":7:133   */\n    tag_7:\n        /* \"#utility.yul\":44:51   */\n      0x00\n        /* \"#utility.yul\":84:126   */\n      0xffffffffffffffffffffffffffffffffffffffff\n        /* \"#utility.yul\":77:82   */\n      dup3\n        /* \"#utility.yul\":73:127   */\n      and\n        /* \"#utility.yul\":62:127   */\n      swap1\n      pop\n        /* \"#utility.yul\":7:133   */\n      swap2\n      swap1\n      pop\n      jump\t// out\n        /* \"#utility.yul\":139:235   */\n    tag_8:\n        /* \"#utility.yul\":176:183   */\n      0x00\n        /* \"#utility.yul\":205:229   */\n      tag_13\n        /* \"#utility.yul\":223:228   */\n      dup3\n        /* \"#utility.yul\":205:229   */\n      tag_7\n      jump\t// in\n    tag_13:\n        /* \"#utility.yul\":194:229   */\n      swap1\n      pop\n        /* \"#utility.yul\":139:235   */\n      swap2\n      swap1\n      pop\n      jump\t// out\n        /* \"#utility.yul\":241:367   */\n    tag_9:\n        /* \"#utility.yul\":336:360   */\n      tag_15\n        /* \"#utility.yul\":354:359   */\n      dup2\n        /* \"#utility.yul\":336:360   */\n      tag_8\n      jump\t// in\n    tag_15:\n        /* \"#utility.yul\":331:334   */\n      dup3\n        /* \"#utility.yul\":324:361   */\n      mstore\n        /* \"#utility.yul\":241:367   */\n      pop\n      pop\n      jump\t// out\n        /* \"#utility.yul\":373:611   */\n    tag_6:\n        /* \"#utility.yul\":474:478   */\n      0x00\n        /* \"#utility.yul\":512:514   */\n      0x20\n        /* \"#utility.yul\":501:510   */\n      dup3\n        /* \"#utility.yul\":497:515   */\n      add\n        /* \"#utility.yul\":489:515   */\n      swap1\n      pop\n        /* \"#utility.yul\":525:604   */\n      tag_17\n        /* \"#utility.yul\":601:602   */\n      0x00\n        /* \"#utility.yul\":590:599   */\n      dup4\n        /* \"#utility.yul\":586:603   */\n      add\n        /* \"#utility.yul\":577:583   */\n      dup5\n        /* \"#utility.yul\":525:604   */\n      tag_9\n      jump\t// in\n    tag_17:\n        /* \"#utility.yul\":373:611   */\n      swap3\n      swap2\n      pop\n      pop\n      jump\t// out\n\n    auxdata: 0xa264697066735822122002ee40016aea90432f7227fe869e1f0b4477afc9d8e27a2ba29f084876794e2864736f6c634300081e0033\n}\n",
				"bytecode": {
					"linkReferences": {},
					"object": "60dc61004c600b8282823980515f1a6073146040577f4e487b71000000000000000000000000000000000000000000000000000000005f525f60045260245ffd5b305f52607381538281f3fe73000000000000000000000000000000000000000030146080604052600436106032575f3560e01c806331f7d964146036575b5f5ffd5b603c6050565b60405160479190608f565b60405180910390f35b5f81565b5f73ffffffffffffffffffffffffffffffffffffffff82169050919050565b5f607b826054565b9050919050565b6089816073565b82525050565b5f60208201905060a05f8301846082565b9291505056fea264697066735822122002ee40016aea90432f7227fe869e1f0b4477afc9d8e27a2ba29f084876794e2864736f6c634300081e0033",
					"opcodes": "PUSH1 0xDC PUSH2 0x4C PUSH1 0xB DUP3 DUP3 DUP3 CODECOPY DUP1 MLOAD PUSH0 BYTE PUSH1 0x73 EQ PUSH1 0x40 JUMPI PUSH32 0x4E487B7100000000000000000000000000000000000000000000000000000000 PUSH0 MSTORE PUSH0 PUSH1 0x4 MSTORE PUSH1 0x24 PUSH0 REVERT JUMPDEST ADDRESS PUSH0 MSTORE PUSH1 0x73 DUP2 MSTORE8 DUP3 DUP2 RETURN INVALID PUSH20 0x0 ADDRESS EQ PUSH1 0x80 PUSH1 0x40 MSTORE PUSH1 0x4 CALLDATASIZE LT PUSH1 0x32 JUMPI PUSH0 CALLDATALOAD PUSH1 0xE0 SHR DUP1 PUSH4 0x31F7D964 EQ PUSH1 0x36 JUMPI JUMPDEST PUSH0 PUSH0 REVERT JUMPDEST PUSH1 0x3C PUSH1 0x50 JUMP JUMPDEST PUSH1 0x40 MLOAD PUSH1 0x47 SWAP2 SWAP1 PUSH1 0x8F JUMP JUMPDEST PUSH1 0x40 MLOAD DUP1 SWAP2 SUB SWAP1 RETURN JUMPDEST PUSH0 DUP2 JUMP JUMPDEST PUSH0 PUSH20 0xFFFFFFFFFFFFFFFFFFFFFFFFFFFFFFFFFFFFFFFF DUP3 AND SWAP1 POP SWAP2 SWAP1 POP JUMP JUMPDEST PUSH0 PUSH1 0x7B DUP3 PUSH1 0x54 JUMP JUMPDEST SWAP1 POP SWAP2 SWAP1 POP JUMP JUMPDEST PUSH1 0x89 DUP2 PUSH1 0x73 JUMP JUMPDEST DUP3 MSTORE POP POP JUMP JUMPDEST PUSH0 PUSH1 0x20 DUP3 ADD SWAP1 POP PUSH1 0xA0 PUSH0 DUP4 ADD DUP5 PUSH1 0x82 JUMP JUMPDEST SWAP3 SWAP2 POP POP JUMP INVALID LOG2 PUSH5 0x6970667358 0x22 SLT KECCAK256 MUL RETURNCONTRACT 0x40 ADD PUSH11 0xEA90432F7227FE869E1F0B PREVRANDAO PUSH24 0xAFC9D8E27A2BA29F084876794E2864736F6C634300081E00 CALLER "
				},
				"gasEstimates": {
					"creation": {
						"codeDepositCost": "44000",
						"executionCost": "119",
						"totalCost": "44119"
					},
					"external": {
						"NATIVE_TOKEN()": "334"
					}
				},
				"methodIdentifiers": {
					"NATIVE_TOKEN()": "31f7d964"
				}
			},
			"storageLayout": {
				"storage": [],
				"types": null
			},
			"userdoc": {
				"kind": "user",
				"methods": {
					"NATIVE_TOKEN()": {
						"notice": "Special address used to represent native ETH as a \"token\" within mappings."
					}
				},
				"notice": "Contains shared data structures and constants used by KipuBank contracts.",
				"version": 1
			}
		}
	}
}