{
	"data": {
		"bytecode": {
			"linkReferences": {},
			"object": "60e060405234801561000f575f5ffd5b5060405161548d38038061548d83398181016040528101906100319190610702565b84608081815250508360a081815250508273ffffffffffffffffffffffffffffffffffffffff1660c08173ffffffffffffffffffffffffffffffffffffffff16815250506100875f5f1b3361051260201b60201c565b506100b87fa49807205ce4d355092ef5a8a18f56e8913cf4a201fbe287825b095693c217753361051260201b60201c565b5060405180604001604052808473ffffffffffffffffffffffffffffffffffffffff1681526020016001151581525060015f5f73ffffffffffffffffffffffffffffffffffffffff1673ffffffffffffffffffffffffffffffffffffffff1681526020019081526020015f205f820151815f015f6101000a81548173ffffffffffffffffffffffffffffffffffffffff021916908373ffffffffffffffffffffffffffffffffffffffff1602179055506020820151815f0160146101000a81548160ff02191690831515021790555090505060405180604001604052805f73ffffffffffffffffffffffffffffffffffffffff1681526020016001151581525060015f8373ffffffffffffffffffffffffffffffffffffffff1673ffffffffffffffffffffffffffffffffffffffff1681526020019081526020015f205f820151815f015f6101000a81548173ffffffffffffffffffffffffffffffffffffffff021916908373ffffffffffffffffffffffffffffffffffffffff1602179055506020820151815f0160146101000a81548160ff02191690831515021790555090505081600560016101000a81548173ffffffffffffffffffffffffffffffffffffffff021916908373ffffffffffffffffffffffffffffffffffffffff1602179055508173ffffffffffffffffffffffffffffffffffffffff1663ad5c46486040518163ffffffff1660e01b8152600401602060405180830381865afa1580156102e5573d5f5f3e3d5ffd5b505050506040513d601f19601f820116820180604052508101906103099190610779565b60065f6101000a81548173ffffffffffffffffffffffffffffffffffffffff021916908373ffffffffffffffffffffffffffffffffffffffff1602179055508060075f6101000a81548173ffffffffffffffffffffffffffffffffffffffff021916908373ffffffffffffffffffffffffffffffffffffffff1602179055508273ffffffffffffffffffffffffffffffffffffffff165f73ffffffffffffffffffffffffffffffffffffffff167f93c63ede467bb2aab36216973fe7ae0908f66f1f5de14fe7f1b754f58798060b60016040516103e691906107be565b60405180910390a35f73ffffffffffffffffffffffffffffffffffffffff168173ffffffffffffffffffffffffffffffffffffffff167f93c63ede467bb2aab36216973fe7ae0908f66f1f5de14fe7f1b754f58798060b600160405161044c91906107be565b60405180910390a38173ffffffffffffffffffffffffffffffffffffffff165f73ffffffffffffffffffffffffffffffffffffffff167f02dc5c233404867c793b749c6d644beb2277536d18a7e7974d3f238e4c6f168460405160405180910390a38073ffffffffffffffffffffffffffffffffffffffff165f73ffffffffffffffffffffffffffffffffffffffff167f88f3565164466b732797d579f72c7f3243455d0421f6f71c4d1f191677b2c86360405160405180910390a350505050506107d7565b5f610523838361060760201b60201c565b6105fd5760015f5f8581526020019081526020015f205f015f8473ffffffffffffffffffffffffffffffffffffffff1673ffffffffffffffffffffffffffffffffffffffff1681526020019081526020015f205f6101000a81548160ff02191690831515021790555061059a61066a60201b60201c565b73ffffffffffffffffffffffffffffffffffffffff168273ffffffffffffffffffffffffffffffffffffffff16847f2f8788117e7eff1d82e926ec794901d17c78024a50270940304540a733656f0d60405160405180910390a460019050610601565b5f90505b92915050565b5f5f5f8481526020019081526020015f205f015f8373ffffffffffffffffffffffffffffffffffffffff1673ffffffffffffffffffffffffffffffffffffffff1681526020019081526020015f205f9054906101000a900460ff16905092915050565b5f33905090565b5f5ffd5b5f819050919050565b61068781610675565b8114610691575f5ffd5b50565b5f815190506106a28161067e565b92915050565b5f73ffffffffffffffffffffffffffffffffffffffff82169050919050565b5f6106d1826106a8565b9050919050565b6106e1816106c7565b81146106eb575f5ffd5b50565b5f815190506106fc816106d8565b92915050565b5f5f5f5f5f60a0868803121561071b5761071a610671565b5b5f61072888828901610694565b955050602061073988828901610694565b945050604061074a888289016106ee565b935050606061075b888289016106ee565b925050608061076c888289016106ee565b9150509295509295909350565b5f6020828403121561078e5761078d610671565b5b5f61079b848285016106ee565b91505092915050565b5f8115159050919050565b6107b8816107a4565b82525050565b5f6020820190506107d15f8301846107af565b92915050565b60805160a05160c051614c3f61084e5f395f81816111b7015281816133a6015261343a01525f818161145e01528181612b1f0152612b4801525f818161143a015281816119ab015281816119e401528181612093015281816120cc01528181612503015281816130e701526139da0152614c3f5ff3fe6080604052600436106101f1575f3560e01c806384276d811161010c578063b965ad511161009f578063d4095c9b1161006e578063d4095c9b1461074e578063d547741f1461078a578063d6343867146107b2578063db6b5246146107dc578063f688bcfb146107e657610228565b8063b965ad51146106a6578063bea9849e146106ce578063c22fba6f146106f6578063d37ebc911461071257610228565b8063ac4543ba116100db578063ac4543ba146105ee578063b383c99c14610618578063b3e089a214610642578063b6eca8871461066a57610228565b806384276d811461053857806391d14854146105605780639e281a981461059c578063a217fddf146105c457610228565b806336568abe11610184578063503e704211610153578063503e704214610490578063735de9f7146104ba57806375b238fc146104e45780638009b7bd1461050e57610228565b806336568abe146103d85780633e413bee146104005780633fc8cef31461042a5780634724f7be1461045457610228565b8063248a9ca3116101c0578063248a9ca3146103245780632602b0fe146103605780632f2ff15d14610388578063338b5dea146103b057610228565b806301ffc9a71461025a5780630e1982b414610296578063218c1b4c146102c057806322eae3c2146102e857610228565b36610228576040517faa7feadc00000000000000000000000000000000000000000000000000000000815260040160405180910390fd5b6040517faa7feadc00000000000000000000000000000000000000000000000000000000815260040160405180910390fd5b348015610265575f5ffd5b50610280600480360381019061027b9190613e58565b61080e565b60405161028d9190613e9d565b60405180910390f35b3480156102a1575f5ffd5b506102aa610887565b6040516102b79190613ece565b60405180910390f35b3480156102cb575f5ffd5b506102e660048036038101906102e19190613f6b565b61088d565b005b3480156102f3575f5ffd5b5061030e60048036038101906103099190613fe5565b6109f2565b60405161031b9190613ece565b60405180910390f35b34801561032f575f5ffd5b5061034a60048036038101906103459190614043565b610a54565b604051610357919061407d565b60405180910390f35b34801561036b575f5ffd5b5061038660048036038101906103819190614096565b610a70565b005b348015610393575f5ffd5b506103ae60048036038101906103a991906140d4565b610fd6565b005b3480156103bb575f5ffd5b506103d660048036038101906103d19190614112565b610ff8565b005b3480156103e3575f5ffd5b506103fe60048036038101906103f991906140d4565b611071565b005b34801561040b575f5ffd5b506104146110ec565b604051610421919061415f565b60405180910390f35b348015610435575f5ffd5b5061043e611111565b60405161044b919061415f565b60405180910390f35b34801561045f575f5ffd5b5061047a60048036038101906104759190614112565b611136565b6040516104879190613ece565b60405180910390f35b34801561049b575f5ffd5b506104a4611149565b6040516104b191906141a2565b60405180910390f35b3480156104c5575f5ffd5b506104ce61116b565b6040516104db9190614216565b60405180910390f35b3480156104ef575f5ffd5b506104f8611191565b604051610505919061407d565b60405180910390f35b348015610519575f5ffd5b506105226111b5565b60405161052f919061424f565b60405180910390f35b348015610543575f5ffd5b5061055e60048036038101906105599190613fe5565b6111d9565b005b34801561056b575f5ffd5b50610586600480360381019061058191906140d4565b6112d8565b6040516105939190613e9d565b60405180910390f35b3480156105a7575f5ffd5b506105c260048036038101906105bd9190614112565b61133b565b005b3480156105cf575f5ffd5b506105d8611432565b6040516105e5919061407d565b60405180910390f35b3480156105f9575f5ffd5b50610602611438565b60405161060f9190613ece565b60405180910390f35b348015610623575f5ffd5b5061062c61145c565b6040516106399190613ece565b60405180910390f35b34801561064d575f5ffd5b5061066860048036038101906106639190614268565b611480565b005b348015610675575f5ffd5b50610690600480360381019061068b9190614293565b611690565b60405161069d9190613ece565b60405180910390f35b3480156106b1575f5ffd5b506106cc60048036038101906106c791906142d1565b611712565b005b3480156106d9575f5ffd5b506106f460048036038101906106ef9190614268565b611da1565b005b610710600480360381019061070b9190613fe5565b611fa2565b005b34801561071d575f5ffd5b5061073860048036038101906107339190613fe5565b6123c0565b6040516107459190613ece565b60405180910390f35b348015610759575f5ffd5b50610774600480360381019061076f9190614112565b6123d1565b6040516107819190613ece565b60405180910390f35b348015610795575f5ffd5b506107b060048036038101906107ab91906140d4565b612413565b005b3480156107bd575f5ffd5b506107c6612435565b6040516107d391906141a2565b60405180910390f35b6107e4612456565b005b3480156107f1575f5ffd5b5061080c60048036038101906108079190613fe5565b6124ca565b005b5f7f7965db0b000000000000000000000000000000000000000000000000000000007bffffffffffffffffffffffffffffffffffffffffffffffffffffffff1916827bffffffffffffffffffffffffffffffffffffffffffffffffffffffff19161480610880575061087f82612776565b5b9050919050565b60045481565b7fa49807205ce4d355092ef5a8a18f56e8913cf4a201fbe287825b095693c217756108b7816127df565b60405180604001604052808473ffffffffffffffffffffffffffffffffffffffff16815260200183151581525060015f8673ffffffffffffffffffffffffffffffffffffffff1673ffffffffffffffffffffffffffffffffffffffff1681526020019081526020015f205f820151815f015f6101000a81548173ffffffffffffffffffffffffffffffffffffffff021916908373ffffffffffffffffffffffffffffffffffffffff1602179055506020820151815f0160146101000a81548160ff0219169083151502179055509050508273ffffffffffffffffffffffffffffffffffffffff168473ffffffffffffffffffffffffffffffffffffffff167f93c63ede467bb2aab36216973fe7ae0908f66f1f5de14fe7f1b754f58798060b846040516109e49190613e9d565b60405180910390a350505050565b5f5f610a4060065f9054906101000a900473ffffffffffffffffffffffffffffffffffffffff1660075f9054906101000a900473ffffffffffffffffffffffffffffffffffffffff166127f3565b9050610a4c83826128e4565b915050919050565b5f5f5f8381526020019081526020015f20600101549050919050565b610a786129b8565b5f610a8281612a1a565b82610a8c81612b1d565b5f8403610ac5576040517faa7feadc00000000000000000000000000000000000000000000000000000000815260040160405180910390fd5b5f610b1260075f9054906101000a900473ffffffffffffffffffffffffffffffffffffffff1660065f9054906101000a900473ffffffffffffffffffffffffffffffffffffffff166127f3565b90505f610b1f8683612ba7565b90505f811480610b2e57508481115b15610b65576040517f850c6f7600000000000000000000000000000000000000000000000000000000815260040160405180910390fd5b5f60025f60075f9054906101000a900473ffffffffffffffffffffffffffffffffffffffff1673ffffffffffffffffffffffffffffffffffffffff1673ffffffffffffffffffffffffffffffffffffffff1681526020019081526020015f205f3373ffffffffffffffffffffffffffffffffffffffff1673ffffffffffffffffffffffffffffffffffffffff1681526020019081526020015f2054905081811015610c495780826040517fcf479181000000000000000000000000000000000000000000000000000000008152600401610c40929190614321565b60405180910390fd5b8181610c559190614375565b60025f60075f9054906101000a900473ffffffffffffffffffffffffffffffffffffffff1673ffffffffffffffffffffffffffffffffffffffff1673ffffffffffffffffffffffffffffffffffffffff1681526020019081526020015f205f3373ffffffffffffffffffffffffffffffffffffffff1673ffffffffffffffffffffffffffffffffffffffff1681526020019081526020015f20819055508160045f828254610d039190614375565b925050819055506003601081819054906101000a90046fffffffffffffffffffffffffffffffff1680929190610d38906143a8565b91906101000a8154816fffffffffffffffffffffffffffffffff02191690836fffffffffffffffffffffffffffffffff16021790555050610ddd600560019054906101000a900473ffffffffffffffffffffffffffffffffffffffff165f60075f9054906101000a900473ffffffffffffffffffffffffffffffffffffffff1673ffffffffffffffffffffffffffffffffffffffff16612c6e9092919063ffffffff16565b610e4b600560019054906101000a900473ffffffffffffffffffffffffffffffffffffffff168360075f9054906101000a900473ffffffffffffffffffffffffffffffffffffffff1673ffffffffffffffffffffffffffffffffffffffff16612c6e9092919063ffffffff16565b5f600560019054906101000a900473ffffffffffffffffffffffffffffffffffffffff1673ffffffffffffffffffffffffffffffffffffffff166318cbafe5848a873361038442610e9c91906143df565b6040518663ffffffff1660e01b8152600401610ebc9594939291906144c9565b5f604051808303815f875af1158015610ed7573d5f5f3e3d5ffd5b505050506040513d5f823e3d601f19601f82011682018060405250810190610eff9190614685565b90505f8160018351610f119190614375565b81518110610f2257610f216146cc565b5b6020026020010151905088811015610f735733896040517f1c43b976000000000000000000000000000000000000000000000000000000008152600401610f6a9291906146f9565b60405180910390fd5b3373ffffffffffffffffffffffffffffffffffffffff167f45ddb5d9824c91bd2aec14cd0dc5d7ac39e17b3c971251b50096c388a41edf648286604051610fbb929190614321565b60405180910390a250505050505050610fd2612d20565b5050565b610fdf82610a54565b610fe8816127df565b610ff28383612d3b565b50505050565b6110006129b8565b8161100a81612a1a565b5f8203611043576040517faa7feadc00000000000000000000000000000000000000000000000000000000815260040160405180910390fd5b5f61104e8484612e24565b90505f6004549050611062858584846130e3565b50505061106d612d20565b5050565b6110796132b2565b73ffffffffffffffffffffffffffffffffffffffff168173ffffffffffffffffffffffffffffffffffffffff16146110dd576040517f6697b23200000000000000000000000000000000000000000000000000000000815260040160405180910390fd5b6110e782826132b9565b505050565b60075f9054906101000a900473ffffffffffffffffffffffffffffffffffffffff1681565b60065f9054906101000a900473ffffffffffffffffffffffffffffffffffffffff1681565b5f6111418383612e24565b905092915050565b600360109054906101000a90046fffffffffffffffffffffffffffffffff1681565b600560019054906101000a900473ffffffffffffffffffffffffffffffffffffffff1681565b7fa49807205ce4d355092ef5a8a18f56e8913cf4a201fbe287825b095693c2177581565b7f000000000000000000000000000000000000000000000000000000000000000081565b6111e16129b8565b5f6111eb81612a1a565b816111f581612b1d565b5f830361122e576040517faa7feadc00000000000000000000000000000000000000000000000000000000815260040160405180910390fd5b5f611238846133a2565b90505f60025f5f73ffffffffffffffffffffffffffffffffffffffff1673ffffffffffffffffffffffffffffffffffffffff1681526020019081526020015f205f3373ffffffffffffffffffffffffffffffffffffffff1673ffffffffffffffffffffffffffffffffffffffff1681526020019081526020015f205490505f60045490506112c886848484613559565b50505050506112d5612d20565b50565b5f5f5f8481526020019081526020015f205f015f8373ffffffffffffffffffffffffffffffffffffffff1673ffffffffffffffffffffffffffffffffffffffff1681526020019081526020015f205f9054906101000a900460ff16905092915050565b6113436129b8565b8161134d81612a1a565b5f8203611386576040517faa7feadc00000000000000000000000000000000000000000000000000000000815260040160405180910390fd5b5f6113918484612e24565b90505f60025f8673ffffffffffffffffffffffffffffffffffffffff1673ffffffffffffffffffffffffffffffffffffffff1681526020019081526020015f205f3373ffffffffffffffffffffffffffffffffffffffff1673ffffffffffffffffffffffffffffffffffffffff1681526020019081526020015f205490505f600454905061142286868585856137a2565b5050505061142e612d20565b5050565b5f5f1b81565b7f000000000000000000000000000000000000000000000000000000000000000081565b7f000000000000000000000000000000000000000000000000000000000000000081565b7fa49807205ce4d355092ef5a8a18f56e8913cf4a201fbe287825b095693c217756114aa816127df565b5f73ffffffffffffffffffffffffffffffffffffffff168273ffffffffffffffffffffffffffffffffffffffff160361150f576040517faa7feadc00000000000000000000000000000000000000000000000000000000815260040160405180910390fd5b5f60075f9054906101000a900473ffffffffffffffffffffffffffffffffffffffff1690508260075f6101000a81548173ffffffffffffffffffffffffffffffffffffffff021916908373ffffffffffffffffffffffffffffffffffffffff1602179055506001805f8573ffffffffffffffffffffffffffffffffffffffff1673ffffffffffffffffffffffffffffffffffffffff1681526020019081526020015f205f0160146101000a81548160ff0219169083151502179055508273ffffffffffffffffffffffffffffffffffffffff168173ffffffffffffffffffffffffffffffffffffffff167f88f3565164466b732797d579f72c7f3243455d0421f6f71c4d1f191677b2c86360405160405180910390a35f73ffffffffffffffffffffffffffffffffffffffff168373ffffffffffffffffffffffffffffffffffffffff167f93c63ede467bb2aab36216973fe7ae0908f66f1f5de14fe7f1b754f58798060b60016040516116839190613e9d565b60405180910390a3505050565b5f60025f8473ffffffffffffffffffffffffffffffffffffffff1673ffffffffffffffffffffffffffffffffffffffff1681526020019081526020015f205f8373ffffffffffffffffffffffffffffffffffffffff1673ffffffffffffffffffffffffffffffffffffffff1681526020019081526020015f2054905092915050565b61171a6129b8565b8261172481612a1a565b5f73ffffffffffffffffffffffffffffffffffffffff168473ffffffffffffffffffffffffffffffffffffffff16148061175d57505f83145b15611794576040517faa7feadc00000000000000000000000000000000000000000000000000000000815260040160405180910390fd5b60075f9054906101000a900473ffffffffffffffffffffffffffffffffffffffff1673ffffffffffffffffffffffffffffffffffffffff168473ffffffffffffffffffffffffffffffffffffffff160361181a576040517faa7feadc00000000000000000000000000000000000000000000000000000000815260040160405180910390fd5b5f6118468560075f9054906101000a900473ffffffffffffffffffffffffffffffffffffffff166127f3565b90506002815114158061189f57508473ffffffffffffffffffffffffffffffffffffffff16815f8151811061187e5761187d6146cc565b5b602002602001015173ffffffffffffffffffffffffffffffffffffffff1614155b80611912575060075f9054906101000a900473ffffffffffffffffffffffffffffffffffffffff1673ffffffffffffffffffffffffffffffffffffffff16816001815181106118f1576118f06146cc565b5b602002602001015173ffffffffffffffffffffffffffffffffffffffff1614155b1561195457846040517fc286eefe00000000000000000000000000000000000000000000000000000000815260040161194b919061415f565b60405180910390fd5b5f61195f85836128e4565b90505f81148061196e57508084115b156119a5576040517f850c6f7600000000000000000000000000000000000000000000000000000000815260040160405180910390fd5b5f6004547f00000000000000000000000000000000000000000000000000000000000000006119d49190614375565b905080821115611a4157600454827f00000000000000000000000000000000000000000000000000000000000000006040517f621e5a69000000000000000000000000000000000000000000000000000000008152600401611a3893929190614720565b60405180910390fd5b611a6e3330888a73ffffffffffffffffffffffffffffffffffffffff16613981909392919063ffffffff16565b611abb600560019054906101000a900473ffffffffffffffffffffffffffffffffffffffff165f8973ffffffffffffffffffffffffffffffffffffffff16612c6e9092919063ffffffff16565b611b08600560019054906101000a900473ffffffffffffffffffffffffffffffffffffffff16878973ffffffffffffffffffffffffffffffffffffffff16612c6e9092919063ffffffff16565b5f600560019054906101000a900473ffffffffffffffffffffffffffffffffffffffff1673ffffffffffffffffffffffffffffffffffffffff166338ed17398888873061038442611b5991906143df565b6040518663ffffffff1660e01b8152600401611b799594939291906144c9565b5f604051808303815f875af1158015611b94573d5f5f3e3d5ffd5b505050506040513d5f823e3d601f19601f82011682018060405250810190611bbc9190614685565b90505f8160018351611bce9190614375565b81518110611bdf57611bde6146cc565b5b602002602001015190505f838211611bf75781611bf9565b835b90508060025f60075f9054906101000a900473ffffffffffffffffffffffffffffffffffffffff1673ffffffffffffffffffffffffffffffffffffffff1673ffffffffffffffffffffffffffffffffffffffff1681526020019081526020015f205f3373ffffffffffffffffffffffffffffffffffffffff1673ffffffffffffffffffffffffffffffffffffffff1681526020019081526020015f205f828254611ca391906143df565b925050819055508060045f828254611cbb91906143df565b9250508190555060035f81819054906101000a90046fffffffffffffffffffffffffffffffff1680929190611cef906143a8565b91906101000a8154816fffffffffffffffffffffffffffffffff02191690836fffffffffffffffffffffffffffffffff160217905550508973ffffffffffffffffffffffffffffffffffffffff163373ffffffffffffffffffffffffffffffffffffffff167f805821f5de33ba50f79a4718f041809b80957c94149e30b9036eead145f168c68b84604051611d85929190614321565b60405180910390a350505050505050611d9c612d20565b505050565b7fa49807205ce4d355092ef5a8a18f56e8913cf4a201fbe287825b095693c21775611dcb816127df565b5f73ffffffffffffffffffffffffffffffffffffffff168273ffffffffffffffffffffffffffffffffffffffff1603611e30576040517faa7feadc00000000000000000000000000000000000000000000000000000000815260040160405180910390fd5b5f600560019054906101000a900473ffffffffffffffffffffffffffffffffffffffff16905082600560016101000a81548173ffffffffffffffffffffffffffffffffffffffff021916908373ffffffffffffffffffffffffffffffffffffffff1602179055508273ffffffffffffffffffffffffffffffffffffffff1663ad5c46486040518163ffffffff1660e01b8152600401602060405180830381865afa158015611ee0573d5f5f3e3d5ffd5b505050506040513d601f19601f82011682018060405250810190611f049190614769565b60065f6101000a81548173ffffffffffffffffffffffffffffffffffffffff021916908373ffffffffffffffffffffffffffffffffffffffff1602179055508273ffffffffffffffffffffffffffffffffffffffff168173ffffffffffffffffffffffffffffffffffffffff167f02dc5c233404867c793b749c6d644beb2277536d18a7e7974d3f238e4c6f168460405160405180910390a3505050565b611faa6129b8565b5f611fb481612a1a565b5f3403611fed576040517faa7feadc00000000000000000000000000000000000000000000000000000000815260040160405180910390fd5b5f61203a60065f9054906101000a900473ffffffffffffffffffffffffffffffffffffffff1660075f9054906101000a900473ffffffffffffffffffffffffffffffffffffffff166127f3565b90505f61204734836128e4565b90505f81148061205657508084115b1561208d576040517f850c6f7600000000000000000000000000000000000000000000000000000000815260040160405180910390fd5b5f6004547f00000000000000000000000000000000000000000000000000000000000000006120bc9190614375565b90508082111561212957600454827f00000000000000000000000000000000000000000000000000000000000000006040517f621e5a6900000000000000000000000000000000000000000000000000000000815260040161212093929190614720565b60405180910390fd5b5f600560019054906101000a900473ffffffffffffffffffffffffffffffffffffffff1673ffffffffffffffffffffffffffffffffffffffff16637ff36ab5348887306103844261217a91906143df565b6040518663ffffffff1660e01b81526004016121999493929190614794565b5f6040518083038185885af11580156121b4573d5f5f3e3d5ffd5b50505050506040513d5f823e3d601f19601f820116820180604052508101906121dd9190614685565b90505f81600183516121ef9190614375565b81518110612200576121ff6146cc565b5b602002602001015190505f838211612218578161221a565b835b90508060025f60075f9054906101000a900473ffffffffffffffffffffffffffffffffffffffff1673ffffffffffffffffffffffffffffffffffffffff1673ffffffffffffffffffffffffffffffffffffffff1681526020019081526020015f205f3373ffffffffffffffffffffffffffffffffffffffff1673ffffffffffffffffffffffffffffffffffffffff1681526020019081526020015f205f8282546122c491906143df565b925050819055508060045f8282546122dc91906143df565b9250508190555060035f81819054906101000a90046fffffffffffffffffffffffffffffffff1680929190612310906143a8565b91906101000a8154816fffffffffffffffffffffffffffffffff02191690836fffffffffffffffffffffffffffffffff160217905550505f73ffffffffffffffffffffffffffffffffffffffff163373ffffffffffffffffffffffffffffffffffffffff167f805821f5de33ba50f79a4718f041809b80957c94149e30b9036eead145f168c634846040516123a6929190614321565b60405180910390a3505050505050506123bd612d20565b50565b5f6123ca826133a2565b9050919050565b5f5f6123fe8460075f9054906101000a900473ffffffffffffffffffffffffffffffffffffffff166127f3565b905061240a83826128e4565b91505092915050565b61241c82610a54565b612425816127df565b61242f83836132b9565b50505050565b60035f9054906101000a90046fffffffffffffffffffffffffffffffff1681565b61245e6129b8565b5f61246881612a1a565b5f34036124a1576040517faa7feadc00000000000000000000000000000000000000000000000000000000815260040160405180910390fd5b5f6124ab346133a2565b90505f60045490506124bd82826139d6565b5050506124c8612d20565b565b6124d26129b8565b60075f9054906101000a900473ffffffffffffffffffffffffffffffffffffffff166124fd81612a1a565b600454827f000000000000000000000000000000000000000000000000000000000000000061252d838383613b5f565b5f8503612566576040517faa7feadc00000000000000000000000000000000000000000000000000000000815260040160405180910390fd5b6125b433308760075f9054906101000a900473ffffffffffffffffffffffffffffffffffffffff1673ffffffffffffffffffffffffffffffffffffffff16613981909392919063ffffffff16565b8460025f60075f9054906101000a900473ffffffffffffffffffffffffffffffffffffffff1673ffffffffffffffffffffffffffffffffffffffff1673ffffffffffffffffffffffffffffffffffffffff1681526020019081526020015f205f3373ffffffffffffffffffffffffffffffffffffffff1673ffffffffffffffffffffffffffffffffffffffff1681526020019081526020015f205f82825461265c91906143df565b925050819055508460045f82825461267491906143df565b9250508190555060035f81819054906101000a90046fffffffffffffffffffffffffffffffff16809291906126a8906143a8565b91906101000a8154816fffffffffffffffffffffffffffffffff02191690836fffffffffffffffffffffffffffffffff1602179055505060075f9054906101000a900473ffffffffffffffffffffffffffffffffffffffff1673ffffffffffffffffffffffffffffffffffffffff163373ffffffffffffffffffffffffffffffffffffffff167f805821f5de33ba50f79a4718f041809b80957c94149e30b9036eead145f168c6878860405161275f929190614321565b60405180910390a350505050612773612d20565b50565b5f7f01ffc9a7000000000000000000000000000000000000000000000000000000007bffffffffffffffffffffffffffffffffffffffffffffffffffffffff1916827bffffffffffffffffffffffffffffffffffffffffffffffffffffffff1916149050919050565b6127f0816127eb6132b2565b613bbd565b50565b6060600267ffffffffffffffff8111156128105761280f614535565b5b60405190808252806020026020018201604052801561283e5781602001602082028036833780820191505090505b50905082815f81518110612855576128546146cc565b5b602002602001019073ffffffffffffffffffffffffffffffffffffffff16908173ffffffffffffffffffffffffffffffffffffffff168152505081816001815181106128a4576128a36146cc565b5b602002602001019073ffffffffffffffffffffffffffffffffffffffff16908173ffffffffffffffffffffffffffffffffffffffff168152505092915050565b5f5f600560019054906101000a900473ffffffffffffffffffffffffffffffffffffffff1673ffffffffffffffffffffffffffffffffffffffff1663d06ca61f85856040518363ffffffff1660e01b81526004016129439291906147de565b5f60405180830381865afa15801561295d573d5f5f3e3d5ffd5b505050506040513d5f823e3d601f19601f820116820180604052508101906129859190614685565b905080600182516129969190614375565b815181106129a7576129a66146cc565b5b602002602001015191505092915050565b60055f9054906101000a900460ff16156129fe576040517fab143c0600000000000000000000000000000000000000000000000000000000815260040160405180910390fd5b600160055f6101000a81548160ff021916908315150217905550565b5f60015f8373ffffffffffffffffffffffffffffffffffffffff1673ffffffffffffffffffffffffffffffffffffffff1681526020019081526020015f206040518060400160405290815f82015f9054906101000a900473ffffffffffffffffffffffffffffffffffffffff1673ffffffffffffffffffffffffffffffffffffffff1673ffffffffffffffffffffffffffffffffffffffff1681526020015f820160149054906101000a900460ff16151515158152505090508060200151612b1957816040517ffc9274ad000000000000000000000000000000000000000000000000000000008152600401612b10919061415f565b60405180910390fd5b5050565b7f0000000000000000000000000000000000000000000000000000000000000000811115612ba457807f00000000000000000000000000000000000000000000000000000000000000006040517f016d0ef1000000000000000000000000000000000000000000000000000000008152600401612b9b929190614321565b60405180910390fd5b50565b5f5f600560019054906101000a900473ffffffffffffffffffffffffffffffffffffffff1673ffffffffffffffffffffffffffffffffffffffff16631f00ca7485856040518363ffffffff1660e01b8152600401612c069291906147de565b5f60405180830381865afa158015612c20573d5f5f3e3d5ffd5b505050506040513d5f823e3d601f19601f82011682018060405250810190612c489190614685565b9050805f81518110612c5d57612c5c6146cc565b5b602002602001015191505092915050565b612c7a8383835f613c0e565b612d1b57612c8b83835f6001613c0e565b612ccc57826040517f5274afe7000000000000000000000000000000000000000000000000000000008152600401612cc3919061415f565b60405180910390fd5b612cd98383836001613c0e565b612d1a57826040517f5274afe7000000000000000000000000000000000000000000000000000000008152600401612d11919061415f565b60405180910390fd5b5b505050565b5f60055f6101000a81548160ff021916908315150217905550565b5f612d4683836112d8565b612e1a5760015f5f8581526020019081526020015f205f015f8473ffffffffffffffffffffffffffffffffffffffff1673ffffffffffffffffffffffffffffffffffffffff1681526020019081526020015f205f6101000a81548160ff021916908315150217905550612db76132b2565b73ffffffffffffffffffffffffffffffffffffffff168273ffffffffffffffffffffffffffffffffffffffff16847f2f8788117e7eff1d82e926ec794901d17c78024a50270940304540a733656f0d60405160405180910390a460019050612e1e565b5f90505b92915050565b5f5f60015f8573ffffffffffffffffffffffffffffffffffffffff1673ffffffffffffffffffffffffffffffffffffffff1681526020019081526020015f205f015f9054906101000a900473ffffffffffffffffffffffffffffffffffffffff1690505f73ffffffffffffffffffffffffffffffffffffffff168173ffffffffffffffffffffffffffffffffffffffff1603612ef757836040517f102af74a000000000000000000000000000000000000000000000000000000008152600401612eee919061415f565b60405180910390fd5b5f8173ffffffffffffffffffffffffffffffffffffffff1663feaf968c6040518163ffffffff1660e01b815260040160a060405180830381865afa158015612f41573d5f5f3e3d5ffd5b505050506040513d601f19601f82011682018060405250810190612f65919061487e565b5050509150505f8273ffffffffffffffffffffffffffffffffffffffff1663313ce5676040518163ffffffff1660e01b8152600401602060405180830381865afa158015612fb5573d5f5f3e3d5ffd5b505050506040513d601f19601f82011682018060405250810190612fd9919061492b565b90505f8673ffffffffffffffffffffffffffffffffffffffff1663313ce5676040518163ffffffff1660e01b8152600401602060405180830381865afa158015613025573d5f5f3e3d5ffd5b505050506040513d601f19601f82011682018060405250810190613049919061492b565b90505f600690505f61305b8884613c70565b90508160ff168460ff1611156130a65781846130779190614956565b600a6130839190614ab9565b858261308f9190614b03565b6130999190614b71565b96505050505050506130dd565b83826130b29190614956565b600a6130be9190614ab9565b85826130ca9190614b03565b6130d49190614b03565b96505050505050505b92915050565b80827f0000000000000000000000000000000000000000000000000000000000000000613111838383613b5f565b61313e3330888a73ffffffffffffffffffffffffffffffffffffffff16613981909392919063ffffffff16565b8460025f8973ffffffffffffffffffffffffffffffffffffffff1673ffffffffffffffffffffffffffffffffffffffff1681526020019081526020015f205f3373ffffffffffffffffffffffffffffffffffffffff1673ffffffffffffffffffffffffffffffffffffffff1681526020019081526020015f205f8282546131c591906143df565b9250508190555084846131d891906143df565b60048190555060035f81819054906101000a90046fffffffffffffffffffffffffffffffff168092919061320b906143a8565b91906101000a8154816fffffffffffffffffffffffffffffffff02191690836fffffffffffffffffffffffffffffffff160217905550508673ffffffffffffffffffffffffffffffffffffffff163373ffffffffffffffffffffffffffffffffffffffff167f2477efaa2078646ed96208b3a82a5f9060626d5e24dc26822c478f6ed833939088886040516132a1929190614321565b60405180910390a350505050505050565b5f33905090565b5f6132c483836112d8565b15613398575f5f5f8581526020019081526020015f205f015f8473ffffffffffffffffffffffffffffffffffffffff1673ffffffffffffffffffffffffffffffffffffffff1681526020019081526020015f205f6101000a81548160ff0219169083151502179055506133356132b2565b73ffffffffffffffffffffffffffffffffffffffff168273ffffffffffffffffffffffffffffffffffffffff16847ff6391f5c32d9c69d2a47ea670b442974b53935d1edc7fd64eb21e047a839171b60405160405180910390a46001905061339c565b5f90505b92915050565b5f5f7f000000000000000000000000000000000000000000000000000000000000000073ffffffffffffffffffffffffffffffffffffffff1663feaf968c6040518163ffffffff1660e01b815260040160a060405180830381865afa15801561340d573d5f5f3e3d5ffd5b505050506040513d601f19601f82011682018060405250810190613431919061487e565b5050509150505f7f000000000000000000000000000000000000000000000000000000000000000073ffffffffffffffffffffffffffffffffffffffff1663313ce5676040518163ffffffff1660e01b8152600401602060405180830381865afa1580156134a1573d5f5f3e3d5ffd5b505050506040513d601f19601f820116820180604052508101906134c5919061492b565b90505f600690505f670de0b6b3a764000084876134e29190614b03565b6134ec9190614b71565b90508160ff168360ff16111561352a5781836135089190614956565b600a6135149190614ab9565b8161351f9190614b71565b945050505050613554565b82826135369190614956565b600a6135429190614ab9565b8161354d9190614b03565b9450505050505b919050565b828210156135a05781836040517fcf479181000000000000000000000000000000000000000000000000000000008152600401613597929190614321565b60405180910390fd5b82826135ac9190614375565b60025f5f73ffffffffffffffffffffffffffffffffffffffff1673ffffffffffffffffffffffffffffffffffffffff1681526020019081526020015f205f3373ffffffffffffffffffffffffffffffffffffffff1673ffffffffffffffffffffffffffffffffffffffff1681526020019081526020015f208190555082816136349190614375565b6004819055506003601081819054906101000a90046fffffffffffffffffffffffffffffffff1680929190613668906143a8565b91906101000a8154816fffffffffffffffffffffffffffffffff02191690836fffffffffffffffffffffffffffffffff160217905550505f3373ffffffffffffffffffffffffffffffffffffffff16856040516136c490614bce565b5f6040518083038185875af1925050503d805f81146136fe576040519150601f19603f3d011682016040523d82523d5f602084013e613703565b606091505b505090508061374b5733856040517f1c43b9760000000000000000000000000000000000000000000000000000000081526004016137429291906146f9565b60405180910390fd5b3373ffffffffffffffffffffffffffffffffffffffff167f752e8de6c42be507958f1221bc18b53ffbae06d588fdf270baf984151f10ac898686604051613793929190614321565b60405180910390a25050505050565b828210156137e95781836040517fcf4791810000000000000000000000000000000000000000000000000000000081526004016137e0929190614321565b60405180910390fd5b82826137f59190614375565b60025f8773ffffffffffffffffffffffffffffffffffffffff1673ffffffffffffffffffffffffffffffffffffffff1681526020019081526020015f205f3373ffffffffffffffffffffffffffffffffffffffff1673ffffffffffffffffffffffffffffffffffffffff1681526020019081526020015f2081905550828161387d9190614375565b6004819055506003601081819054906101000a90046fffffffffffffffffffffffffffffffff16809291906138b1906143a8565b91906101000a8154816fffffffffffffffffffffffffffffffff02191690836fffffffffffffffffffffffffffffffff1602179055505061391333858773ffffffffffffffffffffffffffffffffffffffff16613ccc9092919063ffffffff16565b8473ffffffffffffffffffffffffffffffffffffffff163373ffffffffffffffffffffffffffffffffffffffff167f46e3914609f56e27776f6122593fc426fc2b2d4fc135aaa9eb14b15bf077a62a8686604051613972929190614321565b60405180910390a35050505050565b61398f848484846001613d1f565b6139d057836040517f5274afe70000000000000000000000000000000000000000000000000000000081526004016139c7919061415f565b60405180910390fd5b50505050565b80827f0000000000000000000000000000000000000000000000000000000000000000613a04838383613b5f565b8460025f5f73ffffffffffffffffffffffffffffffffffffffff1673ffffffffffffffffffffffffffffffffffffffff1681526020019081526020015f205f3373ffffffffffffffffffffffffffffffffffffffff1673ffffffffffffffffffffffffffffffffffffffff1681526020019081526020015f205f828254613a8b91906143df565b925050819055508484613a9e91906143df565b60048190555060035f81819054906101000a90046fffffffffffffffffffffffffffffffff1680929190613ad1906143a8565b91906101000a8154816fffffffffffffffffffffffffffffffff02191690836fffffffffffffffffffffffffffffffff160217905550503373ffffffffffffffffffffffffffffffffffffffff167f5d019a2a9281540cd9eee8188bd4cc82b755df607bc58c2fe35c8e34756f2a5b3487604051613b50929190614321565b60405180910390a25050505050565b5f8284613b6c91906143df565b905081811115613bb7578383836040517f621e5a69000000000000000000000000000000000000000000000000000000008152600401613bae93929190614720565b60405180910390fd5b50505050565b613bc782826112d8565b613c0a5780826040517fe2517d3f000000000000000000000000000000000000000000000000000000008152600401613c01929190614be2565b60405180910390fd5b5050565b5f5f63095ea7b360e01b9050604051815f525f1960601c86166004528460245260205f60445f5f8b5af1925060015f51148316613c62578383151615613c56573d5f823e3d81fd5b5f873b113d1516831692505b806040525050949350505050565b5f600660ff168260ff1603613c8757829050613cc6565b600660ff168260ff161115613cb7576006820360ff16600a0a8381613caf57613cae614b44565b5b049050613cc6565b8160060360ff16600a0a830290505b92915050565b613cd98383836001613d90565b613d1a57826040517f5274afe7000000000000000000000000000000000000000000000000000000008152600401613d11919061415f565b60405180910390fd5b505050565b5f5f6323b872dd60e01b9050604051815f525f1960601c87166004525f1960601c86166024528460445260205f60645f5f8c5af1925060015f51148316613d7d578383151615613d71573d5f823e3d81fd5b5f883b113d1516831692505b806040525f606052505095945050505050565b5f5f63a9059cbb60e01b9050604051815f525f1960601c86166004528460245260205f60445f5f8b5af1925060015f51148316613de4578383151615613dd8573d5f823e3d81fd5b5f873b113d1516831692505b806040525050949350505050565b5f604051905090565b5f5ffd5b5f5ffd5b5f7fffffffff0000000000000000000000000000000000000000000000000000000082169050919050565b613e3781613e03565b8114613e41575f5ffd5b50565b5f81359050613e5281613e2e565b92915050565b5f60208284031215613e6d57613e6c613dfb565b5b5f613e7a84828501613e44565b91505092915050565b5f8115159050919050565b613e9781613e83565b82525050565b5f602082019050613eb05f830184613e8e565b92915050565b5f819050919050565b613ec881613eb6565b82525050565b5f602082019050613ee15f830184613ebf565b92915050565b5f73ffffffffffffffffffffffffffffffffffffffff82169050919050565b5f613f1082613ee7565b9050919050565b613f2081613f06565b8114613f2a575f5ffd5b50565b5f81359050613f3b81613f17565b92915050565b613f4a81613e83565b8114613f54575f5ffd5b50565b5f81359050613f6581613f41565b92915050565b5f5f5f60608486031215613f8257613f81613dfb565b5b5f613f8f86828701613f2d565b9350506020613fa086828701613f2d565b9250506040613fb186828701613f57565b9150509250925092565b613fc481613eb6565b8114613fce575f5ffd5b50565b5f81359050613fdf81613fbb565b92915050565b5f60208284031215613ffa57613ff9613dfb565b5b5f61400784828501613fd1565b91505092915050565b5f819050919050565b61402281614010565b811461402c575f5ffd5b50565b5f8135905061403d81614019565b92915050565b5f6020828403121561405857614057613dfb565b5b5f6140658482850161402f565b91505092915050565b61407781614010565b82525050565b5f6020820190506140905f83018461406e565b92915050565b5f5f604083850312156140ac576140ab613dfb565b5b5f6140b985828601613fd1565b92505060206140ca85828601613fd1565b9150509250929050565b5f5f604083850312156140ea576140e9613dfb565b5b5f6140f78582860161402f565b925050602061410885828601613f2d565b9150509250929050565b5f5f6040838503121561412857614127613dfb565b5b5f61413585828601613f2d565b925050602061414685828601613fd1565b9150509250929050565b61415981613f06565b82525050565b5f6020820190506141725f830184614150565b92915050565b5f6fffffffffffffffffffffffffffffffff82169050919050565b61419c81614178565b82525050565b5f6020820190506141b55f830184614193565b92915050565b5f819050919050565b5f6141de6141d96141d484613ee7565b6141bb565b613ee7565b9050919050565b5f6141ef826141c4565b9050919050565b5f614200826141e5565b9050919050565b614210816141f6565b82525050565b5f6020820190506142295f830184614207565b92915050565b5f614239826141e5565b9050919050565b6142498161422f565b82525050565b5f6020820190506142625f830184614240565b92915050565b5f6020828403121561427d5761427c613dfb565b5b5f61428a84828501613f2d565b91505092915050565b5f5f604083850312156142a9576142a8613dfb565b5b5f6142b685828601613f2d565b92505060206142c785828601613f2d565b9150509250929050565b5f5f5f606084860312156142e8576142e7613dfb565b5b5f6142f586828701613f2d565b935050602061430686828701613fd1565b925050604061431786828701613fd1565b9150509250925092565b5f6040820190506143345f830185613ebf565b6143416020830184613ebf565b9392505050565b7f4e487b71000000000000000000000000000000000000000000000000000000005f52601160045260245ffd5b5f61437f82613eb6565b915061438a83613eb6565b92508282039050818111156143a2576143a1614348565b5b92915050565b5f6143b282614178565b91506fffffffffffffffffffffffffffffffff82036143d4576143d3614348565b5b600182019050919050565b5f6143e982613eb6565b91506143f483613eb6565b925082820190508082111561440c5761440b614348565b5b92915050565b5f81519050919050565b5f82825260208201905092915050565b5f819050602082019050919050565b61444481613f06565b82525050565b5f614455838361443b565b60208301905092915050565b5f602082019050919050565b5f61447782614412565b614481818561441c565b935061448c8361442c565b805f5b838110156144bc5781516144a3888261444a565b97506144ae83614461565b92505060018101905061448f565b5085935050505092915050565b5f60a0820190506144dc5f830188613ebf565b6144e96020830187613ebf565b81810360408301526144fb818661446d565b905061450a6060830185614150565b6145176080830184613ebf565b9695505050505050565b5f5ffd5b5f601f19601f8301169050919050565b7f4e487b71000000000000000000000000000000000000000000000000000000005f52604160045260245ffd5b61456b82614525565b810181811067ffffffffffffffff8211171561458a57614589614535565b5b80604052505050565b5f61459c613df2565b90506145a88282614562565b919050565b5f67ffffffffffffffff8211156145c7576145c6614535565b5b602082029050602081019050919050565b5f5ffd5b5f815190506145ea81613fbb565b92915050565b5f6146026145fd846145ad565b614593565b90508083825260208201905060208402830185811115614625576146246145d8565b5b835b8181101561464e578061463a88826145dc565b845260208401935050602081019050614627565b5050509392505050565b5f82601f83011261466c5761466b614521565b5b815161467c8482602086016145f0565b91505092915050565b5f6020828403121561469a57614699613dfb565b5b5f82015167ffffffffffffffff8111156146b7576146b6613dff565b5b6146c384828501614658565b91505092915050565b7f4e487b71000000000000000000000000000000000000000000000000000000005f52603260045260245ffd5b5f60408201905061470c5f830185614150565b6147196020830184613ebf565b9392505050565b5f6060820190506147335f830186613ebf565b6147406020830185613ebf565b61474d6040830184613ebf565b949350505050565b5f8151905061476381613f17565b92915050565b5f6020828403121561477e5761477d613dfb565b5b5f61478b84828501614755565b91505092915050565b5f6080820190506147a75f830187613ebf565b81810360208301526147b9818661446d565b90506147c86040830185614150565b6147d56060830184613ebf565b95945050505050565b5f6040820190506147f15f830185613ebf565b8181036020830152614803818461446d565b90509392505050565b5f69ffffffffffffffffffff82169050919050565b61482a8161480c565b8114614834575f5ffd5b50565b5f8151905061484581614821565b92915050565b5f819050919050565b61485d8161484b565b8114614867575f5ffd5b50565b5f8151905061487881614854565b92915050565b5f5f5f5f5f60a0868803121561489757614896613dfb565b5b5f6148a488828901614837565b95505060206148b58882890161486a565b94505060406148c6888289016145dc565b93505060606148d7888289016145dc565b92505060806148e888828901614837565b9150509295509295909350565b5f60ff82169050919050565b61490a816148f5565b8114614914575f5ffd5b50565b5f8151905061492581614901565b92915050565b5f602082840312156149405761493f613dfb565b5b5f61494d84828501614917565b91505092915050565b5f614960826148f5565b915061496b836148f5565b9250828203905060ff81111561498457614983614348565b5b92915050565b5f8160011c9050919050565b5f5f8291508390505b60018511156149df578086048111156149bb576149ba614348565b5b60018516156149ca5780820291505b80810290506149d88561498a565b945061499f565b94509492505050565b5f826149f75760019050614ab2565b81614a04575f9050614ab2565b8160018114614a1a5760028114614a2457614a53565b6001915050614ab2565b60ff841115614a3657614a35614348565b5b8360020a915084821115614a4d57614a4c614348565b5b50614ab2565b5060208310610133831016604e8410600b8410161715614a885782820a905083811115614a8357614a82614348565b5b614ab2565b614a958484846001614996565b92509050818404811115614aac57614aab614348565b5b81810290505b9392505050565b5f614ac382613eb6565b9150614ace836148f5565b9250614afb7fffffffffffffffffffffffffffffffffffffffffffffffffffffffffffffffff84846149e8565b905092915050565b5f614b0d82613eb6565b9150614b1883613eb6565b9250828202614b2681613eb6565b91508282048414831517614b3d57614b3c614348565b5b5092915050565b7f4e487b71000000000000000000000000000000000000000000000000000000005f52601260045260245ffd5b5f614b7b82613eb6565b9150614b8683613eb6565b925082614b9657614b95614b44565b5b828204905092915050565b5f81905092915050565b50565b5f614bb95f83614ba1565b9150614bc482614bab565b5f82019050919050565b5f614bd882614bae565b9150819050919050565b5f604082019050614bf55f830185614150565b614c02602083018461406e565b939250505056fea264697066735822122062f6c80882604e0b71f4a758acec7e5d73fd338ce946a331b80aec41686f0e8764736f6c634300081e0033",
			"opcodes": "PUSH1 0xE0 PUSH1 0x40 MSTORE CALLVALUE DUP1 ISZERO PUSH2 0xF JUMPI PUSH0 PUSH0 REVERT JUMPDEST POP PUSH1 0x40 MLOAD PUSH2 0x548D CODESIZE SUB DUP1 PUSH2 0x548D DUP4 CODECOPY DUP2 DUP2 ADD PUSH1 0x40 MSTORE DUP2 ADD SWAP1 PUSH2 0x31 SWAP2 SWAP1 PUSH2 0x702 JUMP JUMPDEST DUP5 PUSH1 0x80 DUP2 DUP2 MSTORE POP POP DUP4 PUSH1 0xA0 DUP2 DUP2 MSTORE POP POP DUP3 PUSH20 0xFFFFFFFFFFFFFFFFFFFFFFFFFFFFFFFFFFFFFFFF AND PUSH1 0xC0 DUP2 PUSH20 0xFFFFFFFFFFFFFFFFFFFFFFFFFFFFFFFFFFFFFFFF AND DUP2 MSTORE POP POP PUSH2 0x87 PUSH0 PUSH0 SHL CALLER PUSH2 0x512 PUSH1 0x20 SHL PUSH1 0x20 SHR JUMP JUMPDEST POP PUSH2 0xB8 PUSH32 0xA49807205CE4D355092EF5A8A18F56E8913CF4A201FBE287825B095693C21775 CALLER PUSH2 0x512 PUSH1 0x20 SHL PUSH1 0x20 SHR JUMP JUMPDEST POP PUSH1 0x40 MLOAD DUP1 PUSH1 0x40 ADD PUSH1 0x40 MSTORE DUP1 DUP5 PUSH20 0xFFFFFFFFFFFFFFFFFFFFFFFFFFFFFFFFFFFFFFFF AND DUP2 MSTORE PUSH1 0x20 ADD PUSH1 0x1 ISZERO ISZERO DUP2 MSTORE POP PUSH1 0x1 PUSH0 PUSH0 PUSH20 0xFFFFFFFFFFFFFFFFFFFFFFFFFFFFFFFFFFFFFFFF AND PUSH20 0xFFFFFFFFFFFFFFFFFFFFFFFFFFFFFFFFFFFFFFFF AND DUP2 MSTORE PUSH1 0x20 ADD SWAP1 DUP2 MSTORE PUSH1 0x20 ADD PUSH0 KECCAK256 PUSH0 DUP3 ADD MLOAD DUP2 PUSH0 ADD PUSH0 PUSH2 0x100 EXP DUP2 SLOAD DUP2 PUSH20 0xFFFFFFFFFFFFFFFFFFFFFFFFFFFFFFFFFFFFFFFF MUL NOT AND SWAP1 DUP4 PUSH20 0xFFFFFFFFFFFFFFFFFFFFFFFFFFFFFFFFFFFFFFFF AND MUL OR SWAP1 SSTORE POP PUSH1 0x20 DUP3 ADD MLOAD DUP2 PUSH0 ADD PUSH1 0x14 PUSH2 0x100 EXP DUP2 SLOAD DUP2 PUSH1 0xFF MUL NOT AND SWAP1 DUP4 ISZERO ISZERO MUL OR SWAP1 SSTORE POP SWAP1 POP POP PUSH1 0x40 MLOAD DUP1 PUSH1 0x40 ADD PUSH1 0x40 MSTORE DUP1 PUSH0 PUSH20 0xFFFFFFFFFFFFFFFFFFFFFFFFFFFFFFFFFFFFFFFF AND DUP2 MSTORE PUSH1 0x20 ADD PUSH1 0x1 ISZERO ISZERO DUP2 MSTORE POP PUSH1 0x1 PUSH0 DUP4 PUSH20 0xFFFFFFFFFFFFFFFFFFFFFFFFFFFFFFFFFFFFFFFF AND PUSH20 0xFFFFFFFFFFFFFFFFFFFFFFFFFFFFFFFFFFFFFFFF AND DUP2 MSTORE PUSH1 0x20 ADD SWAP1 DUP2 MSTORE PUSH1 0x20 ADD PUSH0 KECCAK256 PUSH0 DUP3 ADD MLOAD DUP2 PUSH0 ADD PUSH0 PUSH2 0x100 EXP DUP2 SLOAD DUP2 PUSH20 0xFFFFFFFFFFFFFFFFFFFFFFFFFFFFFFFFFFFFFFFF MUL NOT AND SWAP1 DUP4 PUSH20 0xFFFFFFFFFFFFFFFFFFFFFFFFFFFFFFFFFFFFFFFF AND MUL OR SWAP1 SSTORE POP PUSH1 0x20 DUP3 ADD MLOAD DUP2 PUSH0 ADD PUSH1 0x14 PUSH2 0x100 EXP DUP2 SLOAD DUP2 PUSH1 0xFF MUL NOT AND SWAP1 DUP4 ISZERO ISZERO MUL OR SWAP1 SSTORE POP SWAP1 POP POP DUP2 PUSH1 0x5 PUSH1 0x1 PUSH2 0x100 EXP DUP2 SLOAD DUP2 PUSH20 0xFFFFFFFFFFFFFFFFFFFFFFFFFFFFFFFFFFFFFFFF MUL NOT AND SWAP1 DUP4 PUSH20 0xFFFFFFFFFFFFFFFFFFFFFFFFFFFFFFFFFFFFFFFF AND MUL OR SWAP1 SSTORE POP DUP2 PUSH20 0xFFFFFFFFFFFFFFFFFFFFFFFFFFFFFFFFFFFFFFFF AND PUSH4 0xAD5C4648 PUSH1 0x40 MLOAD DUP2 PUSH4 0xFFFFFFFF AND PUSH1 0xE0 SHL DUP2 MSTORE PUSH1 0x4 ADD PUSH1 0x20 PUSH1 0x40 MLOAD DUP1 DUP4 SUB DUP2 DUP7 GAS STATICCALL ISZERO DUP1 ISZERO PUSH2 0x2E5 JUMPI RETURNDATASIZE PUSH0 PUSH0 RETURNDATACOPY RETURNDATASIZE PUSH0 REVERT JUMPDEST POP POP POP POP PUSH1 0x40 MLOAD RETURNDATASIZE PUSH1 0x1F NOT PUSH1 0x1F DUP3 ADD AND DUP3 ADD DUP1 PUSH1 0x40 MSTORE POP DUP2 ADD SWAP1 PUSH2 0x309 SWAP2 SWAP1 PUSH2 0x779 JUMP JUMPDEST PUSH1 0x6 PUSH0 PUSH2 0x100 EXP DUP2 SLOAD DUP2 PUSH20 0xFFFFFFFFFFFFFFFFFFFFFFFFFFFFFFFFFFFFFFFF MUL NOT AND SWAP1 DUP4 PUSH20 0xFFFFFFFFFFFFFFFFFFFFFFFFFFFFFFFFFFFFFFFF AND MUL OR SWAP1 SSTORE POP DUP1 PUSH1 0x7 PUSH0 PUSH2 0x100 EXP DUP2 SLOAD DUP2 PUSH20 0xFFFFFFFFFFFFFFFFFFFFFFFFFFFFFFFFFFFFFFFF MUL NOT AND SWAP1 DUP4 PUSH20 0xFFFFFFFFFFFFFFFFFFFFFFFFFFFFFFFFFFFFFFFF AND MUL OR SWAP1 SSTORE POP DUP3 PUSH20 0xFFFFFFFFFFFFFFFFFFFFFFFFFFFFFFFFFFFFFFFF AND PUSH0 PUSH20 0xFFFFFFFFFFFFFFFFFFFFFFFFFFFFFFFFFFFFFFFF AND PUSH32 0x93C63EDE467BB2AAB36216973FE7AE0908F66F1F5DE14FE7F1B754F58798060B PUSH1 0x1 PUSH1 0x40 MLOAD PUSH2 0x3E6 SWAP2 SWAP1 PUSH2 0x7BE JUMP JUMPDEST PUSH1 0x40 MLOAD DUP1 SWAP2 SUB SWAP1 LOG3 PUSH0 PUSH20 0xFFFFFFFFFFFFFFFFFFFFFFFFFFFFFFFFFFFFFFFF AND DUP2 PUSH20 0xFFFFFFFFFFFFFFFFFFFFFFFFFFFFFFFFFFFFFFFF AND PUSH32 0x93C63EDE467BB2AAB36216973FE7AE0908F66F1F5DE14FE7F1B754F58798060B PUSH1 0x1 PUSH1 0x40 MLOAD PUSH2 0x44C SWAP2 SWAP1 PUSH2 0x7BE JUMP JUMPDEST PUSH1 0x40 MLOAD DUP1 SWAP2 SUB SWAP1 LOG3 DUP2 PUSH20 0xFFFFFFFFFFFFFFFFFFFFFFFFFFFFFFFFFFFFFFFF AND PUSH0 PUSH20 0xFFFFFFFFFFFFFFFFFFFFFFFFFFFFFFFFFFFFFFFF AND PUSH32 0x2DC5C233404867C793B749C6D644BEB2277536D18A7E7974D3F238E4C6F1684 PUSH1 0x40 MLOAD PUSH1 0x40 MLOAD DUP1 SWAP2 SUB SWAP1 LOG3 DUP1 PUSH20 0xFFFFFFFFFFFFFFFFFFFFFFFFFFFFFFFFFFFFFFFF AND PUSH0 PUSH20 0xFFFFFFFFFFFFFFFFFFFFFFFFFFFFFFFFFFFFFFFF AND PUSH32 0x88F3565164466B732797D579F72C7F3243455D0421F6F71C4D1F191677B2C863 PUSH1 0x40 MLOAD PUSH1 0x40 MLOAD DUP1 SWAP2 SUB SWAP1 LOG3 POP POP POP POP POP PUSH2 0x7D7 JUMP JUMPDEST PUSH0 PUSH2 0x523 DUP4 DUP4 PUSH2 0x607 PUSH1 0x20 SHL PUSH1 0x20 SHR JUMP JUMPDEST PUSH2 0x5FD JUMPI PUSH1 0x1 PUSH0 PUSH0 DUP6 DUP2 MSTORE PUSH1 0x20 ADD SWAP1 DUP2 MSTORE PUSH1 0x20 ADD PUSH0 KECCAK256 PUSH0 ADD PUSH0 DUP5 PUSH20 0xFFFFFFFFFFFFFFFFFFFFFFFFFFFFFFFFFFFFFFFF AND PUSH20 0xFFFFFFFFFFFFFFFFFFFFFFFFFFFFFFFFFFFFFFFF AND DUP2 MSTORE PUSH1 0x20 ADD SWAP1 DUP2 MSTORE PUSH1 0x20 ADD PUSH0 KECCAK256 PUSH0 PUSH2 0x100 EXP DUP2 SLOAD DUP2 PUSH1 0xFF MUL NOT AND SWAP1 DUP4 ISZERO ISZERO MUL OR SWAP1 SSTORE POP PUSH2 0x59A PUSH2 0x66A PUSH1 0x20 SHL PUSH1 0x20 SHR JUMP JUMPDEST PUSH20 0xFFFFFFFFFFFFFFFFFFFFFFFFFFFFFFFFFFFFFFFF AND DUP3 PUSH20 0xFFFFFFFFFFFFFFFFFFFFFFFFFFFFFFFFFFFFFFFF AND DUP5 PUSH32 0x2F8788117E7EFF1D82E926EC794901D17C78024A50270940304540A733656F0D PUSH1 0x40 MLOAD PUSH1 0x40 MLOAD DUP1 SWAP2 SUB SWAP1 LOG4 PUSH1 0x1 SWAP1 POP PUSH2 0x601 JUMP JUMPDEST PUSH0 SWAP1 POP JUMPDEST SWAP3 SWAP2 POP POP JUMP JUMPDEST PUSH0 PUSH0 PUSH0 DUP5 DUP2 MSTORE PUSH1 0x20 ADD SWAP1 DUP2 MSTORE PUSH1 0x20 ADD PUSH0 KECCAK256 PUSH0 ADD PUSH0 DUP4 PUSH20 0xFFFFFFFFFFFFFFFFFFFFFFFFFFFFFFFFFFFFFFFF AND PUSH20 0xFFFFFFFFFFFFFFFFFFFFFFFFFFFFFFFFFFFFFFFF AND DUP2 MSTORE PUSH1 0x20 ADD SWAP1 DUP2 MSTORE PUSH1 0x20 ADD PUSH0 KECCAK256 PUSH0 SWAP1 SLOAD SWAP1 PUSH2 0x100 EXP SWAP1 DIV PUSH1 0xFF AND SWAP1 POP SWAP3 SWAP2 POP POP JUMP JUMPDEST PUSH0 CALLER SWAP1 POP SWAP1 JUMP JUMPDEST PUSH0 PUSH0 REVERT JUMPDEST PUSH0 DUP2 SWAP1 POP SWAP2 SWAP1 POP JUMP JUMPDEST PUSH2 0x687 DUP2 PUSH2 0x675 JUMP JUMPDEST DUP2 EQ PUSH2 0x691 JUMPI PUSH0 PUSH0 REVERT JUMPDEST POP JUMP JUMPDEST PUSH0 DUP2 MLOAD SWAP1 POP PUSH2 0x6A2 DUP2 PUSH2 0x67E JUMP JUMPDEST SWAP3 SWAP2 POP POP JUMP JUMPDEST PUSH0 PUSH20 0xFFFFFFFFFFFFFFFFFFFFFFFFFFFFFFFFFFFFFFFF DUP3 AND SWAP1 POP SWAP2 SWAP1 POP JUMP JUMPDEST PUSH0 PUSH2 0x6D1 DUP3 PUSH2 0x6A8 JUMP JUMPDEST SWAP1 POP SWAP2 SWAP1 POP JUMP JUMPDEST PUSH2 0x6E1 DUP2 PUSH2 0x6C7 JUMP JUMPDEST DUP2 EQ PUSH2 0x6EB JUMPI PUSH0 PUSH0 REVERT JUMPDEST POP JUMP JUMPDEST PUSH0 DUP2 MLOAD SWAP1 POP PUSH2 0x6FC DUP2 PUSH2 0x6D8 JUMP JUMPDEST SWAP3 SWAP2 POP POP JUMP JUMPDEST PUSH0 PUSH0 PUSH0 PUSH0 PUSH0 PUSH1 0xA0 DUP7 DUP9 SUB SLT ISZERO PUSH2 0x71B JUMPI PUSH2 0x71A PUSH2 0x671 JUMP JUMPDEST JUMPDEST PUSH0 PUSH2 0x728 DUP9 DUP3 DUP10 ADD PUSH2 0x694 JUMP JUMPDEST SWAP6 POP POP PUSH1 0x20 PUSH2 0x739 DUP9 DUP3 DUP10 ADD PUSH2 0x694 JUMP JUMPDEST SWAP5 POP POP PUSH1 0x40 PUSH2 0x74A DUP9 DUP3 DUP10 ADD PUSH2 0x6EE JUMP JUMPDEST SWAP4 POP POP PUSH1 0x60 PUSH2 0x75B DUP9 DUP3 DUP10 ADD PUSH2 0x6EE JUMP JUMPDEST SWAP3 POP POP PUSH1 0x80 PUSH2 0x76C DUP9 DUP3 DUP10 ADD PUSH2 0x6EE JUMP JUMPDEST SWAP2 POP POP SWAP3 SWAP6 POP SWAP3 SWAP6 SWAP1 SWAP4 POP JUMP JUMPDEST PUSH0 PUSH1 0x20 DUP3 DUP5 SUB SLT ISZERO PUSH2 0x78E JUMPI PUSH2 0x78D PUSH2 0x671 JUMP JUMPDEST JUMPDEST PUSH0 PUSH2 0x79B DUP5 DUP3 DUP6 ADD PUSH2 0x6EE JUMP JUMPDEST SWAP2 POP POP SWAP3 SWAP2 POP POP JUMP JUMPDEST PUSH0 DUP2 ISZERO ISZERO SWAP1 POP SWAP2 SWAP1 POP JUMP JUMPDEST PUSH2 0x7B8 DUP2 PUSH2 0x7A4 JUMP JUMPDEST DUP3 MSTORE POP POP JUMP JUMPDEST PUSH0 PUSH1 0x20 DUP3 ADD SWAP1 POP PUSH2 0x7D1 PUSH0 DUP4 ADD DUP5 PUSH2 0x7AF JUMP JUMPDEST SWAP3 SWAP2 POP POP JUMP JUMPDEST PUSH1 0x80 MLOAD PUSH1 0xA0 MLOAD PUSH1 0xC0 MLOAD PUSH2 0x4C3F PUSH2 0x84E PUSH0 CODECOPY PUSH0 DUP2 DUP2 PUSH2 0x11B7 ADD MSTORE DUP2 DUP2 PUSH2 0x33A6 ADD MSTORE PUSH2 0x343A ADD MSTORE PUSH0 DUP2 DUP2 PUSH2 0x145E ADD MSTORE DUP2 DUP2 PUSH2 0x2B1F ADD MSTORE PUSH2 0x2B48 ADD MSTORE PUSH0 DUP2 DUP2 PUSH2 0x143A ADD MSTORE DUP2 DUP2 PUSH2 0x19AB ADD MSTORE DUP2 DUP2 PUSH2 0x19E4 ADD MSTORE DUP2 DUP2 PUSH2 0x2093 ADD MSTORE DUP2 DUP2 PUSH2 0x20CC ADD MSTORE DUP2 DUP2 PUSH2 0x2503 ADD MSTORE DUP2 DUP2 PUSH2 0x30E7 ADD MSTORE PUSH2 0x39DA ADD MSTORE PUSH2 0x4C3F PUSH0 RETURN INVALID PUSH1 0x80 PUSH1 0x40 MSTORE PUSH1 0x4 CALLDATASIZE LT PUSH2 0x1F1 JUMPI PUSH0 CALLDATALOAD PUSH1 0xE0 SHR DUP1 PUSH4 0x84276D81 GT PUSH2 0x10C JUMPI DUP1 PUSH4 0xB965AD51 GT PUSH2 0x9F JUMPI DUP1 PUSH4 0xD4095C9B GT PUSH2 0x6E JUMPI DUP1 PUSH4 0xD4095C9B EQ PUSH2 0x74E JUMPI DUP1 PUSH4 0xD547741F EQ PUSH2 0x78A JUMPI DUP1 PUSH4 0xD6343867 EQ PUSH2 0x7B2 JUMPI DUP1 PUSH4 0xDB6B5246 EQ PUSH2 0x7DC JUMPI DUP1 PUSH4 0xF688BCFB EQ PUSH2 0x7E6 JUMPI PUSH2 0x228 JUMP JUMPDEST DUP1 PUSH4 0xB965AD51 EQ PUSH2 0x6A6 JUMPI DUP1 PUSH4 0xBEA9849E EQ PUSH2 0x6CE JUMPI DUP1 PUSH4 0xC22FBA6F EQ PUSH2 0x6F6 JUMPI DUP1 PUSH4 0xD37EBC91 EQ PUSH2 0x712 JUMPI PUSH2 0x228 JUMP JUMPDEST DUP1 PUSH4 0xAC4543BA GT PUSH2 0xDB JUMPI DUP1 PUSH4 0xAC4543BA EQ PUSH2 0x5EE JUMPI DUP1 PUSH4 0xB383C99C EQ PUSH2 0x618 JUMPI DUP1 PUSH4 0xB3E089A2 EQ PUSH2 0x642 JUMPI DUP1 PUSH4 0xB6ECA887 EQ PUSH2 0x66A JUMPI PUSH2 0x228 JUMP JUMPDEST DUP1 PUSH4 0x84276D81 EQ PUSH2 0x538 JUMPI DUP1 PUSH4 0x91D14854 EQ PUSH2 0x560 JUMPI DUP1 PUSH4 0x9E281A98 EQ PUSH2 0x59C JUMPI DUP1 PUSH4 0xA217FDDF EQ PUSH2 0x5C4 JUMPI PUSH2 0x228 JUMP JUMPDEST DUP1 PUSH4 0x36568ABE GT PUSH2 0x184 JUMPI DUP1 PUSH4 0x503E7042 GT PUSH2 0x153 JUMPI DUP1 PUSH4 0x503E7042 EQ PUSH2 0x490 JUMPI DUP1 PUSH4 0x735DE9F7 EQ PUSH2 0x4BA JUMPI DUP1 PUSH4 0x75B238FC EQ PUSH2 0x4E4 JUMPI DUP1 PUSH4 0x8009B7BD EQ PUSH2 0x50E JUMPI PUSH2 0x228 JUMP JUMPDEST DUP1 PUSH4 0x36568ABE EQ PUSH2 0x3D8 JUMPI DUP1 PUSH4 0x3E413BEE EQ PUSH2 0x400 JUMPI DUP1 PUSH4 0x3FC8CEF3 EQ PUSH2 0x42A JUMPI DUP1 PUSH4 0x4724F7BE EQ PUSH2 0x454 JUMPI PUSH2 0x228 JUMP JUMPDEST DUP1 PUSH4 0x248A9CA3 GT PUSH2 0x1C0 JUMPI DUP1 PUSH4 0x248A9CA3 EQ PUSH2 0x324 JUMPI DUP1 PUSH4 0x2602B0FE EQ PUSH2 0x360 JUMPI DUP1 PUSH4 0x2F2FF15D EQ PUSH2 0x388 JUMPI DUP1 PUSH4 0x338B5DEA EQ PUSH2 0x3B0 JUMPI PUSH2 0x228 JUMP JUMPDEST DUP1 PUSH4 0x1FFC9A7 EQ PUSH2 0x25A JUMPI DUP1 PUSH4 0xE1982B4 EQ PUSH2 0x296 JUMPI DUP1 PUSH4 0x218C1B4C EQ PUSH2 0x2C0 JUMPI DUP1 PUSH4 0x22EAE3C2 EQ PUSH2 0x2E8 JUMPI PUSH2 0x228 JUMP JUMPDEST CALLDATASIZE PUSH2 0x228 JUMPI PUSH1 0x40 MLOAD PUSH32 0xAA7FEADC00000000000000000000000000000000000000000000000000000000 DUP2 MSTORE PUSH1 0x4 ADD PUSH1 0x40 MLOAD DUP1 SWAP2 SUB SWAP1 REVERT JUMPDEST PUSH1 0x40 MLOAD PUSH32 0xAA7FEADC00000000000000000000000000000000000000000000000000000000 DUP2 MSTORE PUSH1 0x4 ADD PUSH1 0x40 MLOAD DUP1 SWAP2 SUB SWAP1 REVERT JUMPDEST CALLVALUE DUP1 ISZERO PUSH2 0x265 JUMPI PUSH0 PUSH0 REVERT JUMPDEST POP PUSH2 0x280 PUSH1 0x4 DUP1 CALLDATASIZE SUB DUP2 ADD SWAP1 PUSH2 0x27B SWAP2 SWAP1 PUSH2 0x3E58 JUMP JUMPDEST PUSH2 0x80E JUMP JUMPDEST PUSH1 0x40 MLOAD PUSH2 0x28D SWAP2 SWAP1 PUSH2 0x3E9D JUMP JUMPDEST PUSH1 0x40 MLOAD DUP1 SWAP2 SUB SWAP1 RETURN JUMPDEST CALLVALUE DUP1 ISZERO PUSH2 0x2A1 JUMPI PUSH0 PUSH0 REVERT JUMPDEST POP PUSH2 0x2AA PUSH2 0x887 JUMP JUMPDEST PUSH1 0x40 MLOAD PUSH2 0x2B7 SWAP2 SWAP1 PUSH2 0x3ECE JUMP JUMPDEST PUSH1 0x40 MLOAD DUP1 SWAP2 SUB SWAP1 RETURN JUMPDEST CALLVALUE DUP1 ISZERO PUSH2 0x2CB JUMPI PUSH0 PUSH0 REVERT JUMPDEST POP PUSH2 0x2E6 PUSH1 0x4 DUP1 CALLDATASIZE SUB DUP2 ADD SWAP1 PUSH2 0x2E1 SWAP2 SWAP1 PUSH2 0x3F6B JUMP JUMPDEST PUSH2 0x88D JUMP JUMPDEST STOP JUMPDEST CALLVALUE DUP1 ISZERO PUSH2 0x2F3 JUMPI PUSH0 PUSH0 REVERT JUMPDEST POP PUSH2 0x30E PUSH1 0x4 DUP1 CALLDATASIZE SUB DUP2 ADD SWAP1 PUSH2 0x309 SWAP2 SWAP1 PUSH2 0x3FE5 JUMP JUMPDEST PUSH2 0x9F2 JUMP JUMPDEST PUSH1 0x40 MLOAD PUSH2 0x31B SWAP2 SWAP1 PUSH2 0x3ECE JUMP JUMPDEST PUSH1 0x40 MLOAD DUP1 SWAP2 SUB SWAP1 RETURN JUMPDEST CALLVALUE DUP1 ISZERO PUSH2 0x32F JUMPI PUSH0 PUSH0 REVERT JUMPDEST POP PUSH2 0x34A PUSH1 0x4 DUP1 CALLDATASIZE SUB DUP2 ADD SWAP1 PUSH2 0x345 SWAP2 SWAP1 PUSH2 0x4043 JUMP JUMPDEST PUSH2 0xA54 JUMP JUMPDEST PUSH1 0x40 MLOAD PUSH2 0x357 SWAP2 SWAP1 PUSH2 0x407D JUMP JUMPDEST PUSH1 0x40 MLOAD DUP1 SWAP2 SUB SWAP1 RETURN JUMPDEST CALLVALUE DUP1 ISZERO PUSH2 0x36B JUMPI PUSH0 PUSH0 REVERT JUMPDEST POP PUSH2 0x386 PUSH1 0x4 DUP1 CALLDATASIZE SUB DUP2 ADD SWAP1 PUSH2 0x381 SWAP2 SWAP1 PUSH2 0x4096 JUMP JUMPDEST PUSH2 0xA70 JUMP JUMPDEST STOP JUMPDEST CALLVALUE DUP1 ISZERO PUSH2 0x393 JUMPI PUSH0 PUSH0 REVERT JUMPDEST POP PUSH2 0x3AE PUSH1 0x4 DUP1 CALLDATASIZE SUB DUP2 ADD SWAP1 PUSH2 0x3A9 SWAP2 SWAP1 PUSH2 0x40D4 JUMP JUMPDEST PUSH2 0xFD6 JUMP JUMPDEST STOP JUMPDEST CALLVALUE DUP1 ISZERO PUSH2 0x3BB JUMPI PUSH0 PUSH0 REVERT JUMPDEST POP PUSH2 0x3D6 PUSH1 0x4 DUP1 CALLDATASIZE SUB DUP2 ADD SWAP1 PUSH2 0x3D1 SWAP2 SWAP1 PUSH2 0x4112 JUMP JUMPDEST PUSH2 0xFF8 JUMP JUMPDEST STOP JUMPDEST CALLVALUE DUP1 ISZERO PUSH2 0x3E3 JUMPI PUSH0 PUSH0 REVERT JUMPDEST POP PUSH2 0x3FE PUSH1 0x4 DUP1 CALLDATASIZE SUB DUP2 ADD SWAP1 PUSH2 0x3F9 SWAP2 SWAP1 PUSH2 0x40D4 JUMP JUMPDEST PUSH2 0x1071 JUMP JUMPDEST STOP JUMPDEST CALLVALUE DUP1 ISZERO PUSH2 0x40B JUMPI PUSH0 PUSH0 REVERT JUMPDEST POP PUSH2 0x414 PUSH2 0x10EC JUMP JUMPDEST PUSH1 0x40 MLOAD PUSH2 0x421 SWAP2 SWAP1 PUSH2 0x415F JUMP JUMPDEST PUSH1 0x40 MLOAD DUP1 SWAP2 SUB SWAP1 RETURN JUMPDEST CALLVALUE DUP1 ISZERO PUSH2 0x435 JUMPI PUSH0 PUSH0 REVERT JUMPDEST POP PUSH2 0x43E PUSH2 0x1111 JUMP JUMPDEST PUSH1 0x40 MLOAD PUSH2 0x44B SWAP2 SWAP1 PUSH2 0x415F JUMP JUMPDEST PUSH1 0x40 MLOAD DUP1 SWAP2 SUB SWAP1 RETURN JUMPDEST CALLVALUE DUP1 ISZERO PUSH2 0x45F JUMPI PUSH0 PUSH0 REVERT JUMPDEST POP PUSH2 0x47A PUSH1 0x4 DUP1 CALLDATASIZE SUB DUP2 ADD SWAP1 PUSH2 0x475 SWAP2 SWAP1 PUSH2 0x4112 JUMP JUMPDEST PUSH2 0x1136 JUMP JUMPDEST PUSH1 0x40 MLOAD PUSH2 0x487 SWAP2 SWAP1 PUSH2 0x3ECE JUMP JUMPDEST PUSH1 0x40 MLOAD DUP1 SWAP2 SUB SWAP1 RETURN JUMPDEST CALLVALUE DUP1 ISZERO PUSH2 0x49B JUMPI PUSH0 PUSH0 REVERT JUMPDEST POP PUSH2 0x4A4 PUSH2 0x1149 JUMP JUMPDEST PUSH1 0x40 MLOAD PUSH2 0x4B1 SWAP2 SWAP1 PUSH2 0x41A2 JUMP JUMPDEST PUSH1 0x40 MLOAD DUP1 SWAP2 SUB SWAP1 RETURN JUMPDEST CALLVALUE DUP1 ISZERO PUSH2 0x4C5 JUMPI PUSH0 PUSH0 REVERT JUMPDEST POP PUSH2 0x4CE PUSH2 0x116B JUMP JUMPDEST PUSH1 0x40 MLOAD PUSH2 0x4DB SWAP2 SWAP1 PUSH2 0x4216 JUMP JUMPDEST PUSH1 0x40 MLOAD DUP1 SWAP2 SUB SWAP1 RETURN JUMPDEST CALLVALUE DUP1 ISZERO PUSH2 0x4EF JUMPI PUSH0 PUSH0 REVERT JUMPDEST POP PUSH2 0x4F8 PUSH2 0x1191 JUMP JUMPDEST PUSH1 0x40 MLOAD PUSH2 0x505 SWAP2 SWAP1 PUSH2 0x407D JUMP JUMPDEST PUSH1 0x40 MLOAD DUP1 SWAP2 SUB SWAP1 RETURN JUMPDEST CALLVALUE DUP1 ISZERO PUSH2 0x519 JUMPI PUSH0 PUSH0 REVERT JUMPDEST POP PUSH2 0x522 PUSH2 0x11B5 JUMP JUMPDEST PUSH1 0x40 MLOAD PUSH2 0x52F SWAP2 SWAP1 PUSH2 0x424F JUMP JUMPDEST PUSH1 0x40 MLOAD DUP1 SWAP2 SUB SWAP1 RETURN JUMPDEST CALLVALUE DUP1 ISZERO PUSH2 0x543 JUMPI PUSH0 PUSH0 REVERT JUMPDEST POP PUSH2 0x55E PUSH1 0x4 DUP1 CALLDATASIZE SUB DUP2 ADD SWAP1 PUSH2 0x559 SWAP2 SWAP1 PUSH2 0x3FE5 JUMP JUMPDEST PUSH2 0x11D9 JUMP JUMPDEST STOP JUMPDEST CALLVALUE DUP1 ISZERO PUSH2 0x56B JUMPI PUSH0 PUSH0 REVERT JUMPDEST POP PUSH2 0x586 PUSH1 0x4 DUP1 CALLDATASIZE SUB DUP2 ADD SWAP1 PUSH2 0x581 SWAP2 SWAP1 PUSH2 0x40D4 JUMP JUMPDEST PUSH2 0x12D8 JUMP JUMPDEST PUSH1 0x40 MLOAD PUSH2 0x593 SWAP2 SWAP1 PUSH2 0x3E9D JUMP JUMPDEST PUSH1 0x40 MLOAD DUP1 SWAP2 SUB SWAP1 RETURN JUMPDEST CALLVALUE DUP1 ISZERO PUSH2 0x5A7 JUMPI PUSH0 PUSH0 REVERT JUMPDEST POP PUSH2 0x5C2 PUSH1 0x4 DUP1 CALLDATASIZE SUB DUP2 ADD SWAP1 PUSH2 0x5BD SWAP2 SWAP1 PUSH2 0x4112 JUMP JUMPDEST PUSH2 0x133B JUMP JUMPDEST STOP JUMPDEST CALLVALUE DUP1 ISZERO PUSH2 0x5CF JUMPI PUSH0 PUSH0 REVERT JUMPDEST POP PUSH2 0x5D8 PUSH2 0x1432 JUMP JUMPDEST PUSH1 0x40 MLOAD PUSH2 0x5E5 SWAP2 SWAP1 PUSH2 0x407D JUMP JUMPDEST PUSH1 0x40 MLOAD DUP1 SWAP2 SUB SWAP1 RETURN JUMPDEST CALLVALUE DUP1 ISZERO PUSH2 0x5F9 JUMPI PUSH0 PUSH0 REVERT JUMPDEST POP PUSH2 0x602 PUSH2 0x1438 JUMP JUMPDEST PUSH1 0x40 MLOAD PUSH2 0x60F SWAP2 SWAP1 PUSH2 0x3ECE JUMP JUMPDEST PUSH1 0x40 MLOAD DUP1 SWAP2 SUB SWAP1 RETURN JUMPDEST CALLVALUE DUP1 ISZERO PUSH2 0x623 JUMPI PUSH0 PUSH0 REVERT JUMPDEST POP PUSH2 0x62C PUSH2 0x145C JUMP JUMPDEST PUSH1 0x40 MLOAD PUSH2 0x639 SWAP2 SWAP1 PUSH2 0x3ECE JUMP JUMPDEST PUSH1 0x40 MLOAD DUP1 SWAP2 SUB SWAP1 RETURN JUMPDEST CALLVALUE DUP1 ISZERO PUSH2 0x64D JUMPI PUSH0 PUSH0 REVERT JUMPDEST POP PUSH2 0x668 PUSH1 0x4 DUP1 CALLDATASIZE SUB DUP2 ADD SWAP1 PUSH2 0x663 SWAP2 SWAP1 PUSH2 0x4268 JUMP JUMPDEST PUSH2 0x1480 JUMP JUMPDEST STOP JUMPDEST CALLVALUE DUP1 ISZERO PUSH2 0x675 JUMPI PUSH0 PUSH0 REVERT JUMPDEST POP PUSH2 0x690 PUSH1 0x4 DUP1 CALLDATASIZE SUB DUP2 ADD SWAP1 PUSH2 0x68B SWAP2 SWAP1 PUSH2 0x4293 JUMP JUMPDEST PUSH2 0x1690 JUMP JUMPDEST PUSH1 0x40 MLOAD PUSH2 0x69D SWAP2 SWAP1 PUSH2 0x3ECE JUMP JUMPDEST PUSH1 0x40 MLOAD DUP1 SWAP2 SUB SWAP1 RETURN JUMPDEST CALLVALUE DUP1 ISZERO PUSH2 0x6B1 JUMPI PUSH0 PUSH0 REVERT JUMPDEST POP PUSH2 0x6CC PUSH1 0x4 DUP1 CALLDATASIZE SUB DUP2 ADD SWAP1 PUSH2 0x6C7 SWAP2 SWAP1 PUSH2 0x42D1 JUMP JUMPDEST PUSH2 0x1712 JUMP JUMPDEST STOP JUMPDEST CALLVALUE DUP1 ISZERO PUSH2 0x6D9 JUMPI PUSH0 PUSH0 REVERT JUMPDEST POP PUSH2 0x6F4 PUSH1 0x4 DUP1 CALLDATASIZE SUB DUP2 ADD SWAP1 PUSH2 0x6EF SWAP2 SWAP1 PUSH2 0x4268 JUMP JUMPDEST PUSH2 0x1DA1 JUMP JUMPDEST STOP JUMPDEST PUSH2 0x710 PUSH1 0x4 DUP1 CALLDATASIZE SUB DUP2 ADD SWAP1 PUSH2 0x70B SWAP2 SWAP1 PUSH2 0x3FE5 JUMP JUMPDEST PUSH2 0x1FA2 JUMP JUMPDEST STOP JUMPDEST CALLVALUE DUP1 ISZERO PUSH2 0x71D JUMPI PUSH0 PUSH0 REVERT JUMPDEST POP PUSH2 0x738 PUSH1 0x4 DUP1 CALLDATASIZE SUB DUP2 ADD SWAP1 PUSH2 0x733 SWAP2 SWAP1 PUSH2 0x3FE5 JUMP JUMPDEST PUSH2 0x23C0 JUMP JUMPDEST PUSH1 0x40 MLOAD PUSH2 0x745 SWAP2 SWAP1 PUSH2 0x3ECE JUMP JUMPDEST PUSH1 0x40 MLOAD DUP1 SWAP2 SUB SWAP1 RETURN JUMPDEST CALLVALUE DUP1 ISZERO PUSH2 0x759 JUMPI PUSH0 PUSH0 REVERT JUMPDEST POP PUSH2 0x774 PUSH1 0x4 DUP1 CALLDATASIZE SUB DUP2 ADD SWAP1 PUSH2 0x76F SWAP2 SWAP1 PUSH2 0x4112 JUMP JUMPDEST PUSH2 0x23D1 JUMP JUMPDEST PUSH1 0x40 MLOAD PUSH2 0x781 SWAP2 SWAP1 PUSH2 0x3ECE JUMP JUMPDEST PUSH1 0x40 MLOAD DUP1 SWAP2 SUB SWAP1 RETURN JUMPDEST CALLVALUE DUP1 ISZERO PUSH2 0x795 JUMPI PUSH0 PUSH0 REVERT JUMPDEST POP PUSH2 0x7B0 PUSH1 0x4 DUP1 CALLDATASIZE SUB DUP2 ADD SWAP1 PUSH2 0x7AB SWAP2 SWAP1 PUSH2 0x40D4 JUMP JUMPDEST PUSH2 0x2413 JUMP JUMPDEST STOP JUMPDEST CALLVALUE DUP1 ISZERO PUSH2 0x7BD JUMPI PUSH0 PUSH0 REVERT JUMPDEST POP PUSH2 0x7C6 PUSH2 0x2435 JUMP JUMPDEST PUSH1 0x40 MLOAD PUSH2 0x7D3 SWAP2 SWAP1 PUSH2 0x41A2 JUMP JUMPDEST PUSH1 0x40 MLOAD DUP1 SWAP2 SUB SWAP1 RETURN JUMPDEST PUSH2 0x7E4 PUSH2 0x2456 JUMP JUMPDEST STOP JUMPDEST CALLVALUE DUP1 ISZERO PUSH2 0x7F1 JUMPI PUSH0 PUSH0 REVERT JUMPDEST POP PUSH2 0x80C PUSH1 0x4 DUP1 CALLDATASIZE SUB DUP2 ADD SWAP1 PUSH2 0x807 SWAP2 SWAP1 PUSH2 0x3FE5 JUMP JUMPDEST PUSH2 0x24CA JUMP JUMPDEST STOP JUMPDEST PUSH0 PUSH32 0x7965DB0B00000000000000000000000000000000000000000000000000000000 PUSH28 0xFFFFFFFFFFFFFFFFFFFFFFFFFFFFFFFFFFFFFFFFFFFFFFFFFFFFFFFF NOT AND DUP3 PUSH28 0xFFFFFFFFFFFFFFFFFFFFFFFFFFFFFFFFFFFFFFFFFFFFFFFFFFFFFFFF NOT AND EQ DUP1 PUSH2 0x880 JUMPI POP PUSH2 0x87F DUP3 PUSH2 0x2776 JUMP JUMPDEST JUMPDEST SWAP1 POP SWAP2 SWAP1 POP JUMP JUMPDEST PUSH1 0x4 SLOAD DUP2 JUMP JUMPDEST PUSH32 0xA49807205CE4D355092EF5A8A18F56E8913CF4A201FBE287825B095693C21775 PUSH2 0x8B7 DUP2 PUSH2 0x27DF JUMP JUMPDEST PUSH1 0x40 MLOAD DUP1 PUSH1 0x40 ADD PUSH1 0x40 MSTORE DUP1 DUP5 PUSH20 0xFFFFFFFFFFFFFFFFFFFFFFFFFFFFFFFFFFFFFFFF AND DUP2 MSTORE PUSH1 0x20 ADD DUP4 ISZERO ISZERO DUP2 MSTORE POP PUSH1 0x1 PUSH0 DUP7 PUSH20 0xFFFFFFFFFFFFFFFFFFFFFFFFFFFFFFFFFFFFFFFF AND PUSH20 0xFFFFFFFFFFFFFFFFFFFFFFFFFFFFFFFFFFFFFFFF AND DUP2 MSTORE PUSH1 0x20 ADD SWAP1 DUP2 MSTORE PUSH1 0x20 ADD PUSH0 KECCAK256 PUSH0 DUP3 ADD MLOAD DUP2 PUSH0 ADD PUSH0 PUSH2 0x100 EXP DUP2 SLOAD DUP2 PUSH20 0xFFFFFFFFFFFFFFFFFFFFFFFFFFFFFFFFFFFFFFFF MUL NOT AND SWAP1 DUP4 PUSH20 0xFFFFFFFFFFFFFFFFFFFFFFFFFFFFFFFFFFFFFFFF AND MUL OR SWAP1 SSTORE POP PUSH1 0x20 DUP3 ADD MLOAD DUP2 PUSH0 ADD PUSH1 0x14 PUSH2 0x100 EXP DUP2 SLOAD DUP2 PUSH1 0xFF MUL NOT AND SWAP1 DUP4 ISZERO ISZERO MUL OR SWAP1 SSTORE POP SWAP1 POP POP DUP3 PUSH20 0xFFFFFFFFFFFFFFFFFFFFFFFFFFFFFFFFFFFFFFFF AND DUP5 PUSH20 0xFFFFFFFFFFFFFFFFFFFFFFFFFFFFFFFFFFFFFFFF AND PUSH32 0x93C63EDE467BB2AAB36216973FE7AE0908F66F1F5DE14FE7F1B754F58798060B DUP5 PUSH1 0x40 MLOAD PUSH2 0x9E4 SWAP2 SWAP1 PUSH2 0x3E9D JUMP JUMPDEST PUSH1 0x40 MLOAD DUP1 SWAP2 SUB SWAP1 LOG3 POP POP POP POP JUMP JUMPDEST PUSH0 PUSH0 PUSH2 0xA40 PUSH1 0x6 PUSH0 SWAP1 SLOAD SWAP1 PUSH2 0x100 EXP SWAP1 DIV PUSH20 0xFFFFFFFFFFFFFFFFFFFFFFFFFFFFFFFFFFFFFFFF AND PUSH1 0x7 PUSH0 SWAP1 SLOAD SWAP1 PUSH2 0x100 EXP SWAP1 DIV PUSH20 0xFFFFFFFFFFFFFFFFFFFFFFFFFFFFFFFFFFFFFFFF AND PUSH2 0x27F3 JUMP JUMPDEST SWAP1 POP PUSH2 0xA4C DUP4 DUP3 PUSH2 0x28E4 JUMP JUMPDEST SWAP2 POP POP SWAP2 SWAP1 POP JUMP JUMPDEST PUSH0 PUSH0 PUSH0 DUP4 DUP2 MSTORE PUSH1 0x20 ADD SWAP1 DUP2 MSTORE PUSH1 0x20 ADD PUSH0 KECCAK256 PUSH1 0x1 ADD SLOAD SWAP1 POP SWAP2 SWAP1 POP JUMP JUMPDEST PUSH2 0xA78 PUSH2 0x29B8 JUMP JUMPDEST PUSH0 PUSH2 0xA82 DUP2 PUSH2 0x2A1A JUMP JUMPDEST DUP3 PUSH2 0xA8C DUP2 PUSH2 0x2B1D JUMP JUMPDEST PUSH0 DUP5 SUB PUSH2 0xAC5 JUMPI PUSH1 0x40 MLOAD PUSH32 0xAA7FEADC00000000000000000000000000000000000000000000000000000000 DUP2 MSTORE PUSH1 0x4 ADD PUSH1 0x40 MLOAD DUP1 SWAP2 SUB SWAP1 REVERT JUMPDEST PUSH0 PUSH2 0xB12 PUSH1 0x7 PUSH0 SWAP1 SLOAD SWAP1 PUSH2 0x100 EXP SWAP1 DIV PUSH20 0xFFFFFFFFFFFFFFFFFFFFFFFFFFFFFFFFFFFFFFFF AND PUSH1 0x6 PUSH0 SWAP1 SLOAD SWAP1 PUSH2 0x100 EXP SWAP1 DIV PUSH20 0xFFFFFFFFFFFFFFFFFFFFFFFFFFFFFFFFFFFFFFFF AND PUSH2 0x27F3 JUMP JUMPDEST SWAP1 POP PUSH0 PUSH2 0xB1F DUP7 DUP4 PUSH2 0x2BA7 JUMP JUMPDEST SWAP1 POP PUSH0 DUP2 EQ DUP1 PUSH2 0xB2E JUMPI POP DUP5 DUP2 GT JUMPDEST ISZERO PUSH2 0xB65 JUMPI PUSH1 0x40 MLOAD PUSH32 0x850C6F7600000000000000000000000000000000000000000000000000000000 DUP2 MSTORE PUSH1 0x4 ADD PUSH1 0x40 MLOAD DUP1 SWAP2 SUB SWAP1 REVERT JUMPDEST PUSH0 PUSH1 0x2 PUSH0 PUSH1 0x7 PUSH0 SWAP1 SLOAD SWAP1 PUSH2 0x100 EXP SWAP1 DIV PUSH20 0xFFFFFFFFFFFFFFFFFFFFFFFFFFFFFFFFFFFFFFFF AND PUSH20 0xFFFFFFFFFFFFFFFFFFFFFFFFFFFFFFFFFFFFFFFF AND PUSH20 0xFFFFFFFFFFFFFFFFFFFFFFFFFFFFFFFFFFFFFFFF AND DUP2 MSTORE PUSH1 0x20 ADD SWAP1 DUP2 MSTORE PUSH1 0x20 ADD PUSH0 KECCAK256 PUSH0 CALLER PUSH20 0xFFFFFFFFFFFFFFFFFFFFFFFFFFFFFFFFFFFFFFFF AND PUSH20 0xFFFFFFFFFFFFFFFFFFFFFFFFFFFFFFFFFFFFFFFF AND DUP2 MSTORE PUSH1 0x20 ADD SWAP1 DUP2 MSTORE PUSH1 0x20 ADD PUSH0 KECCAK256 SLOAD SWAP1 POP DUP2 DUP2 LT ISZERO PUSH2 0xC49 JUMPI DUP1 DUP3 PUSH1 0x40 MLOAD PUSH32 0xCF47918100000000000000000000000000000000000000000000000000000000 DUP2 MSTORE PUSH1 0x4 ADD PUSH2 0xC40 SWAP3 SWAP2 SWAP1 PUSH2 0x4321 JUMP JUMPDEST PUSH1 0x40 MLOAD DUP1 SWAP2 SUB SWAP1 REVERT JUMPDEST DUP2 DUP2 PUSH2 0xC55 SWAP2 SWAP1 PUSH2 0x4375 JUMP JUMPDEST PUSH1 0x2 PUSH0 PUSH1 0x7 PUSH0 SWAP1 SLOAD SWAP1 PUSH2 0x100 EXP SWAP1 DIV PUSH20 0xFFFFFFFFFFFFFFFFFFFFFFFFFFFFFFFFFFFFFFFF AND PUSH20 0xFFFFFFFFFFFFFFFFFFFFFFFFFFFFFFFFFFFFFFFF AND PUSH20 0xFFFFFFFFFFFFFFFFFFFFFFFFFFFFFFFFFFFFFFFF AND DUP2 MSTORE PUSH1 0x20 ADD SWAP1 DUP2 MSTORE PUSH1 0x20 ADD PUSH0 KECCAK256 PUSH0 CALLER PUSH20 0xFFFFFFFFFFFFFFFFFFFFFFFFFFFFFFFFFFFFFFFF AND PUSH20 0xFFFFFFFFFFFFFFFFFFFFFFFFFFFFFFFFFFFFFFFF AND DUP2 MSTORE PUSH1 0x20 ADD SWAP1 DUP2 MSTORE PUSH1 0x20 ADD PUSH0 KECCAK256 DUP2 SWAP1 SSTORE POP DUP2 PUSH1 0x4 PUSH0 DUP3 DUP3 SLOAD PUSH2 0xD03 SWAP2 SWAP1 PUSH2 0x4375 JUMP JUMPDEST SWAP3 POP POP DUP2 SWAP1 SSTORE POP PUSH1 0x3 PUSH1 0x10 DUP2 DUP2 SWAP1 SLOAD SWAP1 PUSH2 0x100 EXP SWAP1 DIV PUSH16 0xFFFFFFFFFFFFFFFFFFFFFFFFFFFFFFFF AND DUP1 SWAP3 SWAP2 SWAP1 PUSH2 0xD38 SWAP1 PUSH2 0x43A8 JUMP JUMPDEST SWAP2 SWAP1 PUSH2 0x100 EXP DUP2 SLOAD DUP2 PUSH16 0xFFFFFFFFFFFFFFFFFFFFFFFFFFFFFFFF MUL NOT AND SWAP1 DUP4 PUSH16 0xFFFFFFFFFFFFFFFFFFFFFFFFFFFFFFFF AND MUL OR SWAP1 SSTORE POP POP PUSH2 0xDDD PUSH1 0x5 PUSH1 0x1 SWAP1 SLOAD SWAP1 PUSH2 0x100 EXP SWAP1 DIV PUSH20 0xFFFFFFFFFFFFFFFFFFFFFFFFFFFFFFFFFFFFFFFF AND PUSH0 PUSH1 0x7 PUSH0 SWAP1 SLOAD SWAP1 PUSH2 0x100 EXP SWAP1 DIV PUSH20 0xFFFFFFFFFFFFFFFFFFFFFFFFFFFFFFFFFFFFFFFF AND PUSH20 0xFFFFFFFFFFFFFFFFFFFFFFFFFFFFFFFFFFFFFFFF AND PUSH2 0x2C6E SWAP1 SWAP3 SWAP2 SWAP1 PUSH4 0xFFFFFFFF AND JUMP JUMPDEST PUSH2 0xE4B PUSH1 0x5 PUSH1 0x1 SWAP1 SLOAD SWAP1 PUSH2 0x100 EXP SWAP1 DIV PUSH20 0xFFFFFFFFFFFFFFFFFFFFFFFFFFFFFFFFFFFFFFFF AND DUP4 PUSH1 0x7 PUSH0 SWAP1 SLOAD SWAP1 PUSH2 0x100 EXP SWAP1 DIV PUSH20 0xFFFFFFFFFFFFFFFFFFFFFFFFFFFFFFFFFFFFFFFF AND PUSH20 0xFFFFFFFFFFFFFFFFFFFFFFFFFFFFFFFFFFFFFFFF AND PUSH2 0x2C6E SWAP1 SWAP3 SWAP2 SWAP1 PUSH4 0xFFFFFFFF AND JUMP JUMPDEST PUSH0 PUSH1 0x5 PUSH1 0x1 SWAP1 SLOAD SWAP1 PUSH2 0x100 EXP SWAP1 DIV PUSH20 0xFFFFFFFFFFFFFFFFFFFFFFFFFFFFFFFFFFFFFFFF AND PUSH20 0xFFFFFFFFFFFFFFFFFFFFFFFFFFFFFFFFFFFFFFFF AND PUSH4 0x18CBAFE5 DUP5 DUP11 DUP8 CALLER PUSH2 0x384 TIMESTAMP PUSH2 0xE9C SWAP2 SWAP1 PUSH2 0x43DF JUMP JUMPDEST PUSH1 0x40 MLOAD DUP7 PUSH4 0xFFFFFFFF AND PUSH1 0xE0 SHL DUP2 MSTORE PUSH1 0x4 ADD PUSH2 0xEBC SWAP6 SWAP5 SWAP4 SWAP3 SWAP2 SWAP1 PUSH2 0x44C9 JUMP JUMPDEST PUSH0 PUSH1 0x40 MLOAD DUP1 DUP4 SUB DUP2 PUSH0 DUP8 GAS CALL ISZERO DUP1 ISZERO PUSH2 0xED7 JUMPI RETURNDATASIZE PUSH0 PUSH0 RETURNDATACOPY RETURNDATASIZE PUSH0 REVERT JUMPDEST POP POP POP POP PUSH1 0x40 MLOAD RETURNDATASIZE PUSH0 DUP3 RETURNDATACOPY RETURNDATASIZE PUSH1 0x1F NOT PUSH1 0x1F DUP3 ADD AND DUP3 ADD DUP1 PUSH1 0x40 MSTORE POP DUP2 ADD SWAP1 PUSH2 0xEFF SWAP2 SWAP1 PUSH2 0x4685 JUMP JUMPDEST SWAP1 POP PUSH0 DUP2 PUSH1 0x1 DUP4 MLOAD PUSH2 0xF11 SWAP2 SWAP1 PUSH2 0x4375 JUMP JUMPDEST DUP2 MLOAD DUP2 LT PUSH2 0xF22 JUMPI PUSH2 0xF21 PUSH2 0x46CC JUMP JUMPDEST JUMPDEST PUSH1 0x20 MUL PUSH1 0x20 ADD ADD MLOAD SWAP1 POP DUP9 DUP2 LT ISZERO PUSH2 0xF73 JUMPI CALLER DUP10 PUSH1 0x40 MLOAD PUSH32 0x1C43B97600000000000000000000000000000000000000000000000000000000 DUP2 MSTORE PUSH1 0x4 ADD PUSH2 0xF6A SWAP3 SWAP2 SWAP1 PUSH2 0x46F9 JUMP JUMPDEST PUSH1 0x40 MLOAD DUP1 SWAP2 SUB SWAP1 REVERT JUMPDEST CALLER PUSH20 0xFFFFFFFFFFFFFFFFFFFFFFFFFFFFFFFFFFFFFFFF AND PUSH32 0x45DDB5D9824C91BD2AEC14CD0DC5D7AC39E17B3C971251B50096C388A41EDF64 DUP3 DUP7 PUSH1 0x40 MLOAD PUSH2 0xFBB SWAP3 SWAP2 SWAP1 PUSH2 0x4321 JUMP JUMPDEST PUSH1 0x40 MLOAD DUP1 SWAP2 SUB SWAP1 LOG2 POP POP POP POP POP POP POP PUSH2 0xFD2 PUSH2 0x2D20 JUMP JUMPDEST POP POP JUMP JUMPDEST PUSH2 0xFDF DUP3 PUSH2 0xA54 JUMP JUMPDEST PUSH2 0xFE8 DUP2 PUSH2 0x27DF JUMP JUMPDEST PUSH2 0xFF2 DUP4 DUP4 PUSH2 0x2D3B JUMP JUMPDEST POP POP POP POP JUMP JUMPDEST PUSH2 0x1000 PUSH2 0x29B8 JUMP JUMPDEST DUP2 PUSH2 0x100A DUP2 PUSH2 0x2A1A JUMP JUMPDEST PUSH0 DUP3 SUB PUSH2 0x1043 JUMPI PUSH1 0x40 MLOAD PUSH32 0xAA7FEADC00000000000000000000000000000000000000000000000000000000 DUP2 MSTORE PUSH1 0x4 ADD PUSH1 0x40 MLOAD DUP1 SWAP2 SUB SWAP1 REVERT JUMPDEST PUSH0 PUSH2 0x104E DUP5 DUP5 PUSH2 0x2E24 JUMP JUMPDEST SWAP1 POP PUSH0 PUSH1 0x4 SLOAD SWAP1 POP PUSH2 0x1062 DUP6 DUP6 DUP5 DUP5 PUSH2 0x30E3 JUMP JUMPDEST POP POP POP PUSH2 0x106D PUSH2 0x2D20 JUMP JUMPDEST POP POP JUMP JUMPDEST PUSH2 0x1079 PUSH2 0x32B2 JUMP JUMPDEST PUSH20 0xFFFFFFFFFFFFFFFFFFFFFFFFFFFFFFFFFFFFFFFF AND DUP2 PUSH20 0xFFFFFFFFFFFFFFFFFFFFFFFFFFFFFFFFFFFFFFFF AND EQ PUSH2 0x10DD JUMPI PUSH1 0x40 MLOAD PUSH32 0x6697B23200000000000000000000000000000000000000000000000000000000 DUP2 MSTORE PUSH1 0x4 ADD PUSH1 0x40 MLOAD DUP1 SWAP2 SUB SWAP1 REVERT JUMPDEST PUSH2 0x10E7 DUP3 DUP3 PUSH2 0x32B9 JUMP JUMPDEST POP POP POP JUMP JUMPDEST PUSH1 0x7 PUSH0 SWAP1 SLOAD SWAP1 PUSH2 0x100 EXP SWAP1 DIV PUSH20 0xFFFFFFFFFFFFFFFFFFFFFFFFFFFFFFFFFFFFFFFF AND DUP2 JUMP JUMPDEST PUSH1 0x6 PUSH0 SWAP1 SLOAD SWAP1 PUSH2 0x100 EXP SWAP1 DIV PUSH20 0xFFFFFFFFFFFFFFFFFFFFFFFFFFFFFFFFFFFFFFFF AND DUP2 JUMP JUMPDEST PUSH0 PUSH2 0x1141 DUP4 DUP4 PUSH2 0x2E24 JUMP JUMPDEST SWAP1 POP SWAP3 SWAP2 POP POP JUMP JUMPDEST PUSH1 0x3 PUSH1 0x10 SWAP1 SLOAD SWAP1 PUSH2 0x100 EXP SWAP1 DIV PUSH16 0xFFFFFFFFFFFFFFFFFFFFFFFFFFFFFFFF AND DUP2 JUMP JUMPDEST PUSH1 0x5 PUSH1 0x1 SWAP1 SLOAD SWAP1 PUSH2 0x100 EXP SWAP1 DIV PUSH20 0xFFFFFFFFFFFFFFFFFFFFFFFFFFFFFFFFFFFFFFFF AND DUP2 JUMP JUMPDEST PUSH32 0xA49807205CE4D355092EF5A8A18F56E8913CF4A201FBE287825B095693C21775 DUP2 JUMP JUMPDEST PUSH32 0x0 DUP2 JUMP JUMPDEST PUSH2 0x11E1 PUSH2 0x29B8 JUMP JUMPDEST PUSH0 PUSH2 0x11EB DUP2 PUSH2 0x2A1A JUMP JUMPDEST DUP2 PUSH2 0x11F5 DUP2 PUSH2 0x2B1D JUMP JUMPDEST PUSH0 DUP4 SUB PUSH2 0x122E JUMPI PUSH1 0x40 MLOAD PUSH32 0xAA7FEADC00000000000000000000000000000000000000000000000000000000 DUP2 MSTORE PUSH1 0x4 ADD PUSH1 0x40 MLOAD DUP1 SWAP2 SUB SWAP1 REVERT JUMPDEST PUSH0 PUSH2 0x1238 DUP5 PUSH2 0x33A2 JUMP JUMPDEST SWAP1 POP PUSH0 PUSH1 0x2 PUSH0 PUSH0 PUSH20 0xFFFFFFFFFFFFFFFFFFFFFFFFFFFFFFFFFFFFFFFF AND PUSH20 0xFFFFFFFFFFFFFFFFFFFFFFFFFFFFFFFFFFFFFFFF AND DUP2 MSTORE PUSH1 0x20 ADD SWAP1 DUP2 MSTORE PUSH1 0x20 ADD PUSH0 KECCAK256 PUSH0 CALLER PUSH20 0xFFFFFFFFFFFFFFFFFFFFFFFFFFFFFFFFFFFFFFFF AND PUSH20 0xFFFFFFFFFFFFFFFFFFFFFFFFFFFFFFFFFFFFFFFF AND DUP2 MSTORE PUSH1 0x20 ADD SWAP1 DUP2 MSTORE PUSH1 0x20 ADD PUSH0 KECCAK256 SLOAD SWAP1 POP PUSH0 PUSH1 0x4 SLOAD SWAP1 POP PUSH2 0x12C8 DUP7 DUP5 DUP5 DUP5 PUSH2 0x3559 JUMP JUMPDEST POP POP POP POP POP PUSH2 0x12D5 PUSH2 0x2D20 JUMP JUMPDEST POP JUMP JUMPDEST PUSH0 PUSH0 PUSH0 DUP5 DUP2 MSTORE PUSH1 0x20 ADD SWAP1 DUP2 MSTORE PUSH1 0x20 ADD PUSH0 KECCAK256 PUSH0 ADD PUSH0 DUP4 PUSH20 0xFFFFFFFFFFFFFFFFFFFFFFFFFFFFFFFFFFFFFFFF AND PUSH20 0xFFFFFFFFFFFFFFFFFFFFFFFFFFFFFFFFFFFFFFFF AND DUP2 MSTORE PUSH1 0x20 ADD SWAP1 DUP2 MSTORE PUSH1 0x20 ADD PUSH0 KECCAK256 PUSH0 SWAP1 SLOAD SWAP1 PUSH2 0x100 EXP SWAP1 DIV PUSH1 0xFF AND SWAP1 POP SWAP3 SWAP2 POP POP JUMP JUMPDEST PUSH2 0x1343 PUSH2 0x29B8 JUMP JUMPDEST DUP2 PUSH2 0x134D DUP2 PUSH2 0x2A1A JUMP JUMPDEST PUSH0 DUP3 SUB PUSH2 0x1386 JUMPI PUSH1 0x40 MLOAD PUSH32 0xAA7FEADC00000000000000000000000000000000000000000000000000000000 DUP2 MSTORE PUSH1 0x4 ADD PUSH1 0x40 MLOAD DUP1 SWAP2 SUB SWAP1 REVERT JUMPDEST PUSH0 PUSH2 0x1391 DUP5 DUP5 PUSH2 0x2E24 JUMP JUMPDEST SWAP1 POP PUSH0 PUSH1 0x2 PUSH0 DUP7 PUSH20 0xFFFFFFFFFFFFFFFFFFFFFFFFFFFFFFFFFFFFFFFF AND PUSH20 0xFFFFFFFFFFFFFFFFFFFFFFFFFFFFFFFFFFFFFFFF AND DUP2 MSTORE PUSH1 0x20 ADD SWAP1 DUP2 MSTORE PUSH1 0x20 ADD PUSH0 KECCAK256 PUSH0 CALLER PUSH20 0xFFFFFFFFFFFFFFFFFFFFFFFFFFFFFFFFFFFFFFFF AND PUSH20 0xFFFFFFFFFFFFFFFFFFFFFFFFFFFFFFFFFFFFFFFF AND DUP2 MSTORE PUSH1 0x20 ADD SWAP1 DUP2 MSTORE PUSH1 0x20 ADD PUSH0 KECCAK256 SLOAD SWAP1 POP PUSH0 PUSH1 0x4 SLOAD SWAP1 POP PUSH2 0x1422 DUP7 DUP7 DUP6 DUP6 DUP6 PUSH2 0x37A2 JUMP JUMPDEST POP POP POP POP PUSH2 0x142E PUSH2 0x2D20 JUMP JUMPDEST POP POP JUMP JUMPDEST PUSH0 PUSH0 SHL DUP2 JUMP JUMPDEST PUSH32 0x0 DUP2 JUMP JUMPDEST PUSH32 0x0 DUP2 JUMP JUMPDEST PUSH32 0xA49807205CE4D355092EF5A8A18F56E8913CF4A201FBE287825B095693C21775 PUSH2 0x14AA DUP2 PUSH2 0x27DF JUMP JUMPDEST PUSH0 PUSH20 0xFFFFFFFFFFFFFFFFFFFFFFFFFFFFFFFFFFFFFFFF AND DUP3 PUSH20 0xFFFFFFFFFFFFFFFFFFFFFFFFFFFFFFFFFFFFFFFF AND SUB PUSH2 0x150F JUMPI PUSH1 0x40 MLOAD PUSH32 0xAA7FEADC00000000000000000000000000000000000000000000000000000000 DUP2 MSTORE PUSH1 0x4 ADD PUSH1 0x40 MLOAD DUP1 SWAP2 SUB SWAP1 REVERT JUMPDEST PUSH0 PUSH1 0x7 PUSH0 SWAP1 SLOAD SWAP1 PUSH2 0x100 EXP SWAP1 DIV PUSH20 0xFFFFFFFFFFFFFFFFFFFFFFFFFFFFFFFFFFFFFFFF AND SWAP1 POP DUP3 PUSH1 0x7 PUSH0 PUSH2 0x100 EXP DUP2 SLOAD DUP2 PUSH20 0xFFFFFFFFFFFFFFFFFFFFFFFFFFFFFFFFFFFFFFFF MUL NOT AND SWAP1 DUP4 PUSH20 0xFFFFFFFFFFFFFFFFFFFFFFFFFFFFFFFFFFFFFFFF AND MUL OR SWAP1 SSTORE POP PUSH1 0x1 DUP1 PUSH0 DUP6 PUSH20 0xFFFFFFFFFFFFFFFFFFFFFFFFFFFFFFFFFFFFFFFF AND PUSH20 0xFFFFFFFFFFFFFFFFFFFFFFFFFFFFFFFFFFFFFFFF AND DUP2 MSTORE PUSH1 0x20 ADD SWAP1 DUP2 MSTORE PUSH1 0x20 ADD PUSH0 KECCAK256 PUSH0 ADD PUSH1 0x14 PUSH2 0x100 EXP DUP2 SLOAD DUP2 PUSH1 0xFF MUL NOT AND SWAP1 DUP4 ISZERO ISZERO MUL OR SWAP1 SSTORE POP DUP3 PUSH20 0xFFFFFFFFFFFFFFFFFFFFFFFFFFFFFFFFFFFFFFFF AND DUP2 PUSH20 0xFFFFFFFFFFFFFFFFFFFFFFFFFFFFFFFFFFFFFFFF AND PUSH32 0x88F3565164466B732797D579F72C7F3243455D0421F6F71C4D1F191677B2C863 PUSH1 0x40 MLOAD PUSH1 0x40 MLOAD DUP1 SWAP2 SUB SWAP1 LOG3 PUSH0 PUSH20 0xFFFFFFFFFFFFFFFFFFFFFFFFFFFFFFFFFFFFFFFF AND DUP4 PUSH20 0xFFFFFFFFFFFFFFFFFFFFFFFFFFFFFFFFFFFFFFFF AND PUSH32 0x93C63EDE467BB2AAB36216973FE7AE0908F66F1F5DE14FE7F1B754F58798060B PUSH1 0x1 PUSH1 0x40 MLOAD PUSH2 0x1683 SWAP2 SWAP1 PUSH2 0x3E9D JUMP JUMPDEST PUSH1 0x40 MLOAD DUP1 SWAP2 SUB SWAP1 LOG3 POP POP POP JUMP JUMPDEST PUSH0 PUSH1 0x2 PUSH0 DUP5 PUSH20 0xFFFFFFFFFFFFFFFFFFFFFFFFFFFFFFFFFFFFFFFF AND PUSH20 0xFFFFFFFFFFFFFFFFFFFFFFFFFFFFFFFFFFFFFFFF AND DUP2 MSTORE PUSH1 0x20 ADD SWAP1 DUP2 MSTORE PUSH1 0x20 ADD PUSH0 KECCAK256 PUSH0 DUP4 PUSH20 0xFFFFFFFFFFFFFFFFFFFFFFFFFFFFFFFFFFFFFFFF AND PUSH20 0xFFFFFFFFFFFFFFFFFFFFFFFFFFFFFFFFFFFFFFFF AND DUP2 MSTORE PUSH1 0x20 ADD SWAP1 DUP2 MSTORE PUSH1 0x20 ADD PUSH0 KECCAK256 SLOAD SWAP1 POP SWAP3 SWAP2 POP POP JUMP JUMPDEST PUSH2 0x171A PUSH2 0x29B8 JUMP JUMPDEST DUP3 PUSH2 0x1724 DUP2 PUSH2 0x2A1A JUMP JUMPDEST PUSH0 PUSH20 0xFFFFFFFFFFFFFFFFFFFFFFFFFFFFFFFFFFFFFFFF AND DUP5 PUSH20 0xFFFFFFFFFFFFFFFFFFFFFFFFFFFFFFFFFFFFFFFF AND EQ DUP1 PUSH2 0x175D JUMPI POP PUSH0 DUP4 EQ JUMPDEST ISZERO PUSH2 0x1794 JUMPI PUSH1 0x40 MLOAD PUSH32 0xAA7FEADC00000000000000000000000000000000000000000000000000000000 DUP2 MSTORE PUSH1 0x4 ADD PUSH1 0x40 MLOAD DUP1 SWAP2 SUB SWAP1 REVERT JUMPDEST PUSH1 0x7 PUSH0 SWAP1 SLOAD SWAP1 PUSH2 0x100 EXP SWAP1 DIV PUSH20 0xFFFFFFFFFFFFFFFFFFFFFFFFFFFFFFFFFFFFFFFF AND PUSH20 0xFFFFFFFFFFFFFFFFFFFFFFFFFFFFFFFFFFFFFFFF AND DUP5 PUSH20 0xFFFFFFFFFFFFFFFFFFFFFFFFFFFFFFFFFFFFFFFF AND SUB PUSH2 0x181A JUMPI PUSH1 0x40 MLOAD PUSH32 0xAA7FEADC00000000000000000000000000000000000000000000000000000000 DUP2 MSTORE PUSH1 0x4 ADD PUSH1 0x40 MLOAD DUP1 SWAP2 SUB SWAP1 REVERT JUMPDEST PUSH0 PUSH2 0x1846 DUP6 PUSH1 0x7 PUSH0 SWAP1 SLOAD SWAP1 PUSH2 0x100 EXP SWAP1 DIV PUSH20 0xFFFFFFFFFFFFFFFFFFFFFFFFFFFFFFFFFFFFFFFF AND PUSH2 0x27F3 JUMP JUMPDEST SWAP1 POP PUSH1 0x2 DUP2 MLOAD EQ ISZERO DUP1 PUSH2 0x189F JUMPI POP DUP5 PUSH20 0xFFFFFFFFFFFFFFFFFFFFFFFFFFFFFFFFFFFFFFFF AND DUP2 PUSH0 DUP2 MLOAD DUP2 LT PUSH2 0x187E JUMPI PUSH2 0x187D PUSH2 0x46CC JUMP JUMPDEST JUMPDEST PUSH1 0x20 MUL PUSH1 0x20 ADD ADD MLOAD PUSH20 0xFFFFFFFFFFFFFFFFFFFFFFFFFFFFFFFFFFFFFFFF AND EQ ISZERO JUMPDEST DUP1 PUSH2 0x1912 JUMPI POP PUSH1 0x7 PUSH0 SWAP1 SLOAD SWAP1 PUSH2 0x100 EXP SWAP1 DIV PUSH20 0xFFFFFFFFFFFFFFFFFFFFFFFFFFFFFFFFFFFFFFFF AND PUSH20 0xFFFFFFFFFFFFFFFFFFFFFFFFFFFFFFFFFFFFFFFF AND DUP2 PUSH1 0x1 DUP2 MLOAD DUP2 LT PUSH2 0x18F1 JUMPI PUSH2 0x18F0 PUSH2 0x46CC JUMP JUMPDEST JUMPDEST PUSH1 0x20 MUL PUSH1 0x20 ADD ADD MLOAD PUSH20 0xFFFFFFFFFFFFFFFFFFFFFFFFFFFFFFFFFFFFFFFF AND EQ ISZERO JUMPDEST ISZERO PUSH2 0x1954 JUMPI DUP5 PUSH1 0x40 MLOAD PUSH32 0xC286EEFE00000000000000000000000000000000000000000000000000000000 DUP2 MSTORE PUSH1 0x4 ADD PUSH2 0x194B SWAP2 SWAP1 PUSH2 0x415F JUMP JUMPDEST PUSH1 0x40 MLOAD DUP1 SWAP2 SUB SWAP1 REVERT JUMPDEST PUSH0 PUSH2 0x195F DUP6 DUP4 PUSH2 0x28E4 JUMP JUMPDEST SWAP1 POP PUSH0 DUP2 EQ DUP1 PUSH2 0x196E JUMPI POP DUP1 DUP5 GT JUMPDEST ISZERO PUSH2 0x19A5 JUMPI PUSH1 0x40 MLOAD PUSH32 0x850C6F7600000000000000000000000000000000000000000000000000000000 DUP2 MSTORE PUSH1 0x4 ADD PUSH1 0x40 MLOAD DUP1 SWAP2 SUB SWAP1 REVERT JUMPDEST PUSH0 PUSH1 0x4 SLOAD PUSH32 0x0 PUSH2 0x19D4 SWAP2 SWAP1 PUSH2 0x4375 JUMP JUMPDEST SWAP1 POP DUP1 DUP3 GT ISZERO PUSH2 0x1A41 JUMPI PUSH1 0x4 SLOAD DUP3 PUSH32 0x0 PUSH1 0x40 MLOAD PUSH32 0x621E5A6900000000000000000000000000000000000000000000000000000000 DUP2 MSTORE PUSH1 0x4 ADD PUSH2 0x1A38 SWAP4 SWAP3 SWAP2 SWAP1 PUSH2 0x4720 JUMP JUMPDEST PUSH1 0x40 MLOAD DUP1 SWAP2 SUB SWAP1 REVERT JUMPDEST PUSH2 0x1A6E CALLER ADDRESS DUP9 DUP11 PUSH20 0xFFFFFFFFFFFFFFFFFFFFFFFFFFFFFFFFFFFFFFFF AND PUSH2 0x3981 SWAP1 SWAP4 SWAP3 SWAP2 SWAP1 PUSH4 0xFFFFFFFF AND JUMP JUMPDEST PUSH2 0x1ABB PUSH1 0x5 PUSH1 0x1 SWAP1 SLOAD SWAP1 PUSH2 0x100 EXP SWAP1 DIV PUSH20 0xFFFFFFFFFFFFFFFFFFFFFFFFFFFFFFFFFFFFFFFF AND PUSH0 DUP10 PUSH20 0xFFFFFFFFFFFFFFFFFFFFFFFFFFFFFFFFFFFFFFFF AND PUSH2 0x2C6E SWAP1 SWAP3 SWAP2 SWAP1 PUSH4 0xFFFFFFFF AND JUMP JUMPDEST PUSH2 0x1B08 PUSH1 0x5 PUSH1 0x1 SWAP1 SLOAD SWAP1 PUSH2 0x100 EXP SWAP1 DIV PUSH20 0xFFFFFFFFFFFFFFFFFFFFFFFFFFFFFFFFFFFFFFFF AND DUP8 DUP10 PUSH20 0xFFFFFFFFFFFFFFFFFFFFFFFFFFFFFFFFFFFFFFFF AND PUSH2 0x2C6E SWAP1 SWAP3 SWAP2 SWAP1 PUSH4 0xFFFFFFFF AND JUMP JUMPDEST PUSH0 PUSH1 0x5 PUSH1 0x1 SWAP1 SLOAD SWAP1 PUSH2 0x100 EXP SWAP1 DIV PUSH20 0xFFFFFFFFFFFFFFFFFFFFFFFFFFFFFFFFFFFFFFFF AND PUSH20 0xFFFFFFFFFFFFFFFFFFFFFFFFFFFFFFFFFFFFFFFF AND PUSH4 0x38ED1739 DUP9 DUP9 DUP8 ADDRESS PUSH2 0x384 TIMESTAMP PUSH2 0x1B59 SWAP2 SWAP1 PUSH2 0x43DF JUMP JUMPDEST PUSH1 0x40 MLOAD DUP7 PUSH4 0xFFFFFFFF AND PUSH1 0xE0 SHL DUP2 MSTORE PUSH1 0x4 ADD PUSH2 0x1B79 SWAP6 SWAP5 SWAP4 SWAP3 SWAP2 SWAP1 PUSH2 0x44C9 JUMP JUMPDEST PUSH0 PUSH1 0x40 MLOAD DUP1 DUP4 SUB DUP2 PUSH0 DUP8 GAS CALL ISZERO DUP1 ISZERO PUSH2 0x1B94 JUMPI RETURNDATASIZE PUSH0 PUSH0 RETURNDATACOPY RETURNDATASIZE PUSH0 REVERT JUMPDEST POP POP POP POP PUSH1 0x40 MLOAD RETURNDATASIZE PUSH0 DUP3 RETURNDATACOPY RETURNDATASIZE PUSH1 0x1F NOT PUSH1 0x1F DUP3 ADD AND DUP3 ADD DUP1 PUSH1 0x40 MSTORE POP DUP2 ADD SWAP1 PUSH2 0x1BBC SWAP2 SWAP1 PUSH2 0x4685 JUMP JUMPDEST SWAP1 POP PUSH0 DUP2 PUSH1 0x1 DUP4 MLOAD PUSH2 0x1BCE SWAP2 SWAP1 PUSH2 0x4375 JUMP JUMPDEST DUP2 MLOAD DUP2 LT PUSH2 0x1BDF JUMPI PUSH2 0x1BDE PUSH2 0x46CC JUMP JUMPDEST JUMPDEST PUSH1 0x20 MUL PUSH1 0x20 ADD ADD MLOAD SWAP1 POP PUSH0 DUP4 DUP3 GT PUSH2 0x1BF7 JUMPI DUP2 PUSH2 0x1BF9 JUMP JUMPDEST DUP4 JUMPDEST SWAP1 POP DUP1 PUSH1 0x2 PUSH0 PUSH1 0x7 PUSH0 SWAP1 SLOAD SWAP1 PUSH2 0x100 EXP SWAP1 DIV PUSH20 0xFFFFFFFFFFFFFFFFFFFFFFFFFFFFFFFFFFFFFFFF AND PUSH20 0xFFFFFFFFFFFFFFFFFFFFFFFFFFFFFFFFFFFFFFFF AND PUSH20 0xFFFFFFFFFFFFFFFFFFFFFFFFFFFFFFFFFFFFFFFF AND DUP2 MSTORE PUSH1 0x20 ADD SWAP1 DUP2 MSTORE PUSH1 0x20 ADD PUSH0 KECCAK256 PUSH0 CALLER PUSH20 0xFFFFFFFFFFFFFFFFFFFFFFFFFFFFFFFFFFFFFFFF AND PUSH20 0xFFFFFFFFFFFFFFFFFFFFFFFFFFFFFFFFFFFFFFFF AND DUP2 MSTORE PUSH1 0x20 ADD SWAP1 DUP2 MSTORE PUSH1 0x20 ADD PUSH0 KECCAK256 PUSH0 DUP3 DUP3 SLOAD PUSH2 0x1CA3 SWAP2 SWAP1 PUSH2 0x43DF JUMP JUMPDEST SWAP3 POP POP DUP2 SWAP1 SSTORE POP DUP1 PUSH1 0x4 PUSH0 DUP3 DUP3 SLOAD PUSH2 0x1CBB SWAP2 SWAP1 PUSH2 0x43DF JUMP JUMPDEST SWAP3 POP POP DUP2 SWAP1 SSTORE POP PUSH1 0x3 PUSH0 DUP2 DUP2 SWAP1 SLOAD SWAP1 PUSH2 0x100 EXP SWAP1 DIV PUSH16 0xFFFFFFFFFFFFFFFFFFFFFFFFFFFFFFFF AND DUP1 SWAP3 SWAP2 SWAP1 PUSH2 0x1CEF SWAP1 PUSH2 0x43A8 JUMP JUMPDEST SWAP2 SWAP1 PUSH2 0x100 EXP DUP2 SLOAD DUP2 PUSH16 0xFFFFFFFFFFFFFFFFFFFFFFFFFFFFFFFF MUL NOT AND SWAP1 DUP4 PUSH16 0xFFFFFFFFFFFFFFFFFFFFFFFFFFFFFFFF AND MUL OR SWAP1 SSTORE POP POP DUP10 PUSH20 0xFFFFFFFFFFFFFFFFFFFFFFFFFFFFFFFFFFFFFFFF AND CALLER PUSH20 0xFFFFFFFFFFFFFFFFFFFFFFFFFFFFFFFFFFFFFFFF AND PUSH32 0x805821F5DE33BA50F79A4718F041809B80957C94149E30B9036EEAD145F168C6 DUP12 DUP5 PUSH1 0x40 MLOAD PUSH2 0x1D85 SWAP3 SWAP2 SWAP1 PUSH2 0x4321 JUMP JUMPDEST PUSH1 0x40 MLOAD DUP1 SWAP2 SUB SWAP1 LOG3 POP POP POP POP POP POP POP PUSH2 0x1D9C PUSH2 0x2D20 JUMP JUMPDEST POP POP POP JUMP JUMPDEST PUSH32 0xA49807205CE4D355092EF5A8A18F56E8913CF4A201FBE287825B095693C21775 PUSH2 0x1DCB DUP2 PUSH2 0x27DF JUMP JUMPDEST PUSH0 PUSH20 0xFFFFFFFFFFFFFFFFFFFFFFFFFFFFFFFFFFFFFFFF AND DUP3 PUSH20 0xFFFFFFFFFFFFFFFFFFFFFFFFFFFFFFFFFFFFFFFF AND SUB PUSH2 0x1E30 JUMPI PUSH1 0x40 MLOAD PUSH32 0xAA7FEADC00000000000000000000000000000000000000000000000000000000 DUP2 MSTORE PUSH1 0x4 ADD PUSH1 0x40 MLOAD DUP1 SWAP2 SUB SWAP1 REVERT JUMPDEST PUSH0 PUSH1 0x5 PUSH1 0x1 SWAP1 SLOAD SWAP1 PUSH2 0x100 EXP SWAP1 DIV PUSH20 0xFFFFFFFFFFFFFFFFFFFFFFFFFFFFFFFFFFFFFFFF AND SWAP1 POP DUP3 PUSH1 0x5 PUSH1 0x1 PUSH2 0x100 EXP DUP2 SLOAD DUP2 PUSH20 0xFFFFFFFFFFFFFFFFFFFFFFFFFFFFFFFFFFFFFFFF MUL NOT AND SWAP1 DUP4 PUSH20 0xFFFFFFFFFFFFFFFFFFFFFFFFFFFFFFFFFFFFFFFF AND MUL OR SWAP1 SSTORE POP DUP3 PUSH20 0xFFFFFFFFFFFFFFFFFFFFFFFFFFFFFFFFFFFFFFFF AND PUSH4 0xAD5C4648 PUSH1 0x40 MLOAD DUP2 PUSH4 0xFFFFFFFF AND PUSH1 0xE0 SHL DUP2 MSTORE PUSH1 0x4 ADD PUSH1 0x20 PUSH1 0x40 MLOAD DUP1 DUP4 SUB DUP2 DUP7 GAS STATICCALL ISZERO DUP1 ISZERO PUSH2 0x1EE0 JUMPI RETURNDATASIZE PUSH0 PUSH0 RETURNDATACOPY RETURNDATASIZE PUSH0 REVERT JUMPDEST POP POP POP POP PUSH1 0x40 MLOAD RETURNDATASIZE PUSH1 0x1F NOT PUSH1 0x1F DUP3 ADD AND DUP3 ADD DUP1 PUSH1 0x40 MSTORE POP DUP2 ADD SWAP1 PUSH2 0x1F04 SWAP2 SWAP1 PUSH2 0x4769 JUMP JUMPDEST PUSH1 0x6 PUSH0 PUSH2 0x100 EXP DUP2 SLOAD DUP2 PUSH20 0xFFFFFFFFFFFFFFFFFFFFFFFFFFFFFFFFFFFFFFFF MUL NOT AND SWAP1 DUP4 PUSH20 0xFFFFFFFFFFFFFFFFFFFFFFFFFFFFFFFFFFFFFFFF AND MUL OR SWAP1 SSTORE POP DUP3 PUSH20 0xFFFFFFFFFFFFFFFFFFFFFFFFFFFFFFFFFFFFFFFF AND DUP2 PUSH20 0xFFFFFFFFFFFFFFFFFFFFFFFFFFFFFFFFFFFFFFFF AND PUSH32 0x2DC5C233404867C793B749C6D644BEB2277536D18A7E7974D3F238E4C6F1684 PUSH1 0x40 MLOAD PUSH1 0x40 MLOAD DUP1 SWAP2 SUB SWAP1 LOG3 POP POP POP JUMP JUMPDEST PUSH2 0x1FAA PUSH2 0x29B8 JUMP JUMPDEST PUSH0 PUSH2 0x1FB4 DUP2 PUSH2 0x2A1A JUMP JUMPDEST PUSH0 CALLVALUE SUB PUSH2 0x1FED JUMPI PUSH1 0x40 MLOAD PUSH32 0xAA7FEADC00000000000000000000000000000000000000000000000000000000 DUP2 MSTORE PUSH1 0x4 ADD PUSH1 0x40 MLOAD DUP1 SWAP2 SUB SWAP1 REVERT JUMPDEST PUSH0 PUSH2 0x203A PUSH1 0x6 PUSH0 SWAP1 SLOAD SWAP1 PUSH2 0x100 EXP SWAP1 DIV PUSH20 0xFFFFFFFFFFFFFFFFFFFFFFFFFFFFFFFFFFFFFFFF AND PUSH1 0x7 PUSH0 SWAP1 SLOAD SWAP1 PUSH2 0x100 EXP SWAP1 DIV PUSH20 0xFFFFFFFFFFFFFFFFFFFFFFFFFFFFFFFFFFFFFFFF AND PUSH2 0x27F3 JUMP JUMPDEST SWAP1 POP PUSH0 PUSH2 0x2047 CALLVALUE DUP4 PUSH2 0x28E4 JUMP JUMPDEST SWAP1 POP PUSH0 DUP2 EQ DUP1 PUSH2 0x2056 JUMPI POP DUP1 DUP5 GT JUMPDEST ISZERO PUSH2 0x208D JUMPI PUSH1 0x40 MLOAD PUSH32 0x850C6F7600000000000000000000000000000000000000000000000000000000 DUP2 MSTORE PUSH1 0x4 ADD PUSH1 0x40 MLOAD DUP1 SWAP2 SUB SWAP1 REVERT JUMPDEST PUSH0 PUSH1 0x4 SLOAD PUSH32 0x0 PUSH2 0x20BC SWAP2 SWAP1 PUSH2 0x4375 JUMP JUMPDEST SWAP1 POP DUP1 DUP3 GT ISZERO PUSH2 0x2129 JUMPI PUSH1 0x4 SLOAD DUP3 PUSH32 0x0 PUSH1 0x40 MLOAD PUSH32 0x621E5A6900000000000000000000000000000000000000000000000000000000 DUP2 MSTORE PUSH1 0x4 ADD PUSH2 0x2120 SWAP4 SWAP3 SWAP2 SWAP1 PUSH2 0x4720 JUMP JUMPDEST PUSH1 0x40 MLOAD DUP1 SWAP2 SUB SWAP1 REVERT JUMPDEST PUSH0 PUSH1 0x5 PUSH1 0x1 SWAP1 SLOAD SWAP1 PUSH2 0x100 EXP SWAP1 DIV PUSH20 0xFFFFFFFFFFFFFFFFFFFFFFFFFFFFFFFFFFFFFFFF AND PUSH20 0xFFFFFFFFFFFFFFFFFFFFFFFFFFFFFFFFFFFFFFFF AND PUSH4 0x7FF36AB5 CALLVALUE DUP9 DUP8 ADDRESS PUSH2 0x384 TIMESTAMP PUSH2 0x217A SWAP2 SWAP1 PUSH2 0x43DF JUMP JUMPDEST PUSH1 0x40 MLOAD DUP7 PUSH4 0xFFFFFFFF AND PUSH1 0xE0 SHL DUP2 MSTORE PUSH1 0x4 ADD PUSH2 0x2199 SWAP5 SWAP4 SWAP3 SWAP2 SWAP1 PUSH2 0x4794 JUMP JUMPDEST PUSH0 PUSH1 0x40 MLOAD DUP1 DUP4 SUB DUP2 DUP6 DUP9 GAS CALL ISZERO DUP1 ISZERO PUSH2 0x21B4 JUMPI RETURNDATASIZE PUSH0 PUSH0 RETURNDATACOPY RETURNDATASIZE PUSH0 REVERT JUMPDEST POP POP POP POP POP PUSH1 0x40 MLOAD RETURNDATASIZE PUSH0 DUP3 RETURNDATACOPY RETURNDATASIZE PUSH1 0x1F NOT PUSH1 0x1F DUP3 ADD AND DUP3 ADD DUP1 PUSH1 0x40 MSTORE POP DUP2 ADD SWAP1 PUSH2 0x21DD SWAP2 SWAP1 PUSH2 0x4685 JUMP JUMPDEST SWAP1 POP PUSH0 DUP2 PUSH1 0x1 DUP4 MLOAD PUSH2 0x21EF SWAP2 SWAP1 PUSH2 0x4375 JUMP JUMPDEST DUP2 MLOAD DUP2 LT PUSH2 0x2200 JUMPI PUSH2 0x21FF PUSH2 0x46CC JUMP JUMPDEST JUMPDEST PUSH1 0x20 MUL PUSH1 0x20 ADD ADD MLOAD SWAP1 POP PUSH0 DUP4 DUP3 GT PUSH2 0x2218 JUMPI DUP2 PUSH2 0x221A JUMP JUMPDEST DUP4 JUMPDEST SWAP1 POP DUP1 PUSH1 0x2 PUSH0 PUSH1 0x7 PUSH0 SWAP1 SLOAD SWAP1 PUSH2 0x100 EXP SWAP1 DIV PUSH20 0xFFFFFFFFFFFFFFFFFFFFFFFFFFFFFFFFFFFFFFFF AND PUSH20 0xFFFFFFFFFFFFFFFFFFFFFFFFFFFFFFFFFFFFFFFF AND PUSH20 0xFFFFFFFFFFFFFFFFFFFFFFFFFFFFFFFFFFFFFFFF AND DUP2 MSTORE PUSH1 0x20 ADD SWAP1 DUP2 MSTORE PUSH1 0x20 ADD PUSH0 KECCAK256 PUSH0 CALLER PUSH20 0xFFFFFFFFFFFFFFFFFFFFFFFFFFFFFFFFFFFFFFFF AND PUSH20 0xFFFFFFFFFFFFFFFFFFFFFFFFFFFFFFFFFFFFFFFF AND DUP2 MSTORE PUSH1 0x20 ADD SWAP1 DUP2 MSTORE PUSH1 0x20 ADD PUSH0 KECCAK256 PUSH0 DUP3 DUP3 SLOAD PUSH2 0x22C4 SWAP2 SWAP1 PUSH2 0x43DF JUMP JUMPDEST SWAP3 POP POP DUP2 SWAP1 SSTORE POP DUP1 PUSH1 0x4 PUSH0 DUP3 DUP3 SLOAD PUSH2 0x22DC SWAP2 SWAP1 PUSH2 0x43DF JUMP JUMPDEST SWAP3 POP POP DUP2 SWAP1 SSTORE POP PUSH1 0x3 PUSH0 DUP2 DUP2 SWAP1 SLOAD SWAP1 PUSH2 0x100 EXP SWAP1 DIV PUSH16 0xFFFFFFFFFFFFFFFFFFFFFFFFFFFFFFFF AND DUP1 SWAP3 SWAP2 SWAP1 PUSH2 0x2310 SWAP1 PUSH2 0x43A8 JUMP JUMPDEST SWAP2 SWAP1 PUSH2 0x100 EXP DUP2 SLOAD DUP2 PUSH16 0xFFFFFFFFFFFFFFFFFFFFFFFFFFFFFFFF MUL NOT AND SWAP1 DUP4 PUSH16 0xFFFFFFFFFFFFFFFFFFFFFFFFFFFFFFFF AND MUL OR SWAP1 SSTORE POP POP PUSH0 PUSH20 0xFFFFFFFFFFFFFFFFFFFFFFFFFFFFFFFFFFFFFFFF AND CALLER PUSH20 0xFFFFFFFFFFFFFFFFFFFFFFFFFFFFFFFFFFFFFFFF AND PUSH32 0x805821F5DE33BA50F79A4718F041809B80957C94149E30B9036EEAD145F168C6 CALLVALUE DUP5 PUSH1 0x40 MLOAD PUSH2 0x23A6 SWAP3 SWAP2 SWAP1 PUSH2 0x4321 JUMP JUMPDEST PUSH1 0x40 MLOAD DUP1 SWAP2 SUB SWAP1 LOG3 POP POP POP POP POP POP POP PUSH2 0x23BD PUSH2 0x2D20 JUMP JUMPDEST POP JUMP JUMPDEST PUSH0 PUSH2 0x23CA DUP3 PUSH2 0x33A2 JUMP JUMPDEST SWAP1 POP SWAP2 SWAP1 POP JUMP JUMPDEST PUSH0 PUSH0 PUSH2 0x23FE DUP5 PUSH1 0x7 PUSH0 SWAP1 SLOAD SWAP1 PUSH2 0x100 EXP SWAP1 DIV PUSH20 0xFFFFFFFFFFFFFFFFFFFFFFFFFFFFFFFFFFFFFFFF AND PUSH2 0x27F3 JUMP JUMPDEST SWAP1 POP PUSH2 0x240A DUP4 DUP3 PUSH2 0x28E4 JUMP JUMPDEST SWAP2 POP POP SWAP3 SWAP2 POP POP JUMP JUMPDEST PUSH2 0x241C DUP3 PUSH2 0xA54 JUMP JUMPDEST PUSH2 0x2425 DUP2 PUSH2 0x27DF JUMP JUMPDEST PUSH2 0x242F DUP4 DUP4 PUSH2 0x32B9 JUMP JUMPDEST POP POP POP POP JUMP JUMPDEST PUSH1 0x3 PUSH0 SWAP1 SLOAD SWAP1 PUSH2 0x100 EXP SWAP1 DIV PUSH16 0xFFFFFFFFFFFFFFFFFFFFFFFFFFFFFFFF AND DUP2 JUMP JUMPDEST PUSH2 0x245E PUSH2 0x29B8 JUMP JUMPDEST PUSH0 PUSH2 0x2468 DUP2 PUSH2 0x2A1A JUMP JUMPDEST PUSH0 CALLVALUE SUB PUSH2 0x24A1 JUMPI PUSH1 0x40 MLOAD PUSH32 0xAA7FEADC00000000000000000000000000000000000000000000000000000000 DUP2 MSTORE PUSH1 0x4 ADD PUSH1 0x40 MLOAD DUP1 SWAP2 SUB SWAP1 REVERT JUMPDEST PUSH0 PUSH2 0x24AB CALLVALUE PUSH2 0x33A2 JUMP JUMPDEST SWAP1 POP PUSH0 PUSH1 0x4 SLOAD SWAP1 POP PUSH2 0x24BD DUP3 DUP3 PUSH2 0x39D6 JUMP JUMPDEST POP POP POP PUSH2 0x24C8 PUSH2 0x2D20 JUMP JUMPDEST JUMP JUMPDEST PUSH2 0x24D2 PUSH2 0x29B8 JUMP JUMPDEST PUSH1 0x7 PUSH0 SWAP1 SLOAD SWAP1 PUSH2 0x100 EXP SWAP1 DIV PUSH20 0xFFFFFFFFFFFFFFFFFFFFFFFFFFFFFFFFFFFFFFFF AND PUSH2 0x24FD DUP2 PUSH2 0x2A1A JUMP JUMPDEST PUSH1 0x4 SLOAD DUP3 PUSH32 0x0 PUSH2 0x252D DUP4 DUP4 DUP4 PUSH2 0x3B5F JUMP JUMPDEST PUSH0 DUP6 SUB PUSH2 0x2566 JUMPI PUSH1 0x40 MLOAD PUSH32 0xAA7FEADC00000000000000000000000000000000000000000000000000000000 DUP2 MSTORE PUSH1 0x4 ADD PUSH1 0x40 MLOAD DUP1 SWAP2 SUB SWAP1 REVERT JUMPDEST PUSH2 0x25B4 CALLER ADDRESS DUP8 PUSH1 0x7 PUSH0 SWAP1 SLOAD SWAP1 PUSH2 0x100 EXP SWAP1 DIV PUSH20 0xFFFFFFFFFFFFFFFFFFFFFFFFFFFFFFFFFFFFFFFF AND PUSH20 0xFFFFFFFFFFFFFFFFFFFFFFFFFFFFFFFFFFFFFFFF AND PUSH2 0x3981 SWAP1 SWAP4 SWAP3 SWAP2 SWAP1 PUSH4 0xFFFFFFFF AND JUMP JUMPDEST DUP5 PUSH1 0x2 PUSH0 PUSH1 0x7 PUSH0 SWAP1 SLOAD SWAP1 PUSH2 0x100 EXP SWAP1 DIV PUSH20 0xFFFFFFFFFFFFFFFFFFFFFFFFFFFFFFFFFFFFFFFF AND PUSH20 0xFFFFFFFFFFFFFFFFFFFFFFFFFFFFFFFFFFFFFFFF AND PUSH20 0xFFFFFFFFFFFFFFFFFFFFFFFFFFFFFFFFFFFFFFFF AND DUP2 MSTORE PUSH1 0x20 ADD SWAP1 DUP2 MSTORE PUSH1 0x20 ADD PUSH0 KECCAK256 PUSH0 CALLER PUSH20 0xFFFFFFFFFFFFFFFFFFFFFFFFFFFFFFFFFFFFFFFF AND PUSH20 0xFFFFFFFFFFFFFFFFFFFFFFFFFFFFFFFFFFFFFFFF AND DUP2 MSTORE PUSH1 0x20 ADD SWAP1 DUP2 MSTORE PUSH1 0x20 ADD PUSH0 KECCAK256 PUSH0 DUP3 DUP3 SLOAD PUSH2 0x265C SWAP2 SWAP1 PUSH2 0x43DF JUMP JUMPDEST SWAP3 POP POP DUP2 SWAP1 SSTORE POP DUP5 PUSH1 0x4 PUSH0 DUP3 DUP3 SLOAD PUSH2 0x2674 SWAP2 SWAP1 PUSH2 0x43DF JUMP JUMPDEST SWAP3 POP POP DUP2 SWAP1 SSTORE POP PUSH1 0x3 PUSH0 DUP2 DUP2 SWAP1 SLOAD SWAP1 PUSH2 0x100 EXP SWAP1 DIV PUSH16 0xFFFFFFFFFFFFFFFFFFFFFFFFFFFFFFFF AND DUP1 SWAP3 SWAP2 SWAP1 PUSH2 0x26A8 SWAP1 PUSH2 0x43A8 JUMP JUMPDEST SWAP2 SWAP1 PUSH2 0x100 EXP DUP2 SLOAD DUP2 PUSH16 0xFFFFFFFFFFFFFFFFFFFFFFFFFFFFFFFF MUL NOT AND SWAP1 DUP4 PUSH16 0xFFFFFFFFFFFFFFFFFFFFFFFFFFFFFFFF AND MUL OR SWAP1 SSTORE POP POP PUSH1 0x7 PUSH0 SWAP1 SLOAD SWAP1 PUSH2 0x100 EXP SWAP1 DIV PUSH20 0xFFFFFFFFFFFFFFFFFFFFFFFFFFFFFFFFFFFFFFFF AND PUSH20 0xFFFFFFFFFFFFFFFFFFFFFFFFFFFFFFFFFFFFFFFF AND CALLER PUSH20 0xFFFFFFFFFFFFFFFFFFFFFFFFFFFFFFFFFFFFFFFF AND PUSH32 0x805821F5DE33BA50F79A4718F041809B80957C94149E30B9036EEAD145F168C6 DUP8 DUP9 PUSH1 0x40 MLOAD PUSH2 0x275F SWAP3 SWAP2 SWAP1 PUSH2 0x4321 JUMP JUMPDEST PUSH1 0x40 MLOAD DUP1 SWAP2 SUB SWAP1 LOG3 POP POP POP POP PUSH2 0x2773 PUSH2 0x2D20 JUMP JUMPDEST POP JUMP JUMPDEST PUSH0 PUSH32 0x1FFC9A700000000000000000000000000000000000000000000000000000000 PUSH28 0xFFFFFFFFFFFFFFFFFFFFFFFFFFFFFFFFFFFFFFFFFFFFFFFFFFFFFFFF NOT AND DUP3 PUSH28 0xFFFFFFFFFFFFFFFFFFFFFFFFFFFFFFFFFFFFFFFFFFFFFFFFFFFFFFFF NOT AND EQ SWAP1 POP SWAP2 SWAP1 POP JUMP JUMPDEST PUSH2 0x27F0 DUP2 PUSH2 0x27EB PUSH2 0x32B2 JUMP JUMPDEST PUSH2 0x3BBD JUMP JUMPDEST POP JUMP JUMPDEST PUSH1 0x60 PUSH1 0x2 PUSH8 0xFFFFFFFFFFFFFFFF DUP2 GT ISZERO PUSH2 0x2810 JUMPI PUSH2 0x280F PUSH2 0x4535 JUMP JUMPDEST JUMPDEST PUSH1 0x40 MLOAD SWAP1 DUP1 DUP3 MSTORE DUP1 PUSH1 0x20 MUL PUSH1 0x20 ADD DUP3 ADD PUSH1 0x40 MSTORE DUP1 ISZERO PUSH2 0x283E JUMPI DUP2 PUSH1 0x20 ADD PUSH1 0x20 DUP3 MUL DUP1 CALLDATASIZE DUP4 CALLDATACOPY DUP1 DUP3 ADD SWAP2 POP POP SWAP1 POP JUMPDEST POP SWAP1 POP DUP3 DUP2 PUSH0 DUP2 MLOAD DUP2 LT PUSH2 0x2855 JUMPI PUSH2 0x2854 PUSH2 0x46CC JUMP JUMPDEST JUMPDEST PUSH1 0x20 MUL PUSH1 0x20 ADD ADD SWAP1 PUSH20 0xFFFFFFFFFFFFFFFFFFFFFFFFFFFFFFFFFFFFFFFF AND SWAP1 DUP2 PUSH20 0xFFFFFFFFFFFFFFFFFFFFFFFFFFFFFFFFFFFFFFFF AND DUP2 MSTORE POP POP DUP2 DUP2 PUSH1 0x1 DUP2 MLOAD DUP2 LT PUSH2 0x28A4 JUMPI PUSH2 0x28A3 PUSH2 0x46CC JUMP JUMPDEST JUMPDEST PUSH1 0x20 MUL PUSH1 0x20 ADD ADD SWAP1 PUSH20 0xFFFFFFFFFFFFFFFFFFFFFFFFFFFFFFFFFFFFFFFF AND SWAP1 DUP2 PUSH20 0xFFFFFFFFFFFFFFFFFFFFFFFFFFFFFFFFFFFFFFFF AND DUP2 MSTORE POP POP SWAP3 SWAP2 POP POP JUMP JUMPDEST PUSH0 PUSH0 PUSH1 0x5 PUSH1 0x1 SWAP1 SLOAD SWAP1 PUSH2 0x100 EXP SWAP1 DIV PUSH20 0xFFFFFFFFFFFFFFFFFFFFFFFFFFFFFFFFFFFFFFFF AND PUSH20 0xFFFFFFFFFFFFFFFFFFFFFFFFFFFFFFFFFFFFFFFF AND PUSH4 0xD06CA61F DUP6 DUP6 PUSH1 0x40 MLOAD DUP4 PUSH4 0xFFFFFFFF AND PUSH1 0xE0 SHL DUP2 MSTORE PUSH1 0x4 ADD PUSH2 0x2943 SWAP3 SWAP2 SWAP1 PUSH2 0x47DE JUMP JUMPDEST PUSH0 PUSH1 0x40 MLOAD DUP1 DUP4 SUB DUP2 DUP7 GAS STATICCALL ISZERO DUP1 ISZERO PUSH2 0x295D JUMPI RETURNDATASIZE PUSH0 PUSH0 RETURNDATACOPY RETURNDATASIZE PUSH0 REVERT JUMPDEST POP POP POP POP PUSH1 0x40 MLOAD RETURNDATASIZE PUSH0 DUP3 RETURNDATACOPY RETURNDATASIZE PUSH1 0x1F NOT PUSH1 0x1F DUP3 ADD AND DUP3 ADD DUP1 PUSH1 0x40 MSTORE POP DUP2 ADD SWAP1 PUSH2 0x2985 SWAP2 SWAP1 PUSH2 0x4685 JUMP JUMPDEST SWAP1 POP DUP1 PUSH1 0x1 DUP3 MLOAD PUSH2 0x2996 SWAP2 SWAP1 PUSH2 0x4375 JUMP JUMPDEST DUP2 MLOAD DUP2 LT PUSH2 0x29A7 JUMPI PUSH2 0x29A6 PUSH2 0x46CC JUMP JUMPDEST JUMPDEST PUSH1 0x20 MUL PUSH1 0x20 ADD ADD MLOAD SWAP2 POP POP SWAP3 SWAP2 POP POP JUMP JUMPDEST PUSH1 0x5 PUSH0 SWAP1 SLOAD SWAP1 PUSH2 0x100 EXP SWAP1 DIV PUSH1 0xFF AND ISZERO PUSH2 0x29FE JUMPI PUSH1 0x40 MLOAD PUSH32 0xAB143C0600000000000000000000000000000000000000000000000000000000 DUP2 MSTORE PUSH1 0x4 ADD PUSH1 0x40 MLOAD DUP1 SWAP2 SUB SWAP1 REVERT JUMPDEST PUSH1 0x1 PUSH1 0x5 PUSH0 PUSH2 0x100 EXP DUP2 SLOAD DUP2 PUSH1 0xFF MUL NOT AND SWAP1 DUP4 ISZERO ISZERO MUL OR SWAP1 SSTORE POP JUMP JUMPDEST PUSH0 PUSH1 0x1 PUSH0 DUP4 PUSH20 0xFFFFFFFFFFFFFFFFFFFFFFFFFFFFFFFFFFFFFFFF AND PUSH20 0xFFFFFFFFFFFFFFFFFFFFFFFFFFFFFFFFFFFFFFFF AND DUP2 MSTORE PUSH1 0x20 ADD SWAP1 DUP2 MSTORE PUSH1 0x20 ADD PUSH0 KECCAK256 PUSH1 0x40 MLOAD DUP1 PUSH1 0x40 ADD PUSH1 0x40 MSTORE SWAP1 DUP2 PUSH0 DUP3 ADD PUSH0 SWAP1 SLOAD SWAP1 PUSH2 0x100 EXP SWAP1 DIV PUSH20 0xFFFFFFFFFFFFFFFFFFFFFFFFFFFFFFFFFFFFFFFF AND PUSH20 0xFFFFFFFFFFFFFFFFFFFFFFFFFFFFFFFFFFFFFFFF AND PUSH20 0xFFFFFFFFFFFFFFFFFFFFFFFFFFFFFFFFFFFFFFFF AND DUP2 MSTORE PUSH1 0x20 ADD PUSH0 DUP3 ADD PUSH1 0x14 SWAP1 SLOAD SWAP1 PUSH2 0x100 EXP SWAP1 DIV PUSH1 0xFF AND ISZERO ISZERO ISZERO ISZERO DUP2 MSTORE POP POP SWAP1 POP DUP1 PUSH1 0x20 ADD MLOAD PUSH2 0x2B19 JUMPI DUP2 PUSH1 0x40 MLOAD PUSH32 0xFC9274AD00000000000000000000000000000000000000000000000000000000 DUP2 MSTORE PUSH1 0x4 ADD PUSH2 0x2B10 SWAP2 SWAP1 PUSH2 0x415F JUMP JUMPDEST PUSH1 0x40 MLOAD DUP1 SWAP2 SUB SWAP1 REVERT JUMPDEST POP POP JUMP JUMPDEST PUSH32 0x0 DUP2 GT ISZERO PUSH2 0x2BA4 JUMPI DUP1 PUSH32 0x0 PUSH1 0x40 MLOAD PUSH32 0x16D0EF100000000000000000000000000000000000000000000000000000000 DUP2 MSTORE PUSH1 0x4 ADD PUSH2 0x2B9B SWAP3 SWAP2 SWAP1 PUSH2 0x4321 JUMP JUMPDEST PUSH1 0x40 MLOAD DUP1 SWAP2 SUB SWAP1 REVERT JUMPDEST POP JUMP JUMPDEST PUSH0 PUSH0 PUSH1 0x5 PUSH1 0x1 SWAP1 SLOAD SWAP1 PUSH2 0x100 EXP SWAP1 DIV PUSH20 0xFFFFFFFFFFFFFFFFFFFFFFFFFFFFFFFFFFFFFFFF AND PUSH20 0xFFFFFFFFFFFFFFFFFFFFFFFFFFFFFFFFFFFFFFFF AND PUSH4 0x1F00CA74 DUP6 DUP6 PUSH1 0x40 MLOAD DUP4 PUSH4 0xFFFFFFFF AND PUSH1 0xE0 SHL DUP2 MSTORE PUSH1 0x4 ADD PUSH2 0x2C06 SWAP3 SWAP2 SWAP1 PUSH2 0x47DE JUMP JUMPDEST PUSH0 PUSH1 0x40 MLOAD DUP1 DUP4 SUB DUP2 DUP7 GAS STATICCALL ISZERO DUP1 ISZERO PUSH2 0x2C20 JUMPI RETURNDATASIZE PUSH0 PUSH0 RETURNDATACOPY RETURNDATASIZE PUSH0 REVERT JUMPDEST POP POP POP POP PUSH1 0x40 MLOAD RETURNDATASIZE PUSH0 DUP3 RETURNDATACOPY RETURNDATASIZE PUSH1 0x1F NOT PUSH1 0x1F DUP3 ADD AND DUP3 ADD DUP1 PUSH1 0x40 MSTORE POP DUP2 ADD SWAP1 PUSH2 0x2C48 SWAP2 SWAP1 PUSH2 0x4685 JUMP JUMPDEST SWAP1 POP DUP1 PUSH0 DUP2 MLOAD DUP2 LT PUSH2 0x2C5D JUMPI PUSH2 0x2C5C PUSH2 0x46CC JUMP JUMPDEST JUMPDEST PUSH1 0x20 MUL PUSH1 0x20 ADD ADD MLOAD SWAP2 POP POP SWAP3 SWAP2 POP POP JUMP JUMPDEST PUSH2 0x2C7A DUP4 DUP4 DUP4 PUSH0 PUSH2 0x3C0E JUMP JUMPDEST PUSH2 0x2D1B JUMPI PUSH2 0x2C8B DUP4 DUP4 PUSH0 PUSH1 0x1 PUSH2 0x3C0E JUMP JUMPDEST PUSH2 0x2CCC JUMPI DUP3 PUSH1 0x40 MLOAD PUSH32 0x5274AFE700000000000000000000000000000000000000000000000000000000 DUP2 MSTORE PUSH1 0x4 ADD PUSH2 0x2CC3 SWAP2 SWAP1 PUSH2 0x415F JUMP JUMPDEST PUSH1 0x40 MLOAD DUP1 SWAP2 SUB SWAP1 REVERT JUMPDEST PUSH2 0x2CD9 DUP4 DUP4 DUP4 PUSH1 0x1 PUSH2 0x3C0E JUMP JUMPDEST PUSH2 0x2D1A JUMPI DUP3 PUSH1 0x40 MLOAD PUSH32 0x5274AFE700000000000000000000000000000000000000000000000000000000 DUP2 MSTORE PUSH1 0x4 ADD PUSH2 0x2D11 SWAP2 SWAP1 PUSH2 0x415F JUMP JUMPDEST PUSH1 0x40 MLOAD DUP1 SWAP2 SUB SWAP1 REVERT JUMPDEST JUMPDEST POP POP POP JUMP JUMPDEST PUSH0 PUSH1 0x5 PUSH0 PUSH2 0x100 EXP DUP2 SLOAD DUP2 PUSH1 0xFF MUL NOT AND SWAP1 DUP4 ISZERO ISZERO MUL OR SWAP1 SSTORE POP JUMP JUMPDEST PUSH0 PUSH2 0x2D46 DUP4 DUP4 PUSH2 0x12D8 JUMP JUMPDEST PUSH2 0x2E1A JUMPI PUSH1 0x1 PUSH0 PUSH0 DUP6 DUP2 MSTORE PUSH1 0x20 ADD SWAP1 DUP2 MSTORE PUSH1 0x20 ADD PUSH0 KECCAK256 PUSH0 ADD PUSH0 DUP5 PUSH20 0xFFFFFFFFFFFFFFFFFFFFFFFFFFFFFFFFFFFFFFFF AND PUSH20 0xFFFFFFFFFFFFFFFFFFFFFFFFFFFFFFFFFFFFFFFF AND DUP2 MSTORE PUSH1 0x20 ADD SWAP1 DUP2 MSTORE PUSH1 0x20 ADD PUSH0 KECCAK256 PUSH0 PUSH2 0x100 EXP DUP2 SLOAD DUP2 PUSH1 0xFF MUL NOT AND SWAP1 DUP4 ISZERO ISZERO MUL OR SWAP1 SSTORE POP PUSH2 0x2DB7 PUSH2 0x32B2 JUMP JUMPDEST PUSH20 0xFFFFFFFFFFFFFFFFFFFFFFFFFFFFFFFFFFFFFFFF AND DUP3 PUSH20 0xFFFFFFFFFFFFFFFFFFFFFFFFFFFFFFFFFFFFFFFF AND DUP5 PUSH32 0x2F8788117E7EFF1D82E926EC794901D17C78024A50270940304540A733656F0D PUSH1 0x40 MLOAD PUSH1 0x40 MLOAD DUP1 SWAP2 SUB SWAP1 LOG4 PUSH1 0x1 SWAP1 POP PUSH2 0x2E1E JUMP JUMPDEST PUSH0 SWAP1 POP JUMPDEST SWAP3 SWAP2 POP POP JUMP JUMPDEST PUSH0 PUSH0 PUSH1 0x1 PUSH0 DUP6 PUSH20 0xFFFFFFFFFFFFFFFFFFFFFFFFFFFFFFFFFFFFFFFF AND PUSH20 0xFFFFFFFFFFFFFFFFFFFFFFFFFFFFFFFFFFFFFFFF AND DUP2 MSTORE PUSH1 0x20 ADD SWAP1 DUP2 MSTORE PUSH1 0x20 ADD PUSH0 KECCAK256 PUSH0 ADD PUSH0 SWAP1 SLOAD SWAP1 PUSH2 0x100 EXP SWAP1 DIV PUSH20 0xFFFFFFFFFFFFFFFFFFFFFFFFFFFFFFFFFFFFFFFF AND SWAP1 POP PUSH0 PUSH20 0xFFFFFFFFFFFFFFFFFFFFFFFFFFFFFFFFFFFFFFFF AND DUP2 PUSH20 0xFFFFFFFFFFFFFFFFFFFFFFFFFFFFFFFFFFFFFFFF AND SUB PUSH2 0x2EF7 JUMPI DUP4 PUSH1 0x40 MLOAD PUSH32 0x102AF74A00000000000000000000000000000000000000000000000000000000 DUP2 MSTORE PUSH1 0x4 ADD PUSH2 0x2EEE SWAP2 SWAP1 PUSH2 0x415F JUMP JUMPDEST PUSH1 0x40 MLOAD DUP1 SWAP2 SUB SWAP1 REVERT JUMPDEST PUSH0 DUP2 PUSH20 0xFFFFFFFFFFFFFFFFFFFFFFFFFFFFFFFFFFFFFFFF AND PUSH4 0xFEAF968C PUSH1 0x40 MLOAD DUP2 PUSH4 0xFFFFFFFF AND PUSH1 0xE0 SHL DUP2 MSTORE PUSH1 0x4 ADD PUSH1 0xA0 PUSH1 0x40 MLOAD DUP1 DUP4 SUB DUP2 DUP7 GAS STATICCALL ISZERO DUP1 ISZERO PUSH2 0x2F41 JUMPI RETURNDATASIZE PUSH0 PUSH0 RETURNDATACOPY RETURNDATASIZE PUSH0 REVERT JUMPDEST POP POP POP POP PUSH1 0x40 MLOAD RETURNDATASIZE PUSH1 0x1F NOT PUSH1 0x1F DUP3 ADD AND DUP3 ADD DUP1 PUSH1 0x40 MSTORE POP DUP2 ADD SWAP1 PUSH2 0x2F65 SWAP2 SWAP1 PUSH2 0x487E JUMP JUMPDEST POP POP POP SWAP2 POP POP PUSH0 DUP3 PUSH20 0xFFFFFFFFFFFFFFFFFFFFFFFFFFFFFFFFFFFFFFFF AND PUSH4 0x313CE567 PUSH1 0x40 MLOAD DUP2 PUSH4 0xFFFFFFFF AND PUSH1 0xE0 SHL DUP2 MSTORE PUSH1 0x4 ADD PUSH1 0x20 PUSH1 0x40 MLOAD DUP1 DUP4 SUB DUP2 DUP7 GAS STATICCALL ISZERO DUP1 ISZERO PUSH2 0x2FB5 JUMPI RETURNDATASIZE PUSH0 PUSH0 RETURNDATACOPY RETURNDATASIZE PUSH0 REVERT JUMPDEST POP POP POP POP PUSH1 0x40 MLOAD RETURNDATASIZE PUSH1 0x1F NOT PUSH1 0x1F DUP3 ADD AND DUP3 ADD DUP1 PUSH1 0x40 MSTORE POP DUP2 ADD SWAP1 PUSH2 0x2FD9 SWAP2 SWAP1 PUSH2 0x492B JUMP JUMPDEST SWAP1 POP PUSH0 DUP7 PUSH20 0xFFFFFFFFFFFFFFFFFFFFFFFFFFFFFFFFFFFFFFFF AND PUSH4 0x313CE567 PUSH1 0x40 MLOAD DUP2 PUSH4 0xFFFFFFFF AND PUSH1 0xE0 SHL DUP2 MSTORE PUSH1 0x4 ADD PUSH1 0x20 PUSH1 0x40 MLOAD DUP1 DUP4 SUB DUP2 DUP7 GAS STATICCALL ISZERO DUP1 ISZERO PUSH2 0x3025 JUMPI RETURNDATASIZE PUSH0 PUSH0 RETURNDATACOPY RETURNDATASIZE PUSH0 REVERT JUMPDEST POP POP POP POP PUSH1 0x40 MLOAD RETURNDATASIZE PUSH1 0x1F NOT PUSH1 0x1F DUP3 ADD AND DUP3 ADD DUP1 PUSH1 0x40 MSTORE POP DUP2 ADD SWAP1 PUSH2 0x3049 SWAP2 SWAP1 PUSH2 0x492B JUMP JUMPDEST SWAP1 POP PUSH0 PUSH1 0x6 SWAP1 POP PUSH0 PUSH2 0x305B DUP9 DUP5 PUSH2 0x3C70 JUMP JUMPDEST SWAP1 POP DUP2 PUSH1 0xFF AND DUP5 PUSH1 0xFF AND GT ISZERO PUSH2 0x30A6 JUMPI DUP2 DUP5 PUSH2 0x3077 SWAP2 SWAP1 PUSH2 0x4956 JUMP JUMPDEST PUSH1 0xA PUSH2 0x3083 SWAP2 SWAP1 PUSH2 0x4AB9 JUMP JUMPDEST DUP6 DUP3 PUSH2 0x308F SWAP2 SWAP1 PUSH2 0x4B03 JUMP JUMPDEST PUSH2 0x3099 SWAP2 SWAP1 PUSH2 0x4B71 JUMP JUMPDEST SWAP7 POP POP POP POP POP POP POP PUSH2 0x30DD JUMP JUMPDEST DUP4 DUP3 PUSH2 0x30B2 SWAP2 SWAP1 PUSH2 0x4956 JUMP JUMPDEST PUSH1 0xA PUSH2 0x30BE SWAP2 SWAP1 PUSH2 0x4AB9 JUMP JUMPDEST DUP6 DUP3 PUSH2 0x30CA SWAP2 SWAP1 PUSH2 0x4B03 JUMP JUMPDEST PUSH2 0x30D4 SWAP2 SWAP1 PUSH2 0x4B03 JUMP JUMPDEST SWAP7 POP POP POP POP POP POP POP JUMPDEST SWAP3 SWAP2 POP POP JUMP JUMPDEST DUP1 DUP3 PUSH32 0x0 PUSH2 0x3111 DUP4 DUP4 DUP4 PUSH2 0x3B5F JUMP JUMPDEST PUSH2 0x313E CALLER ADDRESS DUP9 DUP11 PUSH20 0xFFFFFFFFFFFFFFFFFFFFFFFFFFFFFFFFFFFFFFFF AND PUSH2 0x3981 SWAP1 SWAP4 SWAP3 SWAP2 SWAP1 PUSH4 0xFFFFFFFF AND JUMP JUMPDEST DUP5 PUSH1 0x2 PUSH0 DUP10 PUSH20 0xFFFFFFFFFFFFFFFFFFFFFFFFFFFFFFFFFFFFFFFF AND PUSH20 0xFFFFFFFFFFFFFFFFFFFFFFFFFFFFFFFFFFFFFFFF AND DUP2 MSTORE PUSH1 0x20 ADD SWAP1 DUP2 MSTORE PUSH1 0x20 ADD PUSH0 KECCAK256 PUSH0 CALLER PUSH20 0xFFFFFFFFFFFFFFFFFFFFFFFFFFFFFFFFFFFFFFFF AND PUSH20 0xFFFFFFFFFFFFFFFFFFFFFFFFFFFFFFFFFFFFFFFF AND DUP2 MSTORE PUSH1 0x20 ADD SWAP1 DUP2 MSTORE PUSH1 0x20 ADD PUSH0 KECCAK256 PUSH0 DUP3 DUP3 SLOAD PUSH2 0x31C5 SWAP2 SWAP1 PUSH2 0x43DF JUMP JUMPDEST SWAP3 POP POP DUP2 SWAP1 SSTORE POP DUP5 DUP5 PUSH2 0x31D8 SWAP2 SWAP1 PUSH2 0x43DF JUMP JUMPDEST PUSH1 0x4 DUP2 SWAP1 SSTORE POP PUSH1 0x3 PUSH0 DUP2 DUP2 SWAP1 SLOAD SWAP1 PUSH2 0x100 EXP SWAP1 DIV PUSH16 0xFFFFFFFFFFFFFFFFFFFFFFFFFFFFFFFF AND DUP1 SWAP3 SWAP2 SWAP1 PUSH2 0x320B SWAP1 PUSH2 0x43A8 JUMP JUMPDEST SWAP2 SWAP1 PUSH2 0x100 EXP DUP2 SLOAD DUP2 PUSH16 0xFFFFFFFFFFFFFFFFFFFFFFFFFFFFFFFF MUL NOT AND SWAP1 DUP4 PUSH16 0xFFFFFFFFFFFFFFFFFFFFFFFFFFFFFFFF AND MUL OR SWAP1 SSTORE POP POP DUP7 PUSH20 0xFFFFFFFFFFFFFFFFFFFFFFFFFFFFFFFFFFFFFFFF AND CALLER PUSH20 0xFFFFFFFFFFFFFFFFFFFFFFFFFFFFFFFFFFFFFFFF AND PUSH32 0x2477EFAA2078646ED96208B3A82A5F9060626D5E24DC26822C478F6ED8339390 DUP9 DUP9 PUSH1 0x40 MLOAD PUSH2 0x32A1 SWAP3 SWAP2 SWAP1 PUSH2 0x4321 JUMP JUMPDEST PUSH1 0x40 MLOAD DUP1 SWAP2 SUB SWAP1 LOG3 POP POP POP POP POP POP POP JUMP JUMPDEST PUSH0 CALLER SWAP1 POP SWAP1 JUMP JUMPDEST PUSH0 PUSH2 0x32C4 DUP4 DUP4 PUSH2 0x12D8 JUMP JUMPDEST ISZERO PUSH2 0x3398 JUMPI PUSH0 PUSH0 PUSH0 DUP6 DUP2 MSTORE PUSH1 0x20 ADD SWAP1 DUP2 MSTORE PUSH1 0x20 ADD PUSH0 KECCAK256 PUSH0 ADD PUSH0 DUP5 PUSH20 0xFFFFFFFFFFFFFFFFFFFFFFFFFFFFFFFFFFFFFFFF AND PUSH20 0xFFFFFFFFFFFFFFFFFFFFFFFFFFFFFFFFFFFFFFFF AND DUP2 MSTORE PUSH1 0x20 ADD SWAP1 DUP2 MSTORE PUSH1 0x20 ADD PUSH0 KECCAK256 PUSH0 PUSH2 0x100 EXP DUP2 SLOAD DUP2 PUSH1 0xFF MUL NOT AND SWAP1 DUP4 ISZERO ISZERO MUL OR SWAP1 SSTORE POP PUSH2 0x3335 PUSH2 0x32B2 JUMP JUMPDEST PUSH20 0xFFFFFFFFFFFFFFFFFFFFFFFFFFFFFFFFFFFFFFFF AND DUP3 PUSH20 0xFFFFFFFFFFFFFFFFFFFFFFFFFFFFFFFFFFFFFFFF AND DUP5 PUSH32 0xF6391F5C32D9C69D2A47EA670B442974B53935D1EDC7FD64EB21E047A839171B PUSH1 0x40 MLOAD PUSH1 0x40 MLOAD DUP1 SWAP2 SUB SWAP1 LOG4 PUSH1 0x1 SWAP1 POP PUSH2 0x339C JUMP JUMPDEST PUSH0 SWAP1 POP JUMPDEST SWAP3 SWAP2 POP POP JUMP JUMPDEST PUSH0 PUSH0 PUSH32 0x0 PUSH20 0xFFFFFFFFFFFFFFFFFFFFFFFFFFFFFFFFFFFFFFFF AND PUSH4 0xFEAF968C PUSH1 0x40 MLOAD DUP2 PUSH4 0xFFFFFFFF AND PUSH1 0xE0 SHL DUP2 MSTORE PUSH1 0x4 ADD PUSH1 0xA0 PUSH1 0x40 MLOAD DUP1 DUP4 SUB DUP2 DUP7 GAS STATICCALL ISZERO DUP1 ISZERO PUSH2 0x340D JUMPI RETURNDATASIZE PUSH0 PUSH0 RETURNDATACOPY RETURNDATASIZE PUSH0 REVERT JUMPDEST POP POP POP POP PUSH1 0x40 MLOAD RETURNDATASIZE PUSH1 0x1F NOT PUSH1 0x1F DUP3 ADD AND DUP3 ADD DUP1 PUSH1 0x40 MSTORE POP DUP2 ADD SWAP1 PUSH2 0x3431 SWAP2 SWAP1 PUSH2 0x487E JUMP JUMPDEST POP POP POP SWAP2 POP POP PUSH0 PUSH32 0x0 PUSH20 0xFFFFFFFFFFFFFFFFFFFFFFFFFFFFFFFFFFFFFFFF AND PUSH4 0x313CE567 PUSH1 0x40 MLOAD DUP2 PUSH4 0xFFFFFFFF AND PUSH1 0xE0 SHL DUP2 MSTORE PUSH1 0x4 ADD PUSH1 0x20 PUSH1 0x40 MLOAD DUP1 DUP4 SUB DUP2 DUP7 GAS STATICCALL ISZERO DUP1 ISZERO PUSH2 0x34A1 JUMPI RETURNDATASIZE PUSH0 PUSH0 RETURNDATACOPY RETURNDATASIZE PUSH0 REVERT JUMPDEST POP POP POP POP PUSH1 0x40 MLOAD RETURNDATASIZE PUSH1 0x1F NOT PUSH1 0x1F DUP3 ADD AND DUP3 ADD DUP1 PUSH1 0x40 MSTORE POP DUP2 ADD SWAP1 PUSH2 0x34C5 SWAP2 SWAP1 PUSH2 0x492B JUMP JUMPDEST SWAP1 POP PUSH0 PUSH1 0x6 SWAP1 POP PUSH0 PUSH8 0xDE0B6B3A7640000 DUP5 DUP8 PUSH2 0x34E2 SWAP2 SWAP1 PUSH2 0x4B03 JUMP JUMPDEST PUSH2 0x34EC SWAP2 SWAP1 PUSH2 0x4B71 JUMP JUMPDEST SWAP1 POP DUP2 PUSH1 0xFF AND DUP4 PUSH1 0xFF AND GT ISZERO PUSH2 0x352A JUMPI DUP2 DUP4 PUSH2 0x3508 SWAP2 SWAP1 PUSH2 0x4956 JUMP JUMPDEST PUSH1 0xA PUSH2 0x3514 SWAP2 SWAP1 PUSH2 0x4AB9 JUMP JUMPDEST DUP2 PUSH2 0x351F SWAP2 SWAP1 PUSH2 0x4B71 JUMP JUMPDEST SWAP5 POP POP POP POP POP PUSH2 0x3554 JUMP JUMPDEST DUP3 DUP3 PUSH2 0x3536 SWAP2 SWAP1 PUSH2 0x4956 JUMP JUMPDEST PUSH1 0xA PUSH2 0x3542 SWAP2 SWAP1 PUSH2 0x4AB9 JUMP JUMPDEST DUP2 PUSH2 0x354D SWAP2 SWAP1 PUSH2 0x4B03 JUMP JUMPDEST SWAP5 POP POP POP POP POP JUMPDEST SWAP2 SWAP1 POP JUMP JUMPDEST DUP3 DUP3 LT ISZERO PUSH2 0x35A0 JUMPI DUP2 DUP4 PUSH1 0x40 MLOAD PUSH32 0xCF47918100000000000000000000000000000000000000000000000000000000 DUP2 MSTORE PUSH1 0x4 ADD PUSH2 0x3597 SWAP3 SWAP2 SWAP1 PUSH2 0x4321 JUMP JUMPDEST PUSH1 0x40 MLOAD DUP1 SWAP2 SUB SWAP1 REVERT JUMPDEST DUP3 DUP3 PUSH2 0x35AC SWAP2 SWAP1 PUSH2 0x4375 JUMP JUMPDEST PUSH1 0x2 PUSH0 PUSH0 PUSH20 0xFFFFFFFFFFFFFFFFFFFFFFFFFFFFFFFFFFFFFFFF AND PUSH20 0xFFFFFFFFFFFFFFFFFFFFFFFFFFFFFFFFFFFFFFFF AND DUP2 MSTORE PUSH1 0x20 ADD SWAP1 DUP2 MSTORE PUSH1 0x20 ADD PUSH0 KECCAK256 PUSH0 CALLER PUSH20 0xFFFFFFFFFFFFFFFFFFFFFFFFFFFFFFFFFFFFFFFF AND PUSH20 0xFFFFFFFFFFFFFFFFFFFFFFFFFFFFFFFFFFFFFFFF AND DUP2 MSTORE PUSH1 0x20 ADD SWAP1 DUP2 MSTORE PUSH1 0x20 ADD PUSH0 KECCAK256 DUP2 SWAP1 SSTORE POP DUP3 DUP2 PUSH2 0x3634 SWAP2 SWAP1 PUSH2 0x4375 JUMP JUMPDEST PUSH1 0x4 DUP2 SWAP1 SSTORE POP PUSH1 0x3 PUSH1 0x10 DUP2 DUP2 SWAP1 SLOAD SWAP1 PUSH2 0x100 EXP SWAP1 DIV PUSH16 0xFFFFFFFFFFFFFFFFFFFFFFFFFFFFFFFF AND DUP1 SWAP3 SWAP2 SWAP1 PUSH2 0x3668 SWAP1 PUSH2 0x43A8 JUMP JUMPDEST SWAP2 SWAP1 PUSH2 0x100 EXP DUP2 SLOAD DUP2 PUSH16 0xFFFFFFFFFFFFFFFFFFFFFFFFFFFFFFFF MUL NOT AND SWAP1 DUP4 PUSH16 0xFFFFFFFFFFFFFFFFFFFFFFFFFFFFFFFF AND MUL OR SWAP1 SSTORE POP POP PUSH0 CALLER PUSH20 0xFFFFFFFFFFFFFFFFFFFFFFFFFFFFFFFFFFFFFFFF AND DUP6 PUSH1 0x40 MLOAD PUSH2 0x36C4 SWAP1 PUSH2 0x4BCE JUMP JUMPDEST PUSH0 PUSH1 0x40 MLOAD DUP1 DUP4 SUB DUP2 DUP6 DUP8 GAS CALL SWAP3 POP POP POP RETURNDATASIZE DUP1 PUSH0 DUP2 EQ PUSH2 0x36FE JUMPI PUSH1 0x40 MLOAD SWAP2 POP PUSH1 0x1F NOT PUSH1 0x3F RETURNDATASIZE ADD AND DUP3 ADD PUSH1 0x40 MSTORE RETURNDATASIZE DUP3 MSTORE RETURNDATASIZE PUSH0 PUSH1 0x20 DUP5 ADD RETURNDATACOPY PUSH2 0x3703 JUMP JUMPDEST PUSH1 0x60 SWAP2 POP JUMPDEST POP POP SWAP1 POP DUP1 PUSH2 0x374B JUMPI CALLER DUP6 PUSH1 0x40 MLOAD PUSH32 0x1C43B97600000000000000000000000000000000000000000000000000000000 DUP2 MSTORE PUSH1 0x4 ADD PUSH2 0x3742 SWAP3 SWAP2 SWAP1 PUSH2 0x46F9 JUMP JUMPDEST PUSH1 0x40 MLOAD DUP1 SWAP2 SUB SWAP1 REVERT JUMPDEST CALLER PUSH20 0xFFFFFFFFFFFFFFFFFFFFFFFFFFFFFFFFFFFFFFFF AND PUSH32 0x752E8DE6C42BE507958F1221BC18B53FFBAE06D588FDF270BAF984151F10AC89 DUP7 DUP7 PUSH1 0x40 MLOAD PUSH2 0x3793 SWAP3 SWAP2 SWAP1 PUSH2 0x4321 JUMP JUMPDEST PUSH1 0x40 MLOAD DUP1 SWAP2 SUB SWAP1 LOG2 POP POP POP POP POP JUMP JUMPDEST DUP3 DUP3 LT ISZERO PUSH2 0x37E9 JUMPI DUP2 DUP4 PUSH1 0x40 MLOAD PUSH32 0xCF47918100000000000000000000000000000000000000000000000000000000 DUP2 MSTORE PUSH1 0x4 ADD PUSH2 0x37E0 SWAP3 SWAP2 SWAP1 PUSH2 0x4321 JUMP JUMPDEST PUSH1 0x40 MLOAD DUP1 SWAP2 SUB SWAP1 REVERT JUMPDEST DUP3 DUP3 PUSH2 0x37F5 SWAP2 SWAP1 PUSH2 0x4375 JUMP JUMPDEST PUSH1 0x2 PUSH0 DUP8 PUSH20 0xFFFFFFFFFFFFFFFFFFFFFFFFFFFFFFFFFFFFFFFF AND PUSH20 0xFFFFFFFFFFFFFFFFFFFFFFFFFFFFFFFFFFFFFFFF AND DUP2 MSTORE PUSH1 0x20 ADD SWAP1 DUP2 MSTORE PUSH1 0x20 ADD PUSH0 KECCAK256 PUSH0 CALLER PUSH20 0xFFFFFFFFFFFFFFFFFFFFFFFFFFFFFFFFFFFFFFFF AND PUSH20 0xFFFFFFFFFFFFFFFFFFFFFFFFFFFFFFFFFFFFFFFF AND DUP2 MSTORE PUSH1 0x20 ADD SWAP1 DUP2 MSTORE PUSH1 0x20 ADD PUSH0 KECCAK256 DUP2 SWAP1 SSTORE POP DUP3 DUP2 PUSH2 0x387D SWAP2 SWAP1 PUSH2 0x4375 JUMP JUMPDEST PUSH1 0x4 DUP2 SWAP1 SSTORE POP PUSH1 0x3 PUSH1 0x10 DUP2 DUP2 SWAP1 SLOAD SWAP1 PUSH2 0x100 EXP SWAP1 DIV PUSH16 0xFFFFFFFFFFFFFFFFFFFFFFFFFFFFFFFF AND DUP1 SWAP3 SWAP2 SWAP1 PUSH2 0x38B1 SWAP1 PUSH2 0x43A8 JUMP JUMPDEST SWAP2 SWAP1 PUSH2 0x100 EXP DUP2 SLOAD DUP2 PUSH16 0xFFFFFFFFFFFFFFFFFFFFFFFFFFFFFFFF MUL NOT AND SWAP1 DUP4 PUSH16 0xFFFFFFFFFFFFFFFFFFFFFFFFFFFFFFFF AND MUL OR SWAP1 SSTORE POP POP PUSH2 0x3913 CALLER DUP6 DUP8 PUSH20 0xFFFFFFFFFFFFFFFFFFFFFFFFFFFFFFFFFFFFFFFF AND PUSH2 0x3CCC SWAP1 SWAP3 SWAP2 SWAP1 PUSH4 0xFFFFFFFF AND JUMP JUMPDEST DUP5 PUSH20 0xFFFFFFFFFFFFFFFFFFFFFFFFFFFFFFFFFFFFFFFF AND CALLER PUSH20 0xFFFFFFFFFFFFFFFFFFFFFFFFFFFFFFFFFFFFFFFF AND PUSH32 0x46E3914609F56E27776F6122593FC426FC2B2D4FC135AAA9EB14B15BF077A62A DUP7 DUP7 PUSH1 0x40 MLOAD PUSH2 0x3972 SWAP3 SWAP2 SWAP1 PUSH2 0x4321 JUMP JUMPDEST PUSH1 0x40 MLOAD DUP1 SWAP2 SUB SWAP1 LOG3 POP POP POP POP POP JUMP JUMPDEST PUSH2 0x398F DUP5 DUP5 DUP5 DUP5 PUSH1 0x1 PUSH2 0x3D1F JUMP JUMPDEST PUSH2 0x39D0 JUMPI DUP4 PUSH1 0x40 MLOAD PUSH32 0x5274AFE700000000000000000000000000000000000000000000000000000000 DUP2 MSTORE PUSH1 0x4 ADD PUSH2 0x39C7 SWAP2 SWAP1 PUSH2 0x415F JUMP JUMPDEST PUSH1 0x40 MLOAD DUP1 SWAP2 SUB SWAP1 REVERT JUMPDEST POP POP POP POP JUMP JUMPDEST DUP1 DUP3 PUSH32 0x0 PUSH2 0x3A04 DUP4 DUP4 DUP4 PUSH2 0x3B5F JUMP JUMPDEST DUP5 PUSH1 0x2 PUSH0 PUSH0 PUSH20 0xFFFFFFFFFFFFFFFFFFFFFFFFFFFFFFFFFFFFFFFF AND PUSH20 0xFFFFFFFFFFFFFFFFFFFFFFFFFFFFFFFFFFFFFFFF AND DUP2 MSTORE PUSH1 0x20 ADD SWAP1 DUP2 MSTORE PUSH1 0x20 ADD PUSH0 KECCAK256 PUSH0 CALLER PUSH20 0xFFFFFFFFFFFFFFFFFFFFFFFFFFFFFFFFFFFFFFFF AND PUSH20 0xFFFFFFFFFFFFFFFFFFFFFFFFFFFFFFFFFFFFFFFF AND DUP2 MSTORE PUSH1 0x20 ADD SWAP1 DUP2 MSTORE PUSH1 0x20 ADD PUSH0 KECCAK256 PUSH0 DUP3 DUP3 SLOAD PUSH2 0x3A8B SWAP2 SWAP1 PUSH2 0x43DF JUMP JUMPDEST SWAP3 POP POP DUP2 SWAP1 SSTORE POP DUP5 DUP5 PUSH2 0x3A9E SWAP2 SWAP1 PUSH2 0x43DF JUMP JUMPDEST PUSH1 0x4 DUP2 SWAP1 SSTORE POP PUSH1 0x3 PUSH0 DUP2 DUP2 SWAP1 SLOAD SWAP1 PUSH2 0x100 EXP SWAP1 DIV PUSH16 0xFFFFFFFFFFFFFFFFFFFFFFFFFFFFFFFF AND DUP1 SWAP3 SWAP2 SWAP1 PUSH2 0x3AD1 SWAP1 PUSH2 0x43A8 JUMP JUMPDEST SWAP2 SWAP1 PUSH2 0x100 EXP DUP2 SLOAD DUP2 PUSH16 0xFFFFFFFFFFFFFFFFFFFFFFFFFFFFFFFF MUL NOT AND SWAP1 DUP4 PUSH16 0xFFFFFFFFFFFFFFFFFFFFFFFFFFFFFFFF AND MUL OR SWAP1 SSTORE POP POP CALLER PUSH20 0xFFFFFFFFFFFFFFFFFFFFFFFFFFFFFFFFFFFFFFFF AND PUSH32 0x5D019A2A9281540CD9EEE8188BD4CC82B755DF607BC58C2FE35C8E34756F2A5B CALLVALUE DUP8 PUSH1 0x40 MLOAD PUSH2 0x3B50 SWAP3 SWAP2 SWAP1 PUSH2 0x4321 JUMP JUMPDEST PUSH1 0x40 MLOAD DUP1 SWAP2 SUB SWAP1 LOG2 POP POP POP POP POP JUMP JUMPDEST PUSH0 DUP3 DUP5 PUSH2 0x3B6C SWAP2 SWAP1 PUSH2 0x43DF JUMP JUMPDEST SWAP1 POP DUP2 DUP2 GT ISZERO PUSH2 0x3BB7 JUMPI DUP4 DUP4 DUP4 PUSH1 0x40 MLOAD PUSH32 0x621E5A6900000000000000000000000000000000000000000000000000000000 DUP2 MSTORE PUSH1 0x4 ADD PUSH2 0x3BAE SWAP4 SWAP3 SWAP2 SWAP1 PUSH2 0x4720 JUMP JUMPDEST PUSH1 0x40 MLOAD DUP1 SWAP2 SUB SWAP1 REVERT JUMPDEST POP POP POP POP JUMP JUMPDEST PUSH2 0x3BC7 DUP3 DUP3 PUSH2 0x12D8 JUMP JUMPDEST PUSH2 0x3C0A JUMPI DUP1 DUP3 PUSH1 0x40 MLOAD PUSH32 0xE2517D3F00000000000000000000000000000000000000000000000000000000 DUP2 MSTORE PUSH1 0x4 ADD PUSH2 0x3C01 SWAP3 SWAP2 SWAP1 PUSH2 0x4BE2 JUMP JUMPDEST PUSH1 0x40 MLOAD DUP1 SWAP2 SUB SWAP1 REVERT JUMPDEST POP POP JUMP JUMPDEST PUSH0 PUSH0 PUSH4 0x95EA7B3 PUSH1 0xE0 SHL SWAP1 POP PUSH1 0x40 MLOAD DUP2 PUSH0 MSTORE PUSH0 NOT PUSH1 0x60 SHR DUP7 AND PUSH1 0x4 MSTORE DUP5 PUSH1 0x24 MSTORE PUSH1 0x20 PUSH0 PUSH1 0x44 PUSH0 PUSH0 DUP12 GAS CALL SWAP3 POP PUSH1 0x1 PUSH0 MLOAD EQ DUP4 AND PUSH2 0x3C62 JUMPI DUP4 DUP4 ISZERO AND ISZERO PUSH2 0x3C56 JUMPI RETURNDATASIZE PUSH0 DUP3 RETURNDATACOPY RETURNDATASIZE DUP2 REVERT JUMPDEST PUSH0 DUP8 EXTCODESIZE GT RETURNDATASIZE ISZERO AND DUP4 AND SWAP3 POP JUMPDEST DUP1 PUSH1 0x40 MSTORE POP POP SWAP5 SWAP4 POP POP POP POP JUMP JUMPDEST PUSH0 PUSH1 0x6 PUSH1 0xFF AND DUP3 PUSH1 0xFF AND SUB PUSH2 0x3C87 JUMPI DUP3 SWAP1 POP PUSH2 0x3CC6 JUMP JUMPDEST PUSH1 0x6 PUSH1 0xFF AND DUP3 PUSH1 0xFF AND GT ISZERO PUSH2 0x3CB7 JUMPI PUSH1 0x6 DUP3 SUB PUSH1 0xFF AND PUSH1 0xA EXP DUP4 DUP2 PUSH2 0x3CAF JUMPI PUSH2 0x3CAE PUSH2 0x4B44 JUMP JUMPDEST JUMPDEST DIV SWAP1 POP PUSH2 0x3CC6 JUMP JUMPDEST DUP2 PUSH1 0x6 SUB PUSH1 0xFF AND PUSH1 0xA EXP DUP4 MUL SWAP1 POP JUMPDEST SWAP3 SWAP2 POP POP JUMP JUMPDEST PUSH2 0x3CD9 DUP4 DUP4 DUP4 PUSH1 0x1 PUSH2 0x3D90 JUMP JUMPDEST PUSH2 0x3D1A JUMPI DUP3 PUSH1 0x40 MLOAD PUSH32 0x5274AFE700000000000000000000000000000000000000000000000000000000 DUP2 MSTORE PUSH1 0x4 ADD PUSH2 0x3D11 SWAP2 SWAP1 PUSH2 0x415F JUMP JUMPDEST PUSH1 0x40 MLOAD DUP1 SWAP2 SUB SWAP1 REVERT JUMPDEST POP POP POP JUMP JUMPDEST PUSH0 PUSH0 PUSH4 0x23B872DD PUSH1 0xE0 SHL SWAP1 POP PUSH1 0x40 MLOAD DUP2 PUSH0 MSTORE PUSH0 NOT PUSH1 0x60 SHR DUP8 AND PUSH1 0x4 MSTORE PUSH0 NOT PUSH1 0x60 SHR DUP7 AND PUSH1 0x24 MSTORE DUP5 PUSH1 0x44 MSTORE PUSH1 0x20 PUSH0 PUSH1 0x64 PUSH0 PUSH0 DUP13 GAS CALL SWAP3 POP PUSH1 0x1 PUSH0 MLOAD EQ DUP4 AND PUSH2 0x3D7D JUMPI DUP4 DUP4 ISZERO AND ISZERO PUSH2 0x3D71 JUMPI RETURNDATASIZE PUSH0 DUP3 RETURNDATACOPY RETURNDATASIZE DUP2 REVERT JUMPDEST PUSH0 DUP9 EXTCODESIZE GT RETURNDATASIZE ISZERO AND DUP4 AND SWAP3 POP JUMPDEST DUP1 PUSH1 0x40 MSTORE PUSH0 PUSH1 0x60 MSTORE POP POP SWAP6 SWAP5 POP POP POP POP POP JUMP JUMPDEST PUSH0 PUSH0 PUSH4 0xA9059CBB PUSH1 0xE0 SHL SWAP1 POP PUSH1 0x40 MLOAD DUP2 PUSH0 MSTORE PUSH0 NOT PUSH1 0x60 SHR DUP7 AND PUSH1 0x4 MSTORE DUP5 PUSH1 0x24 MSTORE PUSH1 0x20 PUSH0 PUSH1 0x44 PUSH0 PUSH0 DUP12 GAS CALL SWAP3 POP PUSH1 0x1 PUSH0 MLOAD EQ DUP4 AND PUSH2 0x3DE4 JUMPI DUP4 DUP4 ISZERO AND ISZERO PUSH2 0x3DD8 JUMPI RETURNDATASIZE PUSH0 DUP3 RETURNDATACOPY RETURNDATASIZE DUP2 REVERT JUMPDEST PUSH0 DUP8 EXTCODESIZE GT RETURNDATASIZE ISZERO AND DUP4 AND SWAP3 POP JUMPDEST DUP1 PUSH1 0x40 MSTORE POP POP SWAP5 SWAP4 POP POP POP POP JUMP JUMPDEST PUSH0 PUSH1 0x40 MLOAD SWAP1 POP SWAP1 JUMP JUMPDEST PUSH0 PUSH0 REVERT JUMPDEST PUSH0 PUSH0 REVERT JUMPDEST PUSH0 PUSH32 0xFFFFFFFF00000000000000000000000000000000000000000000000000000000 DUP3 AND SWAP1 POP SWAP2 SWAP1 POP JUMP JUMPDEST PUSH2 0x3E37 DUP2 PUSH2 0x3E03 JUMP JUMPDEST DUP2 EQ PUSH2 0x3E41 JUMPI PUSH0 PUSH0 REVERT JUMPDEST POP JUMP JUMPDEST PUSH0 DUP2 CALLDATALOAD SWAP1 POP PUSH2 0x3E52 DUP2 PUSH2 0x3E2E JUMP JUMPDEST SWAP3 SWAP2 POP POP JUMP JUMPDEST PUSH0 PUSH1 0x20 DUP3 DUP5 SUB SLT ISZERO PUSH2 0x3E6D JUMPI PUSH2 0x3E6C PUSH2 0x3DFB JUMP JUMPDEST JUMPDEST PUSH0 PUSH2 0x3E7A DUP5 DUP3 DUP6 ADD PUSH2 0x3E44 JUMP JUMPDEST SWAP2 POP POP SWAP3 SWAP2 POP POP JUMP JUMPDEST PUSH0 DUP2 ISZERO ISZERO SWAP1 POP SWAP2 SWAP1 POP JUMP JUMPDEST PUSH2 0x3E97 DUP2 PUSH2 0x3E83 JUMP JUMPDEST DUP3 MSTORE POP POP JUMP JUMPDEST PUSH0 PUSH1 0x20 DUP3 ADD SWAP1 POP PUSH2 0x3EB0 PUSH0 DUP4 ADD DUP5 PUSH2 0x3E8E JUMP JUMPDEST SWAP3 SWAP2 POP POP JUMP JUMPDEST PUSH0 DUP2 SWAP1 POP SWAP2 SWAP1 POP JUMP JUMPDEST PUSH2 0x3EC8 DUP2 PUSH2 0x3EB6 JUMP JUMPDEST DUP3 MSTORE POP POP JUMP JUMPDEST PUSH0 PUSH1 0x20 DUP3 ADD SWAP1 POP PUSH2 0x3EE1 PUSH0 DUP4 ADD DUP5 PUSH2 0x3EBF JUMP JUMPDEST SWAP3 SWAP2 POP POP JUMP JUMPDEST PUSH0 PUSH20 0xFFFFFFFFFFFFFFFFFFFFFFFFFFFFFFFFFFFFFFFF DUP3 AND SWAP1 POP SWAP2 SWAP1 POP JUMP JUMPDEST PUSH0 PUSH2 0x3F10 DUP3 PUSH2 0x3EE7 JUMP JUMPDEST SWAP1 POP SWAP2 SWAP1 POP JUMP JUMPDEST PUSH2 0x3F20 DUP2 PUSH2 0x3F06 JUMP JUMPDEST DUP2 EQ PUSH2 0x3F2A JUMPI PUSH0 PUSH0 REVERT JUMPDEST POP JUMP JUMPDEST PUSH0 DUP2 CALLDATALOAD SWAP1 POP PUSH2 0x3F3B DUP2 PUSH2 0x3F17 JUMP JUMPDEST SWAP3 SWAP2 POP POP JUMP JUMPDEST PUSH2 0x3F4A DUP2 PUSH2 0x3E83 JUMP JUMPDEST DUP2 EQ PUSH2 0x3F54 JUMPI PUSH0 PUSH0 REVERT JUMPDEST POP JUMP JUMPDEST PUSH0 DUP2 CALLDATALOAD SWAP1 POP PUSH2 0x3F65 DUP2 PUSH2 0x3F41 JUMP JUMPDEST SWAP3 SWAP2 POP POP JUMP JUMPDEST PUSH0 PUSH0 PUSH0 PUSH1 0x60 DUP5 DUP7 SUB SLT ISZERO PUSH2 0x3F82 JUMPI PUSH2 0x3F81 PUSH2 0x3DFB JUMP JUMPDEST JUMPDEST PUSH0 PUSH2 0x3F8F DUP7 DUP3 DUP8 ADD PUSH2 0x3F2D JUMP JUMPDEST SWAP4 POP POP PUSH1 0x20 PUSH2 0x3FA0 DUP7 DUP3 DUP8 ADD PUSH2 0x3F2D JUMP JUMPDEST SWAP3 POP POP PUSH1 0x40 PUSH2 0x3FB1 DUP7 DUP3 DUP8 ADD PUSH2 0x3F57 JUMP JUMPDEST SWAP2 POP POP SWAP3 POP SWAP3 POP SWAP3 JUMP JUMPDEST PUSH2 0x3FC4 DUP2 PUSH2 0x3EB6 JUMP JUMPDEST DUP2 EQ PUSH2 0x3FCE JUMPI PUSH0 PUSH0 REVERT JUMPDEST POP JUMP JUMPDEST PUSH0 DUP2 CALLDATALOAD SWAP1 POP PUSH2 0x3FDF DUP2 PUSH2 0x3FBB JUMP JUMPDEST SWAP3 SWAP2 POP POP JUMP JUMPDEST PUSH0 PUSH1 0x20 DUP3 DUP5 SUB SLT ISZERO PUSH2 0x3FFA JUMPI PUSH2 0x3FF9 PUSH2 0x3DFB JUMP JUMPDEST JUMPDEST PUSH0 PUSH2 0x4007 DUP5 DUP3 DUP6 ADD PUSH2 0x3FD1 JUMP JUMPDEST SWAP2 POP POP SWAP3 SWAP2 POP POP JUMP JUMPDEST PUSH0 DUP2 SWAP1 POP SWAP2 SWAP1 POP JUMP JUMPDEST PUSH2 0x4022 DUP2 PUSH2 0x4010 JUMP JUMPDEST DUP2 EQ PUSH2 0x402C JUMPI PUSH0 PUSH0 REVERT JUMPDEST POP JUMP JUMPDEST PUSH0 DUP2 CALLDATALOAD SWAP1 POP PUSH2 0x403D DUP2 PUSH2 0x4019 JUMP JUMPDEST SWAP3 SWAP2 POP POP JUMP JUMPDEST PUSH0 PUSH1 0x20 DUP3 DUP5 SUB SLT ISZERO PUSH2 0x4058 JUMPI PUSH2 0x4057 PUSH2 0x3DFB JUMP JUMPDEST JUMPDEST PUSH0 PUSH2 0x4065 DUP5 DUP3 DUP6 ADD PUSH2 0x402F JUMP JUMPDEST SWAP2 POP POP SWAP3 SWAP2 POP POP JUMP JUMPDEST PUSH2 0x4077 DUP2 PUSH2 0x4010 JUMP JUMPDEST DUP3 MSTORE POP POP JUMP JUMPDEST PUSH0 PUSH1 0x20 DUP3 ADD SWAP1 POP PUSH2 0x4090 PUSH0 DUP4 ADD DUP5 PUSH2 0x406E JUMP JUMPDEST SWAP3 SWAP2 POP POP JUMP JUMPDEST PUSH0 PUSH0 PUSH1 0x40 DUP4 DUP6 SUB SLT ISZERO PUSH2 0x40AC JUMPI PUSH2 0x40AB PUSH2 0x3DFB JUMP JUMPDEST JUMPDEST PUSH0 PUSH2 0x40B9 DUP6 DUP3 DUP7 ADD PUSH2 0x3FD1 JUMP JUMPDEST SWAP3 POP POP PUSH1 0x20 PUSH2 0x40CA DUP6 DUP3 DUP7 ADD PUSH2 0x3FD1 JUMP JUMPDEST SWAP2 POP POP SWAP3 POP SWAP3 SWAP1 POP JUMP JUMPDEST PUSH0 PUSH0 PUSH1 0x40 DUP4 DUP6 SUB SLT ISZERO PUSH2 0x40EA JUMPI PUSH2 0x40E9 PUSH2 0x3DFB JUMP JUMPDEST JUMPDEST PUSH0 PUSH2 0x40F7 DUP6 DUP3 DUP7 ADD PUSH2 0x402F JUMP JUMPDEST SWAP3 POP POP PUSH1 0x20 PUSH2 0x4108 DUP6 DUP3 DUP7 ADD PUSH2 0x3F2D JUMP JUMPDEST SWAP2 POP POP SWAP3 POP SWAP3 SWAP1 POP JUMP JUMPDEST PUSH0 PUSH0 PUSH1 0x40 DUP4 DUP6 SUB SLT ISZERO PUSH2 0x4128 JUMPI PUSH2 0x4127 PUSH2 0x3DFB JUMP JUMPDEST JUMPDEST PUSH0 PUSH2 0x4135 DUP6 DUP3 DUP7 ADD PUSH2 0x3F2D JUMP JUMPDEST SWAP3 POP POP PUSH1 0x20 PUSH2 0x4146 DUP6 DUP3 DUP7 ADD PUSH2 0x3FD1 JUMP JUMPDEST SWAP2 POP POP SWAP3 POP SWAP3 SWAP1 POP JUMP JUMPDEST PUSH2 0x4159 DUP2 PUSH2 0x3F06 JUMP JUMPDEST DUP3 MSTORE POP POP JUMP JUMPDEST PUSH0 PUSH1 0x20 DUP3 ADD SWAP1 POP PUSH2 0x4172 PUSH0 DUP4 ADD DUP5 PUSH2 0x4150 JUMP JUMPDEST SWAP3 SWAP2 POP POP JUMP JUMPDEST PUSH0 PUSH16 0xFFFFFFFFFFFFFFFFFFFFFFFFFFFFFFFF DUP3 AND SWAP1 POP SWAP2 SWAP1 POP JUMP JUMPDEST PUSH2 0x419C DUP2 PUSH2 0x4178 JUMP JUMPDEST DUP3 MSTORE POP POP JUMP JUMPDEST PUSH0 PUSH1 0x20 DUP3 ADD SWAP1 POP PUSH2 0x41B5 PUSH0 DUP4 ADD DUP5 PUSH2 0x4193 JUMP JUMPDEST SWAP3 SWAP2 POP POP JUMP JUMPDEST PUSH0 DUP2 SWAP1 POP SWAP2 SWAP1 POP JUMP JUMPDEST PUSH0 PUSH2 0x41DE PUSH2 0x41D9 PUSH2 0x41D4 DUP5 PUSH2 0x3EE7 JUMP JUMPDEST PUSH2 0x41BB JUMP JUMPDEST PUSH2 0x3EE7 JUMP JUMPDEST SWAP1 POP SWAP2 SWAP1 POP JUMP JUMPDEST PUSH0 PUSH2 0x41EF DUP3 PUSH2 0x41C4 JUMP JUMPDEST SWAP1 POP SWAP2 SWAP1 POP JUMP JUMPDEST PUSH0 PUSH2 0x4200 DUP3 PUSH2 0x41E5 JUMP JUMPDEST SWAP1 POP SWAP2 SWAP1 POP JUMP JUMPDEST PUSH2 0x4210 DUP2 PUSH2 0x41F6 JUMP JUMPDEST DUP3 MSTORE POP POP JUMP JUMPDEST PUSH0 PUSH1 0x20 DUP3 ADD SWAP1 POP PUSH2 0x4229 PUSH0 DUP4 ADD DUP5 PUSH2 0x4207 JUMP JUMPDEST SWAP3 SWAP2 POP POP JUMP JUMPDEST PUSH0 PUSH2 0x4239 DUP3 PUSH2 0x41E5 JUMP JUMPDEST SWAP1 POP SWAP2 SWAP1 POP JUMP JUMPDEST PUSH2 0x4249 DUP2 PUSH2 0x422F JUMP JUMPDEST DUP3 MSTORE POP POP JUMP JUMPDEST PUSH0 PUSH1 0x20 DUP3 ADD SWAP1 POP PUSH2 0x4262 PUSH0 DUP4 ADD DUP5 PUSH2 0x4240 JUMP JUMPDEST SWAP3 SWAP2 POP POP JUMP JUMPDEST PUSH0 PUSH1 0x20 DUP3 DUP5 SUB SLT ISZERO PUSH2 0x427D JUMPI PUSH2 0x427C PUSH2 0x3DFB JUMP JUMPDEST JUMPDEST PUSH0 PUSH2 0x428A DUP5 DUP3 DUP6 ADD PUSH2 0x3F2D JUMP JUMPDEST SWAP2 POP POP SWAP3 SWAP2 POP POP JUMP JUMPDEST PUSH0 PUSH0 PUSH1 0x40 DUP4 DUP6 SUB SLT ISZERO PUSH2 0x42A9 JUMPI PUSH2 0x42A8 PUSH2 0x3DFB JUMP JUMPDEST JUMPDEST PUSH0 PUSH2 0x42B6 DUP6 DUP3 DUP7 ADD PUSH2 0x3F2D JUMP JUMPDEST SWAP3 POP POP PUSH1 0x20 PUSH2 0x42C7 DUP6 DUP3 DUP7 ADD PUSH2 0x3F2D JUMP JUMPDEST SWAP2 POP POP SWAP3 POP SWAP3 SWAP1 POP JUMP JUMPDEST PUSH0 PUSH0 PUSH0 PUSH1 0x60 DUP5 DUP7 SUB SLT ISZERO PUSH2 0x42E8 JUMPI PUSH2 0x42E7 PUSH2 0x3DFB JUMP JUMPDEST JUMPDEST PUSH0 PUSH2 0x42F5 DUP7 DUP3 DUP8 ADD PUSH2 0x3F2D JUMP JUMPDEST SWAP4 POP POP PUSH1 0x20 PUSH2 0x4306 DUP7 DUP3 DUP8 ADD PUSH2 0x3FD1 JUMP JUMPDEST SWAP3 POP POP PUSH1 0x40 PUSH2 0x4317 DUP7 DUP3 DUP8 ADD PUSH2 0x3FD1 JUMP JUMPDEST SWAP2 POP POP SWAP3 POP SWAP3 POP SWAP3 JUMP JUMPDEST PUSH0 PUSH1 0x40 DUP3 ADD SWAP1 POP PUSH2 0x4334 PUSH0 DUP4 ADD DUP6 PUSH2 0x3EBF JUMP JUMPDEST PUSH2 0x4341 PUSH1 0x20 DUP4 ADD DUP5 PUSH2 0x3EBF JUMP JUMPDEST SWAP4 SWAP3 POP POP POP JUMP JUMPDEST PUSH32 0x4E487B7100000000000000000000000000000000000000000000000000000000 PUSH0 MSTORE PUSH1 0x11 PUSH1 0x4 MSTORE PUSH1 0x24 PUSH0 REVERT JUMPDEST PUSH0 PUSH2 0x437F DUP3 PUSH2 0x3EB6 JUMP JUMPDEST SWAP2 POP PUSH2 0x438A DUP4 PUSH2 0x3EB6 JUMP JUMPDEST SWAP3 POP DUP3 DUP3 SUB SWAP1 POP DUP2 DUP2 GT ISZERO PUSH2 0x43A2 JUMPI PUSH2 0x43A1 PUSH2 0x4348 JUMP JUMPDEST JUMPDEST SWAP3 SWAP2 POP POP JUMP JUMPDEST PUSH0 PUSH2 0x43B2 DUP3 PUSH2 0x4178 JUMP JUMPDEST SWAP2 POP PUSH16 0xFFFFFFFFFFFFFFFFFFFFFFFFFFFFFFFF DUP3 SUB PUSH2 0x43D4 JUMPI PUSH2 0x43D3 PUSH2 0x4348 JUMP JUMPDEST JUMPDEST PUSH1 0x1 DUP3 ADD SWAP1 POP SWAP2 SWAP1 POP JUMP JUMPDEST PUSH0 PUSH2 0x43E9 DUP3 PUSH2 0x3EB6 JUMP JUMPDEST SWAP2 POP PUSH2 0x43F4 DUP4 PUSH2 0x3EB6 JUMP JUMPDEST SWAP3 POP DUP3 DUP3 ADD SWAP1 POP DUP1 DUP3 GT ISZERO PUSH2 0x440C JUMPI PUSH2 0x440B PUSH2 0x4348 JUMP JUMPDEST JUMPDEST SWAP3 SWAP2 POP POP JUMP JUMPDEST PUSH0 DUP2 MLOAD SWAP1 POP SWAP2 SWAP1 POP JUMP JUMPDEST PUSH0 DUP3 DUP3 MSTORE PUSH1 0x20 DUP3 ADD SWAP1 POP SWAP3 SWAP2 POP POP JUMP JUMPDEST PUSH0 DUP2 SWAP1 POP PUSH1 0x20 DUP3 ADD SWAP1 POP SWAP2 SWAP1 POP JUMP JUMPDEST PUSH2 0x4444 DUP2 PUSH2 0x3F06 JUMP JUMPDEST DUP3 MSTORE POP POP JUMP JUMPDEST PUSH0 PUSH2 0x4455 DUP4 DUP4 PUSH2 0x443B JUMP JUMPDEST PUSH1 0x20 DUP4 ADD SWAP1 POP SWAP3 SWAP2 POP POP JUMP JUMPDEST PUSH0 PUSH1 0x20 DUP3 ADD SWAP1 POP SWAP2 SWAP1 POP JUMP JUMPDEST PUSH0 PUSH2 0x4477 DUP3 PUSH2 0x4412 JUMP JUMPDEST PUSH2 0x4481 DUP2 DUP6 PUSH2 0x441C JUMP JUMPDEST SWAP4 POP PUSH2 0x448C DUP4 PUSH2 0x442C JUMP JUMPDEST DUP1 PUSH0 JUMPDEST DUP4 DUP2 LT ISZERO PUSH2 0x44BC JUMPI DUP2 MLOAD PUSH2 0x44A3 DUP9 DUP3 PUSH2 0x444A JUMP JUMPDEST SWAP8 POP PUSH2 0x44AE DUP4 PUSH2 0x4461 JUMP JUMPDEST SWAP3 POP POP PUSH1 0x1 DUP2 ADD SWAP1 POP PUSH2 0x448F JUMP JUMPDEST POP DUP6 SWAP4 POP POP POP POP SWAP3 SWAP2 POP POP JUMP JUMPDEST PUSH0 PUSH1 0xA0 DUP3 ADD SWAP1 POP PUSH2 0x44DC PUSH0 DUP4 ADD DUP9 PUSH2 0x3EBF JUMP JUMPDEST PUSH2 0x44E9 PUSH1 0x20 DUP4 ADD DUP8 PUSH2 0x3EBF JUMP JUMPDEST DUP2 DUP2 SUB PUSH1 0x40 DUP4 ADD MSTORE PUSH2 0x44FB DUP2 DUP7 PUSH2 0x446D JUMP JUMPDEST SWAP1 POP PUSH2 0x450A PUSH1 0x60 DUP4 ADD DUP6 PUSH2 0x4150 JUMP JUMPDEST PUSH2 0x4517 PUSH1 0x80 DUP4 ADD DUP5 PUSH2 0x3EBF JUMP JUMPDEST SWAP7 SWAP6 POP POP POP POP POP POP JUMP JUMPDEST PUSH0 PUSH0 REVERT JUMPDEST PUSH0 PUSH1 0x1F NOT PUSH1 0x1F DUP4 ADD AND SWAP1 POP SWAP2 SWAP1 POP JUMP JUMPDEST PUSH32 0x4E487B7100000000000000000000000000000000000000000000000000000000 PUSH0 MSTORE PUSH1 0x41 PUSH1 0x4 MSTORE PUSH1 0x24 PUSH0 REVERT JUMPDEST PUSH2 0x456B DUP3 PUSH2 0x4525 JUMP JUMPDEST DUP2 ADD DUP2 DUP2 LT PUSH8 0xFFFFFFFFFFFFFFFF DUP3 GT OR ISZERO PUSH2 0x458A JUMPI PUSH2 0x4589 PUSH2 0x4535 JUMP JUMPDEST JUMPDEST DUP1 PUSH1 0x40 MSTORE POP POP POP JUMP JUMPDEST PUSH0 PUSH2 0x459C PUSH2 0x3DF2 JUMP JUMPDEST SWAP1 POP PUSH2 0x45A8 DUP3 DUP3 PUSH2 0x4562 JUMP JUMPDEST SWAP2 SWAP1 POP JUMP JUMPDEST PUSH0 PUSH8 0xFFFFFFFFFFFFFFFF DUP3 GT ISZERO PUSH2 0x45C7 JUMPI PUSH2 0x45C6 PUSH2 0x4535 JUMP JUMPDEST JUMPDEST PUSH1 0x20 DUP3 MUL SWAP1 POP PUSH1 0x20 DUP2 ADD SWAP1 POP SWAP2 SWAP1 POP JUMP JUMPDEST PUSH0 PUSH0 REVERT JUMPDEST PUSH0 DUP2 MLOAD SWAP1 POP PUSH2 0x45EA DUP2 PUSH2 0x3FBB JUMP JUMPDEST SWAP3 SWAP2 POP POP JUMP JUMPDEST PUSH0 PUSH2 0x4602 PUSH2 0x45FD DUP5 PUSH2 0x45AD JUMP JUMPDEST PUSH2 0x4593 JUMP JUMPDEST SWAP1 POP DUP1 DUP4 DUP3 MSTORE PUSH1 0x20 DUP3 ADD SWAP1 POP PUSH1 0x20 DUP5 MUL DUP4 ADD DUP6 DUP2 GT ISZERO PUSH2 0x4625 JUMPI PUSH2 0x4624 PUSH2 0x45D8 JUMP JUMPDEST JUMPDEST DUP4 JUMPDEST DUP2 DUP2 LT ISZERO PUSH2 0x464E JUMPI DUP1 PUSH2 0x463A DUP9 DUP3 PUSH2 0x45DC JUMP JUMPDEST DUP5 MSTORE PUSH1 0x20 DUP5 ADD SWAP4 POP POP PUSH1 0x20 DUP2 ADD SWAP1 POP PUSH2 0x4627 JUMP JUMPDEST POP POP POP SWAP4 SWAP3 POP POP POP JUMP JUMPDEST PUSH0 DUP3 PUSH1 0x1F DUP4 ADD SLT PUSH2 0x466C JUMPI PUSH2 0x466B PUSH2 0x4521 JUMP JUMPDEST JUMPDEST DUP2 MLOAD PUSH2 0x467C DUP5 DUP3 PUSH1 0x20 DUP7 ADD PUSH2 0x45F0 JUMP JUMPDEST SWAP2 POP POP SWAP3 SWAP2 POP POP JUMP JUMPDEST PUSH0 PUSH1 0x20 DUP3 DUP5 SUB SLT ISZERO PUSH2 0x469A JUMPI PUSH2 0x4699 PUSH2 0x3DFB JUMP JUMPDEST JUMPDEST PUSH0 DUP3 ADD MLOAD PUSH8 0xFFFFFFFFFFFFFFFF DUP2 GT ISZERO PUSH2 0x46B7 JUMPI PUSH2 0x46B6 PUSH2 0x3DFF JUMP JUMPDEST JUMPDEST PUSH2 0x46C3 DUP5 DUP3 DUP6 ADD PUSH2 0x4658 JUMP JUMPDEST SWAP2 POP POP SWAP3 SWAP2 POP POP JUMP JUMPDEST PUSH32 0x4E487B7100000000000000000000000000000000000000000000000000000000 PUSH0 MSTORE PUSH1 0x32 PUSH1 0x4 MSTORE PUSH1 0x24 PUSH0 REVERT JUMPDEST PUSH0 PUSH1 0x40 DUP3 ADD SWAP1 POP PUSH2 0x470C PUSH0 DUP4 ADD DUP6 PUSH2 0x4150 JUMP JUMPDEST PUSH2 0x4719 PUSH1 0x20 DUP4 ADD DUP5 PUSH2 0x3EBF JUMP JUMPDEST SWAP4 SWAP3 POP POP POP JUMP JUMPDEST PUSH0 PUSH1 0x60 DUP3 ADD SWAP1 POP PUSH2 0x4733 PUSH0 DUP4 ADD DUP7 PUSH2 0x3EBF JUMP JUMPDEST PUSH2 0x4740 PUSH1 0x20 DUP4 ADD DUP6 PUSH2 0x3EBF JUMP JUMPDEST PUSH2 0x474D PUSH1 0x40 DUP4 ADD DUP5 PUSH2 0x3EBF JUMP JUMPDEST SWAP5 SWAP4 POP POP POP POP JUMP JUMPDEST PUSH0 DUP2 MLOAD SWAP1 POP PUSH2 0x4763 DUP2 PUSH2 0x3F17 JUMP JUMPDEST SWAP3 SWAP2 POP POP JUMP JUMPDEST PUSH0 PUSH1 0x20 DUP3 DUP5 SUB SLT ISZERO PUSH2 0x477E JUMPI PUSH2 0x477D PUSH2 0x3DFB JUMP JUMPDEST JUMPDEST PUSH0 PUSH2 0x478B DUP5 DUP3 DUP6 ADD PUSH2 0x4755 JUMP JUMPDEST SWAP2 POP POP SWAP3 SWAP2 POP POP JUMP JUMPDEST PUSH0 PUSH1 0x80 DUP3 ADD SWAP1 POP PUSH2 0x47A7 PUSH0 DUP4 ADD DUP8 PUSH2 0x3EBF JUMP JUMPDEST DUP2 DUP2 SUB PUSH1 0x20 DUP4 ADD MSTORE PUSH2 0x47B9 DUP2 DUP7 PUSH2 0x446D JUMP JUMPDEST SWAP1 POP PUSH2 0x47C8 PUSH1 0x40 DUP4 ADD DUP6 PUSH2 0x4150 JUMP JUMPDEST PUSH2 0x47D5 PUSH1 0x60 DUP4 ADD DUP5 PUSH2 0x3EBF JUMP JUMPDEST SWAP6 SWAP5 POP POP POP POP POP JUMP JUMPDEST PUSH0 PUSH1 0x40 DUP3 ADD SWAP1 POP PUSH2 0x47F1 PUSH0 DUP4 ADD DUP6 PUSH2 0x3EBF JUMP JUMPDEST DUP2 DUP2 SUB PUSH1 0x20 DUP4 ADD MSTORE PUSH2 0x4803 DUP2 DUP5 PUSH2 0x446D JUMP JUMPDEST SWAP1 POP SWAP4 SWAP3 POP POP POP JUMP JUMPDEST PUSH0 PUSH10 0xFFFFFFFFFFFFFFFFFFFF DUP3 AND SWAP1 POP SWAP2 SWAP1 POP JUMP JUMPDEST PUSH2 0x482A DUP2 PUSH2 0x480C JUMP JUMPDEST DUP2 EQ PUSH2 0x4834 JUMPI PUSH0 PUSH0 REVERT JUMPDEST POP JUMP JUMPDEST PUSH0 DUP2 MLOAD SWAP1 POP PUSH2 0x4845 DUP2 PUSH2 0x4821 JUMP JUMPDEST SWAP3 SWAP2 POP POP JUMP JUMPDEST PUSH0 DUP2 SWAP1 POP SWAP2 SWAP1 POP JUMP JUMPDEST PUSH2 0x485D DUP2 PUSH2 0x484B JUMP JUMPDEST DUP2 EQ PUSH2 0x4867 JUMPI PUSH0 PUSH0 REVERT JUMPDEST POP JUMP JUMPDEST PUSH0 DUP2 MLOAD SWAP1 POP PUSH2 0x4878 DUP2 PUSH2 0x4854 JUMP JUMPDEST SWAP3 SWAP2 POP POP JUMP JUMPDEST PUSH0 PUSH0 PUSH0 PUSH0 PUSH0 PUSH1 0xA0 DUP7 DUP9 SUB SLT ISZERO PUSH2 0x4897 JUMPI PUSH2 0x4896 PUSH2 0x3DFB JUMP JUMPDEST JUMPDEST PUSH0 PUSH2 0x48A4 DUP9 DUP3 DUP10 ADD PUSH2 0x4837 JUMP JUMPDEST SWAP6 POP POP PUSH1 0x20 PUSH2 0x48B5 DUP9 DUP3 DUP10 ADD PUSH2 0x486A JUMP JUMPDEST SWAP5 POP POP PUSH1 0x40 PUSH2 0x48C6 DUP9 DUP3 DUP10 ADD PUSH2 0x45DC JUMP JUMPDEST SWAP4 POP POP PUSH1 0x60 PUSH2 0x48D7 DUP9 DUP3 DUP10 ADD PUSH2 0x45DC JUMP JUMPDEST SWAP3 POP POP PUSH1 0x80 PUSH2 0x48E8 DUP9 DUP3 DUP10 ADD PUSH2 0x4837 JUMP JUMPDEST SWAP2 POP POP SWAP3 SWAP6 POP SWAP3 SWAP6 SWAP1 SWAP4 POP JUMP JUMPDEST PUSH0 PUSH1 0xFF DUP3 AND SWAP1 POP SWAP2 SWAP1 POP JUMP JUMPDEST PUSH2 0x490A DUP2 PUSH2 0x48F5 JUMP JUMPDEST DUP2 EQ PUSH2 0x4914 JUMPI PUSH0 PUSH0 REVERT JUMPDEST POP JUMP JUMPDEST PUSH0 DUP2 MLOAD SWAP1 POP PUSH2 0x4925 DUP2 PUSH2 0x4901 JUMP JUMPDEST SWAP3 SWAP2 POP POP JUMP JUMPDEST PUSH0 PUSH1 0x20 DUP3 DUP5 SUB SLT ISZERO PUSH2 0x4940 JUMPI PUSH2 0x493F PUSH2 0x3DFB JUMP JUMPDEST JUMPDEST PUSH0 PUSH2 0x494D DUP5 DUP3 DUP6 ADD PUSH2 0x4917 JUMP JUMPDEST SWAP2 POP POP SWAP3 SWAP2 POP POP JUMP JUMPDEST PUSH0 PUSH2 0x4960 DUP3 PUSH2 0x48F5 JUMP JUMPDEST SWAP2 POP PUSH2 0x496B DUP4 PUSH2 0x48F5 JUMP JUMPDEST SWAP3 POP DUP3 DUP3 SUB SWAP1 POP PUSH1 0xFF DUP2 GT ISZERO PUSH2 0x4984 JUMPI PUSH2 0x4983 PUSH2 0x4348 JUMP JUMPDEST JUMPDEST SWAP3 SWAP2 POP POP JUMP JUMPDEST PUSH0 DUP2 PUSH1 0x1 SHR SWAP1 POP SWAP2 SWAP1 POP JUMP JUMPDEST PUSH0 PUSH0 DUP3 SWAP2 POP DUP4 SWAP1 POP JUMPDEST PUSH1 0x1 DUP6 GT ISZERO PUSH2 0x49DF JUMPI DUP1 DUP7 DIV DUP2 GT ISZERO PUSH2 0x49BB JUMPI PUSH2 0x49BA PUSH2 0x4348 JUMP JUMPDEST JUMPDEST PUSH1 0x1 DUP6 AND ISZERO PUSH2 0x49CA JUMPI DUP1 DUP3 MUL SWAP2 POP JUMPDEST DUP1 DUP2 MUL SWAP1 POP PUSH2 0x49D8 DUP6 PUSH2 0x498A JUMP JUMPDEST SWAP5 POP PUSH2 0x499F JUMP JUMPDEST SWAP5 POP SWAP5 SWAP3 POP POP POP JUMP JUMPDEST PUSH0 DUP3 PUSH2 0x49F7 JUMPI PUSH1 0x1 SWAP1 POP PUSH2 0x4AB2 JUMP JUMPDEST DUP2 PUSH2 0x4A04 JUMPI PUSH0 SWAP1 POP PUSH2 0x4AB2 JUMP JUMPDEST DUP2 PUSH1 0x1 DUP2 EQ PUSH2 0x4A1A JUMPI PUSH1 0x2 DUP2 EQ PUSH2 0x4A24 JUMPI PUSH2 0x4A53 JUMP JUMPDEST PUSH1 0x1 SWAP2 POP POP PUSH2 0x4AB2 JUMP JUMPDEST PUSH1 0xFF DUP5 GT ISZERO PUSH2 0x4A36 JUMPI PUSH2 0x4A35 PUSH2 0x4348 JUMP JUMPDEST JUMPDEST DUP4 PUSH1 0x2 EXP SWAP2 POP DUP5 DUP3 GT ISZERO PUSH2 0x4A4D JUMPI PUSH2 0x4A4C PUSH2 0x4348 JUMP JUMPDEST JUMPDEST POP PUSH2 0x4AB2 JUMP JUMPDEST POP PUSH1 0x20 DUP4 LT PUSH2 0x133 DUP4 LT AND PUSH1 0x4E DUP5 LT PUSH1 0xB DUP5 LT AND OR ISZERO PUSH2 0x4A88 JUMPI DUP3 DUP3 EXP SWAP1 POP DUP4 DUP2 GT ISZERO PUSH2 0x4A83 JUMPI PUSH2 0x4A82 PUSH2 0x4348 JUMP JUMPDEST JUMPDEST PUSH2 0x4AB2 JUMP JUMPDEST PUSH2 0x4A95 DUP5 DUP5 DUP5 PUSH1 0x1 PUSH2 0x4996 JUMP JUMPDEST SWAP3 POP SWAP1 POP DUP2 DUP5 DIV DUP2 GT ISZERO PUSH2 0x4AAC JUMPI PUSH2 0x4AAB PUSH2 0x4348 JUMP JUMPDEST JUMPDEST DUP2 DUP2 MUL SWAP1 POP JUMPDEST SWAP4 SWAP3 POP POP POP JUMP JUMPDEST PUSH0 PUSH2 0x4AC3 DUP3 PUSH2 0x3EB6 JUMP JUMPDEST SWAP2 POP PUSH2 0x4ACE DUP4 PUSH2 0x48F5 JUMP JUMPDEST SWAP3 POP PUSH2 0x4AFB PUSH32 0xFFFFFFFFFFFFFFFFFFFFFFFFFFFFFFFFFFFFFFFFFFFFFFFFFFFFFFFFFFFFFFFF DUP5 DUP5 PUSH2 0x49E8 JUMP JUMPDEST SWAP1 POP SWAP3 SWAP2 POP POP JUMP JUMPDEST PUSH0 PUSH2 0x4B0D DUP3 PUSH2 0x3EB6 JUMP JUMPDEST SWAP2 POP PUSH2 0x4B18 DUP4 PUSH2 0x3EB6 JUMP JUMPDEST SWAP3 POP DUP3 DUP3 MUL PUSH2 0x4B26 DUP2 PUSH2 0x3EB6 JUMP JUMPDEST SWAP2 POP DUP3 DUP3 DIV DUP5 EQ DUP4 ISZERO OR PUSH2 0x4B3D JUMPI PUSH2 0x4B3C PUSH2 0x4348 JUMP JUMPDEST JUMPDEST POP SWAP3 SWAP2 POP POP JUMP JUMPDEST PUSH32 0x4E487B7100000000000000000000000000000000000000000000000000000000 PUSH0 MSTORE PUSH1 0x12 PUSH1 0x4 MSTORE PUSH1 0x24 PUSH0 REVERT JUMPDEST PUSH0 PUSH2 0x4B7B DUP3 PUSH2 0x3EB6 JUMP JUMPDEST SWAP2 POP PUSH2 0x4B86 DUP4 PUSH2 0x3EB6 JUMP JUMPDEST SWAP3 POP DUP3 PUSH2 0x4B96 JUMPI PUSH2 0x4B95 PUSH2 0x4B44 JUMP JUMPDEST JUMPDEST DUP3 DUP3 DIV SWAP1 POP SWAP3 SWAP2 POP POP JUMP JUMPDEST PUSH0 DUP2 SWAP1 POP SWAP3 SWAP2 POP POP JUMP JUMPDEST POP JUMP JUMPDEST PUSH0 PUSH2 0x4BB9 PUSH0 DUP4 PUSH2 0x4BA1 JUMP JUMPDEST SWAP2 POP PUSH2 0x4BC4 DUP3 PUSH2 0x4BAB JUMP JUMPDEST PUSH0 DUP3 ADD SWAP1 POP SWAP2 SWAP1 POP JUMP JUMPDEST PUSH0 PUSH2 0x4BD8 DUP3 PUSH2 0x4BAE JUMP JUMPDEST SWAP2 POP DUP2 SWAP1 POP SWAP2 SWAP1 POP JUMP JUMPDEST PUSH0 PUSH1 0x40 DUP3 ADD SWAP1 POP PUSH2 0x4BF5 PUSH0 DUP4 ADD DUP6 PUSH2 0x4150 JUMP JUMPDEST PUSH2 0x4C02 PUSH1 0x20 DUP4 ADD DUP5 PUSH2 0x406E JUMP JUMPDEST SWAP4 SWAP3 POP POP POP JUMP INVALID LOG2 PUSH5 0x6970667358 0x22 SLT KECCAK256 PUSH3 0xF6C808 DUP3 PUSH1 0x4E SIGNEXTEND PUSH18 0xF4A758ACEC7E5D73FD338CE946A331B80AEC COINBASE PUSH9 0x6F0E8764736F6C6343 STOP ADDMOD 0x1E STOP CALLER "
		},
		"gasEstimates": {
			"creation": {
				"codeDepositCost": "3903800",
				"executionCost": "infinite",
				"totalCost": "infinite"
			},
			"external": {
				"": "264",
				"ADMIN_ROLE()": "414",
				"DEFAULT_ADMIN_ROLE()": "441",
				"bankCapUsd()": "infinite",
				"depositNative()": "infinite",
				"depositNativeViaUniswapV2(uint256)": "infinite",
				"depositToken(address,uint256)": "infinite",
				"depositTokenViaUniswapV2(address,uint256,uint256)": "infinite",
				"depositUSDC(uint256)": "infinite",
				"ethUsdFeed()": "infinite",
				"getBalanceUSDC(address,address)": "infinite",
				"getRoleAdmin(bytes32)": "infinite",
				"grantRole(bytes32,address)": "infinite",
				"hasRole(bytes32,address)": "3188",
				"previewTokenToUSDC(address,uint256)": "infinite",
				"previewTokenToUSDCByRouter(address,uint256)": "infinite",
				"previewWeiToUSDC(uint256)": "infinite",
				"previewWeiToUSDCByRouter(uint256)": "infinite",
				"renounceRole(bytes32,address)": "infinite",
				"revokeRole(bytes32,address)": "infinite",
				"setAssetConfig(address,address,bool)": "infinite",
				"setUSDC(address)": "infinite",
				"setUniswapRouter(address)": "infinite",
				"supportsInterface(bytes4)": "764",
				"totalDepositCount()": "2554",
				"totalUsdDeposits()": "2494",
				"totalWithdrawCount()": "2562",
				"uniswapRouter()": "infinite",
				"usdc()": "2576",
				"weth()": "2598",
				"withdrawLimitPerTxNative()": "infinite",
				"withdrawNative(uint256)": "infinite",
				"withdrawNativeViaUniswapV2(uint256,uint256)": "infinite",
				"withdrawToken(address,uint256)": "infinite"
			},
			"internal": {
				"_assetEnabled(address)": "infinite",
				"_depositNative(uint256,uint256)": "infinite",
				"_depositToken(address,uint256,uint256,uint256)": "infinite",
				"_getAmountsIn(uint256,address[] memory)": "infinite",
				"_getAmountsOut(uint256,address[] memory)": "infinite",
				"_makePath(address,address)": "infinite",
				"_nonReentrantAfter()": "24274",
				"_nonReentrantBefore()": "infinite",
				"_quoteTokenToUSDC(address,uint256)": "infinite",
				"_quoteWeiToUSDC(uint256)": "infinite",
				"_withdrawNative(uint256,uint256,uint256,uint256)": "infinite",
				"_withdrawToken(address,uint256,uint256,uint256,uint256)": "infinite",
				"_withinBankCapGiven(uint256,uint256,uint256)": "infinite",
				"_withinWithdrawalLimit(uint256)": "infinite"
			}
		},
		"methodIdentifiers": {
			"ADMIN_ROLE()": "75b238fc",
			"DEFAULT_ADMIN_ROLE()": "a217fddf",
			"bankCapUsd()": "ac4543ba",
			"depositNative()": "db6b5246",
			"depositNativeViaUniswapV2(uint256)": "c22fba6f",
			"depositToken(address,uint256)": "338b5dea",
			"depositTokenViaUniswapV2(address,uint256,uint256)": "b965ad51",
			"depositUSDC(uint256)": "f688bcfb",
			"ethUsdFeed()": "8009b7bd",
			"getBalanceUSDC(address,address)": "b6eca887",
			"getRoleAdmin(bytes32)": "248a9ca3",
			"grantRole(bytes32,address)": "2f2ff15d",
			"hasRole(bytes32,address)": "91d14854",
			"previewTokenToUSDC(address,uint256)": "4724f7be",
			"previewTokenToUSDCByRouter(address,uint256)": "d4095c9b",
			"previewWeiToUSDC(uint256)": "d37ebc91",
			"previewWeiToUSDCByRouter(uint256)": "22eae3c2",
			"renounceRole(bytes32,address)": "36568abe",
			"revokeRole(bytes32,address)": "d547741f",
			"setAssetConfig(address,address,bool)": "218c1b4c",
			"setUSDC(address)": "b3e089a2",
			"setUniswapRouter(address)": "bea9849e",
			"supportsInterface(bytes4)": "01ffc9a7",
			"totalDepositCount()": "d6343867",
			"totalUsdDeposits()": "0e1982b4",
			"totalWithdrawCount()": "503e7042",
			"uniswapRouter()": "735de9f7",
			"usdc()": "3e413bee",
			"weth()": "3fc8cef3",
			"withdrawLimitPerTxNative()": "b383c99c",
			"withdrawNative(uint256)": "84276d81",
			"withdrawNativeViaUniswapV2(uint256,uint256)": "2602b0fe",
			"withdrawToken(address,uint256)": "9e281a98"
		}
	},
	"abi": [
		{
			"inputs": [
				{
					"internalType": "uint256",
					"name": "_bankCapUsd",
					"type": "uint256"
				},
				{
					"internalType": "uint256",
					"name": "_withdrawLimitPerTxNative",
					"type": "uint256"
				},
				{
					"internalType": "address",
					"name": "_ethUsdFeed",
					"type": "address"
				},
				{
					"internalType": "address",
					"name": "_uniswapRouter",
					"type": "address"
				},
				{
					"internalType": "address",
					"name": "_usdc",
					"type": "address"
				}
			],
			"stateMutability": "nonpayable",
			"type": "constructor"
		},
		{
			"inputs": [],
			"name": "AccessControlBadConfirmation",
			"type": "error"
		},
		{
			"inputs": [
				{
					"internalType": "address",
					"name": "account",
					"type": "address"
				},
				{
					"internalType": "bytes32",
					"name": "neededRole",
					"type": "bytes32"
				}
			],
			"name": "AccessControlUnauthorizedAccount",
			"type": "error"
		},
		{
			"inputs": [
				{
					"internalType": "address",
					"name": "token",
					"type": "address"
				}
			],
			"name": "AssetDisabled",
			"type": "error"
		},
		{
			"inputs": [
				{
					"internalType": "uint256",
					"name": "currentTotalUsd",
					"type": "uint256"
				},
				{
					"internalType": "uint256",
					"name": "attemptedUsd",
					"type": "uint256"
				},
				{
					"internalType": "uint256",
					"name": "capUsd",
					"type": "uint256"
				}
			],
			"name": "BankCapExceeded",
			"type": "error"
		},
		{
			"inputs": [
				{
					"internalType": "uint256",
					"name": "availableUSDC",
					"type": "uint256"
				},
				{
					"internalType": "uint256",
					"name": "requestedUSDC",
					"type": "uint256"
				}
			],
			"name": "InsufficientBalance",
			"type": "error"
		},
		{
			"inputs": [],
			"name": "InvalidValue",
			"type": "error"
		},
		{
			"inputs": [
				{
					"internalType": "address",
					"name": "token",
					"type": "address"
				}
			],
			"name": "MissingPriceFeed",
			"type": "error"
		},
		{
			"inputs": [
				{
					"internalType": "address",
					"name": "token",
					"type": "address"
				}
			],
			"name": "NoDirectUSDCPath",
			"type": "error"
		},
		{
			"inputs": [],
			"name": "Reentrancy",
			"type": "error"
		},
		{
			"inputs": [
				{
					"internalType": "address",
					"name": "token",
					"type": "address"
				}
			],
			"name": "SafeERC20FailedOperation",
			"type": "error"
		},
		{
			"inputs": [],
			"name": "SlippageTooHigh",
			"type": "error"
		},
		{
			"inputs": [
				{
					"internalType": "address",
					"name": "to",
					"type": "address"
				},
				{
					"internalType": "uint256",
					"name": "amount",
					"type": "uint256"
				}
			],
			"name": "TransferFailed",
			"type": "error"
		},
		{
			"inputs": [
				{
					"internalType": "uint256",
					"name": "requested",
					"type": "uint256"
				},
				{
					"internalType": "uint256",
					"name": "limit",
					"type": "uint256"
				}
			],
			"name": "WithdrawLimitExceeded",
			"type": "error"
		},
		{
			"anonymous": false,
			"inputs": [
				{
					"indexed": true,
					"internalType": "address",
					"name": "token",
					"type": "address"
				},
				{
					"indexed": true,
					"internalType": "address",
					"name": "priceFeed",
					"type": "address"
				},
				{
					"indexed": false,
					"internalType": "bool",
					"name": "enabled",
					"type": "bool"
				}
			],
			"name": "AssetConfigured",
			"type": "event"
		},
		{
			"anonymous": false,
			"inputs": [
				{
					"indexed": true,
					"internalType": "address",
					"name": "user",
					"type": "address"
				},
				{
					"indexed": false,
					"internalType": "uint256",
					"name": "amountWei",
					"type": "uint256"
				},
				{
					"indexed": false,
					"internalType": "uint256",
					"name": "creditedUSDC",
					"type": "uint256"
				}
			],
			"name": "DepositedNative",
			"type": "event"
		},
		{
			"anonymous": false,
			"inputs": [
				{
					"indexed": true,
					"internalType": "address",
					"name": "user",
					"type": "address"
				},
				{
					"indexed": true,
					"internalType": "address",
					"name": "token",
					"type": "address"
				},
				{
					"indexed": false,
					"internalType": "uint256",
					"name": "amount",
					"type": "uint256"
				},
				{
					"indexed": false,
					"internalType": "uint256",
					"name": "creditedUSDC",
					"type": "uint256"
				}
			],
			"name": "DepositedToken",
			"type": "event"
		},
		{
			"anonymous": false,
			"inputs": [
				{
					"indexed": true,
					"internalType": "address",
					"name": "user",
					"type": "address"
				},
				{
					"indexed": true,
					"internalType": "address",
					"name": "tokenIn",
					"type": "address"
				},
				{
					"indexed": false,
					"internalType": "uint256",
					"name": "amountIn",
					"type": "uint256"
				},
				{
					"indexed": false,
					"internalType": "uint256",
					"name": "usdcCredited",
					"type": "uint256"
				}
			],
			"name": "DepositedViaUniswap",
			"type": "event"
		},
		{
			"anonymous": false,
			"inputs": [
				{
					"indexed": true,
					"internalType": "bytes32",
					"name": "role",
					"type": "bytes32"
				},
				{
					"indexed": true,
					"internalType": "bytes32",
					"name": "previousAdminRole",
					"type": "bytes32"
				},
				{
					"indexed": true,
					"internalType": "bytes32",
					"name": "newAdminRole",
					"type": "bytes32"
				}
			],
			"name": "RoleAdminChanged",
			"type": "event"
		},
		{
			"anonymous": false,
			"inputs": [
				{
					"indexed": true,
					"internalType": "bytes32",
					"name": "role",
					"type": "bytes32"
				},
				{
					"indexed": true,
					"internalType": "address",
					"name": "account",
					"type": "address"
				},
				{
					"indexed": true,
					"internalType": "address",
					"name": "sender",
					"type": "address"
				}
			],
			"name": "RoleGranted",
			"type": "event"
		},
		{
			"anonymous": false,
			"inputs": [
				{
					"indexed": true,
					"internalType": "bytes32",
					"name": "role",
					"type": "bytes32"
				},
				{
					"indexed": true,
					"internalType": "address",
					"name": "account",
					"type": "address"
				},
				{
					"indexed": true,
					"internalType": "address",
					"name": "sender",
					"type": "address"
				}
			],
			"name": "RoleRevoked",
			"type": "event"
		},
		{
			"anonymous": false,
			"inputs": [
				{
					"indexed": true,
					"internalType": "address",
					"name": "oldRouter",
					"type": "address"
				},
				{
					"indexed": true,
					"internalType": "address",
					"name": "newRouter",
					"type": "address"
				}
			],
			"name": "RouterUpdated",
			"type": "event"
		},
		{
			"anonymous": false,
			"inputs": [
				{
					"indexed": true,
					"internalType": "address",
					"name": "oldUsdc",
					"type": "address"
				},
				{
					"indexed": true,
					"internalType": "address",
					"name": "newUsdc",
					"type": "address"
				}
			],
			"name": "UsdcUpdated",
			"type": "event"
		},
		{
			"anonymous": false,
			"inputs": [
				{
					"indexed": true,
					"internalType": "address",
					"name": "user",
					"type": "address"
				},
				{
					"indexed": false,
					"internalType": "uint256",
					"name": "amountWei",
					"type": "uint256"
				},
				{
					"indexed": false,
					"internalType": "uint256",
					"name": "debitedUSDC",
					"type": "uint256"
				}
			],
			"name": "WithdrawnNative",
			"type": "event"
		},
		{
			"anonymous": false,
			"inputs": [
				{
					"indexed": true,
					"internalType": "address",
					"name": "user",
					"type": "address"
				},
				{
					"indexed": false,
					"internalType": "uint256",
					"name": "amountWei",
					"type": "uint256"
				},
				{
					"indexed": false,
					"internalType": "uint256",
					"name": "usdcSpent",
					"type": "uint256"
				}
			],
			"name": "WithdrawnNativeViaUniswap",
			"type": "event"
		},
		{
			"anonymous": false,
			"inputs": [
				{
					"indexed": true,
					"internalType": "address",
					"name": "user",
					"type": "address"
				},
				{
					"indexed": true,
					"internalType": "address",
					"name": "token",
					"type": "address"
				},
				{
					"indexed": false,
					"internalType": "uint256",
					"name": "amount",
					"type": "uint256"
				},
				{
					"indexed": false,
					"internalType": "uint256",
					"name": "debitedUSDC",
					"type": "uint256"
				}
			],
			"name": "WithdrawnToken",
			"type": "event"
		},
		{
			"stateMutability": "payable",
			"type": "fallback"
		},
		{
			"inputs": [],
			"name": "ADMIN_ROLE",
			"outputs": [
				{
					"internalType": "bytes32",
					"name": "",
					"type": "bytes32"
				}
			],
			"stateMutability": "view",
			"type": "function"
		},
		{
			"inputs": [],
			"name": "DEFAULT_ADMIN_ROLE",
			"outputs": [
				{
					"internalType": "bytes32",
					"name": "",
					"type": "bytes32"
				}
			],
			"stateMutability": "view",
			"type": "function"
		},
		{
			"inputs": [],
			"name": "bankCapUsd",
			"outputs": [
				{
					"internalType": "uint256",
					"name": "",
					"type": "uint256"
				}
			],
			"stateMutability": "view",
			"type": "function"
		},
		{
			"inputs": [],
			"name": "depositNative",
			"outputs": [],
			"stateMutability": "payable",
			"type": "function"
		},
		{
			"inputs": [
				{
					"internalType": "uint256",
					"name": "minUSDCOut",
					"type": "uint256"
				}
			],
			"name": "depositNativeViaUniswapV2",
			"outputs": [],
			"stateMutability": "payable",
			"type": "function"
		},
		{
			"inputs": [
				{
					"internalType": "address",
					"name": "token",
					"type": "address"
				},
				{
					"internalType": "uint256",
					"name": "amount",
					"type": "uint256"
				}
			],
			"name": "depositToken",
			"outputs": [],
			"stateMutability": "nonpayable",
			"type": "function"
		},
		{
			"inputs": [
				{
					"internalType": "address",
					"name": "tokenIn",
					"type": "address"
				},
				{
					"internalType": "uint256",
					"name": "amountIn",
					"type": "uint256"
				},
				{
					"internalType": "uint256",
					"name": "minUSDCOut",
					"type": "uint256"
				}
			],
			"name": "depositTokenViaUniswapV2",
			"outputs": [],
			"stateMutability": "nonpayable",
			"type": "function"
		},
		{
			"inputs": [
				{
					"internalType": "uint256",
					"name": "amountUSDC",
					"type": "uint256"
				}
			],
			"name": "depositUSDC",
			"outputs": [],
			"stateMutability": "nonpayable",
			"type": "function"
		},
		{
			"inputs": [],
			"name": "ethUsdFeed",
			"outputs": [
				{
					"internalType": "contract AggregatorV3Interface",
					"name": "",
					"type": "address"
				}
			],
			"stateMutability": "view",
			"type": "function"
		},
		{
			"inputs": [
				{
					"internalType": "address",
					"name": "token",
					"type": "address"
				},
				{
					"internalType": "address",
					"name": "user",
					"type": "address"
				}
			],
			"name": "getBalanceUSDC",
			"outputs": [
				{
					"internalType": "uint256",
					"name": "balanceUSDC",
					"type": "uint256"
				}
			],
			"stateMutability": "view",
			"type": "function"
		},
		{
			"inputs": [
				{
					"internalType": "bytes32",
					"name": "role",
					"type": "bytes32"
				}
			],
			"name": "getRoleAdmin",
			"outputs": [
				{
					"internalType": "bytes32",
					"name": "",
					"type": "bytes32"
				}
			],
			"stateMutability": "view",
			"type": "function"
		},
		{
			"inputs": [
				{
					"internalType": "bytes32",
					"name": "role",
					"type": "bytes32"
				},
				{
					"internalType": "address",
					"name": "account",
					"type": "address"
				}
			],
			"name": "grantRole",
			"outputs": [],
			"stateMutability": "nonpayable",
			"type": "function"
		},
		{
			"inputs": [
				{
					"internalType": "bytes32",
					"name": "role",
					"type": "bytes32"
				},
				{
					"internalType": "address",
					"name": "account",
					"type": "address"
				}
			],
			"name": "hasRole",
			"outputs": [
				{
					"internalType": "bool",
					"name": "",
					"type": "bool"
				}
			],
			"stateMutability": "view",
			"type": "function"
		},
		{
			"inputs": [
				{
					"internalType": "address",
					"name": "token",
					"type": "address"
				},
				{
					"internalType": "uint256",
					"name": "amount",
					"type": "uint256"
				}
			],
			"name": "previewTokenToUSDC",
			"outputs": [
				{
					"internalType": "uint256",
					"name": "creditedUSDC",
					"type": "uint256"
				}
			],
			"stateMutability": "view",
			"type": "function"
		},
		{
			"inputs": [
				{
					"internalType": "address",
					"name": "tokenIn",
					"type": "address"
				},
				{
					"internalType": "uint256",
					"name": "amountIn",
					"type": "uint256"
				}
			],
			"name": "previewTokenToUSDCByRouter",
			"outputs": [
				{
					"internalType": "uint256",
					"name": "",
					"type": "uint256"
				}
			],
			"stateMutability": "view",
			"type": "function"
		},
		{
			"inputs": [
				{
					"internalType": "uint256",
					"name": "amountWei",
					"type": "uint256"
				}
			],
			"name": "previewWeiToUSDC",
			"outputs": [
				{
					"internalType": "uint256",
					"name": "creditedUSDC",
					"type": "uint256"
				}
			],
			"stateMutability": "view",
			"type": "function"
		},
		{
			"inputs": [
				{
					"internalType": "uint256",
					"name": "amountWei",
					"type": "uint256"
				}
			],
			"name": "previewWeiToUSDCByRouter",
			"outputs": [
				{
					"internalType": "uint256",
					"name": "",
					"type": "uint256"
				}
			],
			"stateMutability": "view",
			"type": "function"
		},
		{
			"inputs": [
				{
					"internalType": "bytes32",
					"name": "role",
					"type": "bytes32"
				},
				{
					"internalType": "address",
					"name": "callerConfirmation",
					"type": "address"
				}
			],
			"name": "renounceRole",
			"outputs": [],
			"stateMutability": "nonpayable",
			"type": "function"
		},
		{
			"inputs": [
				{
					"internalType": "bytes32",
					"name": "role",
					"type": "bytes32"
				},
				{
					"internalType": "address",
					"name": "account",
					"type": "address"
				}
			],
			"name": "revokeRole",
			"outputs": [],
			"stateMutability": "nonpayable",
			"type": "function"
		},
		{
			"inputs": [
				{
					"internalType": "address",
					"name": "token",
					"type": "address"
				},
				{
					"internalType": "address",
					"name": "priceFeed",
					"type": "address"
				},
				{
					"internalType": "bool",
					"name": "enabled",
					"type": "bool"
				}
			],
			"name": "setAssetConfig",
			"outputs": [],
			"stateMutability": "nonpayable",
			"type": "function"
		},
		{
			"inputs": [
				{
					"internalType": "address",
					"name": "newUsdc",
					"type": "address"
				}
			],
			"name": "setUSDC",
			"outputs": [],
			"stateMutability": "nonpayable",
			"type": "function"
		},
		{
			"inputs": [
				{
					"internalType": "address",
					"name": "newRouter",
					"type": "address"
				}
			],
			"name": "setUniswapRouter",
			"outputs": [],
			"stateMutability": "nonpayable",
			"type": "function"
		},
		{
			"inputs": [
				{
					"internalType": "bytes4",
					"name": "interfaceId",
					"type": "bytes4"
				}
			],
			"name": "supportsInterface",
			"outputs": [
				{
					"internalType": "bool",
					"name": "",
					"type": "bool"
				}
			],
			"stateMutability": "view",
			"type": "function"
		},
		{
			"inputs": [],
			"name": "totalDepositCount",
			"outputs": [
				{
					"internalType": "uint128",
					"name": "",
					"type": "uint128"
				}
			],
			"stateMutability": "view",
			"type": "function"
		},
		{
			"inputs": [],
			"name": "totalUsdDeposits",
			"outputs": [
				{
					"internalType": "uint256",
					"name": "",
					"type": "uint256"
				}
			],
			"stateMutability": "view",
			"type": "function"
		},
		{
			"inputs": [],
			"name": "totalWithdrawCount",
			"outputs": [
				{
					"internalType": "uint128",
					"name": "",
					"type": "uint128"
				}
			],
			"stateMutability": "view",
			"type": "function"
		},
		{
			"inputs": [],
			"name": "uniswapRouter",
			"outputs": [
				{
					"internalType": "contract IUniswapV2Router02",
					"name": "",
					"type": "address"
				}
			],
			"stateMutability": "view",
			"type": "function"
		},
		{
			"inputs": [],
			"name": "usdc",
			"outputs": [
				{
					"internalType": "address",
					"name": "",
					"type": "address"
				}
			],
			"stateMutability": "view",
			"type": "function"
		},
		{
			"inputs": [],
			"name": "weth",
			"outputs": [
				{
					"internalType": "address",
					"name": "",
					"type": "address"
				}
			],
			"stateMutability": "view",
			"type": "function"
		},
		{
			"inputs": [],
			"name": "withdrawLimitPerTxNative",
			"outputs": [
				{
					"internalType": "uint256",
					"name": "",
					"type": "uint256"
				}
			],
			"stateMutability": "view",
			"type": "function"
		},
		{
			"inputs": [
				{
					"internalType": "uint256",
					"name": "amountWei",
					"type": "uint256"
				}
			],
			"name": "withdrawNative",
			"outputs": [],
			"stateMutability": "nonpayable",
			"type": "function"
		},
		{
			"inputs": [
				{
					"internalType": "uint256",
					"name": "amountWei",
					"type": "uint256"
				},
				{
					"internalType": "uint256",
					"name": "maxUSDCIn",
					"type": "uint256"
				}
			],
			"name": "withdrawNativeViaUniswapV2",
			"outputs": [],
			"stateMutability": "nonpayable",
			"type": "function"
		},
		{
			"inputs": [
				{
					"internalType": "address",
					"name": "token",
					"type": "address"
				},
				{
					"internalType": "uint256",
					"name": "amountToken",
					"type": "uint256"
				}
			],
			"name": "withdrawToken",
			"outputs": [],
			"stateMutability": "nonpayable",
			"type": "function"
		},
		{
			"stateMutability": "payable",
			"type": "receive"
		}
	]
}